S0120000342073656D65737465722E7372656356
S1130000E5C0000004C1000002C1000000C10000FE
S1130010FEC00000FCC00000FAC00000F8C00000F0
S1130020F6C00000F4C00000F2C00000F0C0000000
S1130030C9C70000ECC00000EAC00000E8C000002E
S1130040E6C00000E4C00000E2C00000E0C0000020
S1130050DEC00000DCC00000DAC00000D8C0000030
S1130060D6C000000C94B2200C940421D0C000002F
S1130070CEC00000CCC00000CAC00000C8C0000050
S1130080C6C00000C4C00000C2C00000C0C0000060
S11300900C9448210C949A21BAC000000C94E525D4
S11300A0B6C00000B4C00000B2C00000B0C0000080
S11300B0AEC00000ACC00000AAC00000A8C0000090
S11300C0A6C00000A4C00000A2C000000C94DE2161
S11300D00C9430229CC000000C9474220C94C62210
S11300E096C00000161A161A161A4D1A551A6A1ACC
S11300F0161A161A4D1A551A0726772677267726C2
S11301007726772677267726072677267726772673
S11301107726772677267726092677267726772661
S113012077267726772677267726772677267726E3
S11301307726772677267726092677267726772641
S113014077267726772677267726772677267726C3
S113015077267726772677267326772677267726B7
S113016077267726772677263E26772677267726DC
S11301707726772677267726772677267726772693
S113018077267726772677263226772677267726C8
S1130190772677267726772656260E94C80E8091E2
S11301A0E015823008F048D60E94931AF6CFCF9318
S11301B0DF931F92CDB7DEB7CE0101960E9493174D
S11301C049810E9488190E94DF19F6CF11241FBEAD
S11301D0CFEFD1E2DEBFCDBF00E00CBF17E0A0E05F
S11301E0B2E0E6EFFAE500E00BBF02C007900D9223
S11301F0AA3DB107D9F727E1AAEDB7E001C01D92E6
S1130200A039B207E1F70E94D21A0C94792DF8CEE6
S1130210CF93DF93CDB7DEB766970FB6F894DEBF02
S11302200FBECDBF41E050E060E070E080918417E4
S1130230909185174CD3CC24CA94DC2C760101E030
S113024021E042E050E060E070E0809182179091FC
S113025083179DD261FF37C082E492E00E946E2A28
S1130260E7D1182F092FE9D10F931F939F938F93F1
S113027085E592E09F938F930E945B2ADED143D061
S1130280D7D13CD08AE090E043D062E0CE01019621
S113029044D00FEF1FEF980146E150E0BE016F5FBD
S11302A07F4F80918017909181170E943E0C60E1EE
S11302B07DE180E090E00E9453120F900F900F9028
S11302C00F900F900F9063E070E080E090E00E9448
S11302D05312A8CFEF92FF920F93E12CF12C082F29
S11302E020E030E040EC50E06EE772E088E091E01E
S11302F00E944E0F0F91FF90EF9008959093DB07AB
S11303008093DA0708959093DD078093DC070895BE
S1130310909369178093681708951F93CF93DF9381
S1130320EC01162F86E190E0D3D3FC01892BA9F0D0
S1130330108386E081838091681790916917928376
S113034083838091DA079091DB079483858380917E
S1130350DC079091DD079683878386E1DE010190B7
S11303600D928A95E1F7CE01DF91CF911F91089507
S1130370EF92FF920F93E12CF12C082F20E030E054
S113038048E851E066E872E081EA92E00E944E0F8C
S11303900F91FF90EF9008950F931F93CF93DF93E6
S11303A0CDB7DEB764970FB6F894DEBF0FBECDBFEE
S11303B081E00E947D240E94721C0E94EF1E9F9384
S11303C08F9382EA92E09F938F930E945B2A0E940C
S11303D0F01D0E94EF1E9F938F9385EB92E09F93F5
S11303E08F930E945B2A8E010F5F1F4FC8010E94EA
S11303F0841C0E94EF1E1F930F939F938F938EEC88
S113040092E09F938F930E945B2AC8010E94A01CD4
S11304100E94EF1E9F938F931F930F9382EE92E09F
S11304209F938F930E945B2AA80167EF72E088E193
S113043093E00E94CE1E0E94EF1E9F938F931F9302
S11304400F9387EF92E09F938F9388E193E09F93BC
S11304508F9389E293E09F938F930E945B2A0E947B
S1130460D31C0E94EF1E9F938F938FE593E09F937D
S11304708F930E945B2A0FB6F894DEBF0FBECDBFE8
S113048081E00E94CD1D0E94EF1E9F938F938EE604
S113049093E09F938F930E945B2A84EF91E00E94E4
S11304A0D81D0E94EF1E9F938F9381E08F9384EF5A
S11304B08F938FE893E09F938F930E945B2A0FB6EC
S11304C0F894DEBF0FBECDBF1AE080E00E94D91CB5
S11304D0082F0E94EF1E9F938F931F921F938FEA02
S11304E093E09F938F930E945B2A0F900F900F903D
S11304F00F900F900F90083059F080E00E94E12493
S113050066E371E080E090E00E9453121150E9F636
S1130510083021F481E00E94C32408C081E00E94D5
S1130520D22480E00E94A02487D4FECF64960FB624
S1130530F894DEBF0FBECDBFDF91CF911F910F9115
S11305400895CF93DF9300D01F92CDB7DEB781E03B
S11305500E94641C62E070E080E090E00E9453120C
S113056080E00E94641C66E970E080E090E00E94F4
S113057053120E945D1C10DF0E94D80F69837A8396
S11305808B839C8348E85EE060E070E0CE010196D6
S11305900E94EE110FEF1FEF980146E150E06AE66A
S11305A077E180918017909181170E94030D83E079
S11305B00E94F3246AE677E180E00E94021D0E9413
S11305C0EF1E9F938F938FEC93E09F938F930E94E2
S11305D05B2A0F900F900F900F90D4CFC5D09093BB
S11305E0831780938217C0D09093851780938417C4
S11305F0089541E060E070E08CE290E00E94DC0B42
S11306009093811780938017892B49F484EE93E0AB
S11306109F938F930E945B2A0F900F90089585E11A
S113062094E09F938F930E945B2A0F900F900895FC
S11306308091DA079091DB0708958091DC0790910F
S1130640DD0708950E94071B811105C080E494E032
S11306500C946E2A089583E694E00C946E2A08950F
S11306600E941F1B882321F08DE794E00E946E2ACC
S113067063E070E080E090E00E9453120E94341B1B
S1130680882321F08DE994E00E946E2A61E070E0F5
S113069080E090E00C9453120895CC24CA94DC2C8E
S11306A0760101E021E041E050E060E070E08091FB
S11306B08417909185176BD060FF1AC082EC94E088
S11306C00E946E2ACDDF0E94801B9093DD078093E9
S11306D0DC070E945A1B9093DB078093DA0742E001
S11306E050E060E070E08091821790918317EFD022
S11306F060E070E0CB010E945312CFCFEF92FF92E3
S11307000F93082F9FDFE12CF12C20E030E040EC28
S113071050E067ED74E08DE493E00E944E0F0F917A
S1130720FF90EF9008950F9301110CC0DC01CB01F1
S113073082239323A423B523892B8A2B8B2B79F42F
S113074080E010C0DC01CB0182239323A423B523D2
S1130750281739074A075B0721F080E003C081E0CE
S113076001C081E00F910895CF93DF938FE090E073
S1130770AFD1EC01009739F0FC0111921192119262
S11307801192CF018BD2CE01DF91CF9108952F9298
S11307903F924F925F926F927F928F929F92AF920D
S11307A0BF92CF92DF92EF92FF920F931F93CF935A
S11307B0DF93EC014A015B01622E702E0E94D20F7E
S11307C0288039804A805B80A5019401C201B1016F
S11307D0AADF8823A1F0662089F1D501C4018095A0
S11307E09095A095B09582219321A421B521888369
S11307F09983AA83BB83C12CD12C760122C0C11456
S1130800D104E104F104E9F0611004C040E050E0D7
S1130810BA0104C040E050E060E071E0711074601F
S1130820482959296A297B2997018601CE01049612
S11308300E94EA12212C312C210103C0C12CD12C9D
S113084076010E941211CD28CE28CF2859F18111AA
S113085001C0F2D20E94B1156B017C0191FD1FC051
S11308600FB6F8940F92C880D980EA80FB80072DD8
S1130870A5019401C701B60156DF882371F06620F3
S113088061F080949094A094B0948C209D20AE202C
S1130890BF2088829982AA82BB820F900FBE160164
S11308A027015524C201B101DF91CF911F910F910E
S11308B0FF90EF90DF90CF90BF90AF909F908F907C
S11308C07F906F905F904F903F902F9008954F923C
S11308D05F926F927F92AF92BF92CF92DF92EF922C
S11308E0FF920F931F93CF93DF93EC016A017B0177
S11308F08C01095F1F4F0E94D20FEB85FC85888114
S11309009981AA81BB81C82AD92AEA2AFB2AC882EA
S1130910D982EA82FB82C12CD12C76013DC0A4800D
S1130920B58080819181A281B381AC01BD0177271B
S1130930B2FD0EC0488059806A807B8044225522D3
S11309406622772245284628472889F420E012C0E9
S1130950488059806A807B8044225522662277220F
S1130960441555056605770521F020E003C021E014
S113097001C021E0222371F0B0FF04C0C42AD52AAB
S1130980E62AF72A488159816A817B817260CF0106
S11309900E942514EA2DFB2DE017F10709F0BFCFC3
S11309A0C094D094E094F09488819981AA81BB8109
S11309B0C822D922EA22FB22C882D982EA82FB8297
S11309C00E941211688179818A819B81DF91CF9184
S11309D01F910F91FF90EF90DF90CF90BF90AF9059
S11309E07F906F905F904F900895EAEEF7E0AEEE3F
S11309F0B7E0B183A08313821282E6E9F5E1F093B4
S1130A00E907E093E807138212821182108288EAD0
S1130A109DE013969C938E931297ED93FC93909381
S1130A20E5078093E4079093E7078093E60780E067
S1130A3090E89093DF078093DE070895CF93DF93C8
S1130A40EC01AAEEB7E001C0DF01ED91FC91119732
S1130A50EC17FD07C8F312968D919C9113979D0195
S1130A60280F391FC217D30749F42A813B81820F0B
S1130A70931F13969C938E931297ED018A819B8109
S1130A809E01280F391FE217F307C1F42091E807EC
S1130A903091E907E217F30771F022813381820F65
S1130AA0931F9B838A83ED91FC911197808191819F
S1130AB09983888305C03983288302C0F983E88336
S1130AC0CA17DB0711F0CD93DC93DF91CF91089522
S1130AD0EF92FF920F931F93CF93DF938C010E94A9
S1130AE0D20F8091E8079091E907892B09F47DDF03
S1130AF08091DE079091DF0780239123892B09F0F1
S1130B0076C00115110549F0C801049608171907A4
S1130B1018F000E010E001C08C010115110509F482
S1130B2069C08091E6079091E7078017910708F460
S1130B3064C0C091EA07D091EB07EAEEF7E002C087
S1130B40FE01EC018A819B818017910720F4888142
S1130B5099810097A9F78091E8079091E907C81750
S1130B60D90709F44DC0E080F18084E0E80EF11C5F
S1130B7088819981918380832A813B81201B310B59
S1130B802930310548F0CE01800F911FFC013383D9
S1130B9022831B830A8352DF2A813B818091E607EB
S1130BA09091E707821B930B9093E7078093E607E6
S1130BB04091E4075091E5078417950720F490933A
S1130BC0E5078093E4078091DE079091DF07282BE7
S1130BD0392B3B832A83198218828091E2079091F2
S1130BE0E30701969093E3078093E2070BC0E12C9F
S1130BF0F12C08C0E12CF12C05C0E12CF12C02C031
S1130C00E12CF12C0E941211E114F10411F40E9460
S1130C109F1AC701DF91CF911F910F91FF90EF9021
S1130C2008950F931F93CF93DF93009791F1EC01F5
S1130C3024974A815B812091DE073091DF07BA0156
S1130C4062237323672B29F168817981672B09F566
S1130C5020953095242335233B832A830E94D20F89
S1130C608A819B812091E6073091E707820F931FC9
S1130C709093E7078093E607CE01E0DE8091E007DA
S1130C809091E10701969093E1078093E0070E9419
S1130C901211DF91CF911F910F910895FC010396DA
S1130CA0928381834FEF5FEFBA014383548365835B
S1130CB07683908787839287818710820895FC01C9
S1130CC01386128608950F931F93CF93DF93EB013E
S1130CD0088119812A813B810F3F4FEF14072407B4
S1130CE0340721F4FC01A185B28511C0DC011396FF
S1130CF001C0DF011496ED91FC911597408151815B
S1130D0062817381041715072607370790F7149635
S1130D10ED91FC911597FD83EC83D783C683BF8344
S1130D20AE831596DC93CE9314979B878A87FC0138
S1130D3020812F5F2083DF91CF911F910F91089520
S1130D40CF93DF93FC01A285B385C481D5818681CD
S1130D5097819F838E83C681D781848195819D836A
S1130D608C8311968D919C911297E817F90731F4B1
S1130D708681978112969C938E931197138612867F
S1130D808C9181508C938C91DF91CF910895A8958B
S1130D9090EC88E10FB6F894A895809360000FBE9C
S1130DA0909360000895FC016083319770833197BC
S1130DB0108231971082319720E820833197108276
S1130DC031971082319710827797408331975083FF
S1130DD086970895DCDFA0914E16B0914F16CD9101
S1130DE0CDBFDD91DEBFFF91EF91DF91CF91BF9138
S1130DF0AF919F918F917F916F915F914F913F91AF
S1130E002F911F910F91FF90EF90DF90CF90BF90A3
S1130E10AF909F908F907F906F905F904F903F9096
S1130E202F901F900F900CBE0F900BBE0F900FBE13
S1130E300F90089581E008950F920FB6F8940F92E1
S1130E400BB60F920CB60F921F9211242F923F9261
S1130E504F925F926F927F928F929F92AF92BF92C6
S1130E60CF92DF92EF92FF920F931F932F933F93B2
S1130E704F935F936F937F938F939F93AF93BF939E
S1130E80CF93DF93EF93FF93A0914E16B0914F163B
S1130E900DB60D920EB60D920E946E12A0914E16D2
S1130EA0B0914F16CD91CDBFDD91DEBFFF91EF9193
S1130EB0DF91CF91BF91AF919F918F917F916F916E
S1130EC05F914F913F912F911F910F91FF90EF9060
S1130ED0DF90CF90BF90AF909F908F907F906F9056
S1130EE05F904F903F902F901F900F900CBE0F90EB
S1130EF00BBE0F900FBE0F9008950F920FB6F8948B
S1130F000F920BB60F920CB60F921F9211242F92D0
S1130F103F924F925F926F927F928F929F92AF9285
S1130F20BF92CF92DF92EF92FF920F931F932F9372
S1130F303F934F935F936F937F938F939F93AF935D
S1130F40BF93CF93DF93EF93FF93A0914E16B0918D
S1130F504F160DB60D920EB60D9213BE0E94E60FFB
S1130F6081110E946E12A0914E16B0914F16CD9130
S1130F70CDBFDD91DEBFFF91EF91DF91CF91BF91A6
S1130F80AF919F918F917F916F915F914F913F911D
S1130F902F911F910F91FF90EF90DF90CF90BF9012
S1130FA0AF909F908F907F906F905F904F903F9005
S1130FB02F901F900F900CBE0F900BBE0F900FBE82
S1130FC00F9008959ADF18950FB6F8940F92FC01CC
S1130FD0868D811102C081E001C080E00F900FBEB8
S1130FE008950FB6F8940F92FC01268D878D28136F
S1130FF002C081E001C080E00F900FBE08950F93FE
S11310001F93CF93DF93EC01042F1E8D48A1411150
S11310100CC088819981892B09F042C08C819D8103
S11310200E9456151D821C8242C0011117C050E057
S11310308A819B810E94FC2928A18A819B81820F3D
S1131040911D9B838A832C813D818217930750F1E4
S1131050888199819B838A8380E029C050E08E81B6
S11310609F810E94FC2988A190E091958195910926
S11310702E813F81280F391F3F832E834881598158
S11310802417350730F42C813D81820F931F9F83F1
S11310908E83023049F4112349F0115080E007C0D7
S11310A080E005C080E003C080E001C080E01F5FF5
S11310B01E8FDF91CF911F910F910895FC0140A1E4
S11310C04423A9F050E026813781240F351F37834C
S11310D02683848195812817390720F080819181A6
S11310E097838683CB01668177810C94FC290895CC
S11310F01F93CF93DF93EC010FB6F8940F921AA1CC
S11311000BC08B89882351F0CE0143960E9476133D
S113111081110E943F15115011169CF38FEF8AA381
S11311200F900FBE0FB6F8940F9219A10BC08885CB
S1131130882351F0CE0108960E94761381110E94F3
S11311403F15115011169CF38FEF89A30F900FBE1A
S1131150DF91CF911F910895CF93DF93EC010FB6E8
S1131160F8940F92E881F9818F8D28A190E030E006
S1131170829FA001839F500D929F500D11244E0F0A
S11311805F1F5D834C831E8EFB83EA830197289F38
S1131190A001299F500D389F500D1124CF01840FB9
S11311A0951F9F838E838FEF89A38AA361110BC040
S11311B08885882371F0CE0108960E9476138823CF
S11311C041F03ADE06C0CE01089668DDCE014396B2
S11311D065DD0F900FBE81E0DF91CF9108950F93ED
S11311E01F93F801611103C01183008302C051836E
S11311F04083878F60A361E0CF01AEDF1F910F9121
S11312000895DF92EF92FF920F931F93CF93DF9392
S1131210F82EE62ED42E869FC0011124839658DC26
S1131220EC01009741F08C012D2DAC014D5D5F4F19
S11312306E2D8F2DD4DFCE01DF91CF911F910F91B1
S1131240FF90EF90DF900895CF92DF92EF92FF929C
S11312500F931F93CF93DF93CDB7DEB729970FB6C4
S1131260F894DEBF0FBECDBF7C016B012E833F839C
S11312704887598710E00FB6F8940F92F701968DBE
S1131280878D981710F00230B1F4402FB601C701D2
S1131290B6DEF7019389992341F0C70143960E9472
S11312A07613882321F0C8DD02C08111C5DD0F90BB
S11312B00FBE81E049C08E819F81A885B985892BA5
S11312C08A2B8B2B21F40F900FBE80E03DC01111AF
S11312D005C0CE0101960E94D51411E00F900FBEF7
S11312E061D60FB6F8940F92F70181A18F3F09F4EC
S11312F011A2F70182A18F3F09F412A20F900FBE31
S1131300BE016A5F7F4FCE0101960E94E6148111EF
S113131017C0C70166DE882379F04E815F81688536
S11313207985C70108960E94D312C701E1DE7AD7F6
S11313308111A1CF81DD9FCFC701DADE73D79BCFA7
S1131340C701D6DE6FD780E029960FB6F894DEBFCA
S11313500FBECDBFDF91CF911F910F91FF90EF9002
S1131360DF90CF900895EF92FF920F931F93CF9346
S1131370DF938A01FC01568D378D531710F022300C
S1131380F9F4422F7801EC011AA18E8DCE0137DEDB
S11313901F3F81F48B898823A9F0CE0143960E94D4
S11313A07613882389F0E114F10481F081E0F701D8
S11313B080830DC0FF24F394F10EFAA281E007C0EC
S11313C080E005C081E003C081E001C081E0DF91DD
S11313D0CF911F910F91FF90EF900895CF92DF92DC
S11313E0EF92FF920F931F93CF93DF93CDB7DEB7A6
S11313F029970FB6F894DEBF0FBECDBF8C016B01E9
S11314002E833F8348875987E12C0FB6F8940F92B7
S1131410F801F68CFF2099F0B601C8014FDEFA946A
S1131420F801F68E8085882331F0C80108960E9461
S11314307613811101DD0F900FBE81E04FC08E81C4
S11314409F81A885B985892B8A2B8B2B21F40F903A
S11314500FBE80E043C0E11006C0CE0101960E9499
S1131460D514EE24E3940F900FBE9CD50FB6F894D8
S11314700F92F80181A18F3F09F411A2F80182A112
S11314808F3F09F412A20F900FBEBE016A5F7F4F17
S1131490CE0101960E94E614811117C0C80194DDA3
S11314A0882379F04E815F8168857985C8014396E8
S11314B00E94D312C8011CDEB5D68111A6CFBCDCB4
S11314C0A4CFC80115DEAED6A0CFC80111DEAAD6BE
S11314D0C8017ADD882309F498CF80E029960FB6F5
S11314E0F894DEBF0FBECDBFDF91CF911F910F9156
S11314F0FF90EF90DF90CF900895CF93DF93EC01AE
S11315000FB6F8940F9289A18F3F09F419A28AA10A
S11315108F3F09F41AA20F900FBE8E8D811104C063
S1131520CE0143960E943413CE01E2DDDF91CF91C8
S11315300895FC014481558122813381240F351F94
S113154080819181B901681B790BCB016417750700
S113155010F0841B950B08950F93FC018FE0DF01BD
S11315601D928A95E9F77587648755834483378389
S1131570268306870F910895AF92BF92CF92DF9290
S1131580EF92FF920F931F93CF93DF936C015B0154
S11315907A01FC01C281D381048115810C1B1D0BCE
S11315A04017510708F48A01F60184859585A8013E
S11315B0B5018C0F9D1F0E94FC290E151F0558F4C0
S11315C0A701401B510BB501600F711FF601848503
S11315D095850E94FC29CE018E0D9F1DF601248164
S11315E035818217930710F0821B930BF6019383C6
S11315F08283C701DF91CF911F910F91FF90EF90EC
S1131600DF90CF90BF90AF900895CF92DF92EF928A
S1131610FF920F931F93CF93DF931F921F92CDB727
S1131620DEB77C016B015A83498321153105C1F072
S1131630FC01868580FD08C04217530708F49A010F
S11316403A83298381E00FC02017310758F042E024
S113165050E0BE016F5F7F4FC7018EDF81E003C0A2
S113166080E001C080E0882331F049815A81B601CD
S1131670C70182DF02C080E090E00F900F90DF91FD
S1131680CF911F910F91FF90EF90DF90CF9008952D
S1131690AF92BF92CF92DF92EF92FF920F931F937C
S11316A0CF93DF937C015B01E9014217530708F4F0
S11316B0EA01209781F1F7010081118184819581EC
S11316C0801B910B6E018C179D0708F46C01F701C8
S11316D064857585600F711FA601C5010E94FC29F0
S11316E0CC16DD0658F4AE014C195D09F70164858A
S11316F07585C5018C0D9D1D0E94FC290C0F1D1FB5
S1131700F701848195810817190710F0081B190B3C
S1131710F70111830083CE01DF91CF911F910F91C7
S1131720FF90EF90DF90CF90BF90AF9008956F92AD
S11317307F928F929F92AF92BF92CF92DF92EF925D
S1131740FF920F931F93CF93DF931F921F92CDB7F6
S1131750DEB76C014B015A01790101151105B1F095
S1131760FC0160807180A801BE016F5F7F4F90DF34
S113177089819A81E01AF10AA816B90630F4F601B3
S113178071826082A12CB12C01C05C019701A5017A
S1131790B401C6017DDF0F900F90DF91CF911F91AF
S11317A00F91FF90EF90DF90CF90BF90AF909F90FC
S11317B08F907F906F900895CF92DF92EF92FF9277
S11317C00F93CF93DF93EC016B01413011F401E0EF
S11317D001C000E0C114D10419F4CC24C394D12C69
S11317E0CE014096C817D90720F4219671D97C01FF
S11317F002C0E12CF12CE114F10439F09601AE01A0
S1131800B701615F7F4FC701A7DEC701DF91CF91A9
S11318100F91FF90EF90DF90CF9008950F930FB644
S1131820F8940F92FC0120853185232B71F42285D5
S11318303385232B61F42681378144815581648566
S11318407585068589DE81E003C080E001C080E003
S11318500F900FBE0F910895FC0124813581808182
S11318609181820F931F42815381841B950B0197B1
S11318708217930710F0821B930B08952F923F92C7
S11318804F925F926F927F928F929F92AF92BF928C
S1131890CF92DF92EF92FF920F931F93CF93DF9338
S11318A0CDB7DEB72B970FB6F894DEBF0FBECDBF12
S11318B04C017B876A871A010E831F832887398727
S11318C0FC01848195810197268520FF0CC02A01A3
S11318D0F2E04F0E511C8415950558F41E821F82A8
S11318E01886198606C08417950710F02A0101C0CE
S11318F02C018E819F81A885B985892B8A2B8B2BFE
S113190009F438C0CE0101960E94BF140FB6F894B2
S11319100F92C401A1DF3C018415950540F560E0F8
S113192080E090E00E9479170E944315F4019387A8
S113193082870F900FBEAE80BF80C884D984E12C0B
S1131940F12C00E010E0980140E050E0BA0180E0A2
S11319500E94DB15F40113861286BE016A5F7F4F75
S1131960CE0101960E94E614882381F205C00F90EF
S11319700FBE02C0612C712C6114710419F4C401EE
S11319806BDF3C0182019301A1016A857B85C4015F
S11319903CDE6C01892BE9F0C401CBDDF401268126
S11319A0378182179307A8F0FDD2F40180859185D1
S11319B0892B71F080859185E12CF12C00E020E0E9
S11319C030E0A90160E00E948216F40111861086BD
S11319D029D4C6012B960FB6F894DEBF0FBECDBF37
S11319E0DF91CF911F910F91FF90EF90DF90CF90F7
S11319F0BF90AF909F908F907F906F905F904F902B
S1131A003F902F9008954F925F926F927F928F92A2
S1131A109F92AF92BF92CF92DF92EF92FF920F9379
S1131A201F93CF93DF93EC012B013A015801690115
S1131A308E8580FF05C06894882481F8912C02C0AB
S1131A40812C912CA114B104C104D10441F10FB62D
S1131A50F8940F92CE016DDD7C018816990648F04A
S1131A6060E080E090E00E9479170E944315998716
S1131A7088870F900FBE8E149F04A0F0E12CF12CE8
S1131A8000E010E0980140E050E0BA0180E00E94DC
S1131A90DB1519861886CE014CDD7C0103C0CE010E
S1131AA048DD7C018E149F04E8F484019701A301AE
S1131AB0B201CE013CDE6C01892BB1F073D28A8570
S1131AC09B85892B69F08A859B85E12CF12C00E0AC
S1131AD020E030E0A90160E00E9482161B861A868D
S1131AE0A1D302C0C12CD12CC601DF91CF911F918B
S1131AF00F91FF90EF90DF90CF90BF90AF909F90A9
S1131B008F907F906F905F904F900895E091C815EB
S1131B10F091C915808181110CC08FEF9FEFDC011A
S1131B2080939D1590939E15A0939F15B093A01537
S1131B300895E091C815F091C9150780F085E02D4E
S1131B4080819181A281B38180939D1590939E158C
S1131B50A0939F15B093A0150895CF93DF93EC0144
S1131B608B8D9C8D5ED8CE015CD8DF91CF9108958A
S1131B704F925F926F927F928F929F92AF92BF9299
S1131B80CF92DF92EF92FF920F93CF93DF932C01CA
S1131B905B014A013901E60165EA70E08B8D9C8D99
S1131BA00E94052A8B8D9C8D21E0821A9108880E53
S1131BB0991EA114B10489F415C0822F90E0F50197
S1131BC0E80FF91F3081DE01A80FB91F5D963C9321
S1131BD08081882329F02F5F01C020E0203168F341
S1131BE01CA601C01D8E0A3008F009E00A8F0DA75B
S1131BF01EA6CE01029663D8CE010E9660D8DB876E
S1131C00CA878AE090E0A0E0B0E0801B9109A109B6
S1131C10B1098E879F87A88BB98BDF8BCE8B84E02D
S1131C20FE01BF96DF011D928A95E9F71BAAA30165
S1131C30B201C401B8D899838883E114F10419F07E
S1131C40F701D183C083DF91CF910F91FF90EF9083
S1131C50DF90CF90BF90AF909F908F907F906F90C8
S1131C605F904F900895CF93C0E008C02BE0C29FCF
S1131C70C001112480529A4E11D8CF5FCA30B0F3FC
S1131C8085ED95E10BD88AEC95E108D88BEB95E1CD
S1131C9005D880EB95E102D885ED95E19093C915BF
S1131CA08093C8158AEC95E19093C7158093C61567
S1131CB0CF910895CF93DF93EC010FB6F8940F9270
S1131CC08091AE158F5F8093AE1580914E169091E2
S1131CD04F16892B51F4D0934F16C0934E16809112
S1131CE0AE15813091F4BFDF10C08091A815811129
S1131CF00CC0E0914E16F0914F16928D8A8D891783
S1131D0020F0D0934F16C0934E168091A1158F5F8B
S1131D108093A115EA8D8091A9158E1710F4E09394
S1131D20A9158BE08E9FF0011124E052FA4E018038
S1131D30F281E02DFF83EE8326813781398728875E
S1131D40A681B7819E012E5F3F4F15963C932E933B
S1131D50149737832683EA8D8E9FF0011124E05275
S1131D60FA4EFD87EC8780818F5F80830F900FBED2
S1131D708091A815882349F0E0914E16F0914F16F2
S1131D80928D8A8D981708F457D8DF91CF910895D2
S1131D90CF93DF931BC00FB6F8940F92E091B71561
S1131DA0F091B815C085D185CE0102960E94A00697
S1131DB08091AE1581508093AE158091AF158150FE
S1131DC08093AF150F900FBECE01C7DE8091AF1583
S1131DD08111E1CFDF91CF9108958F929F92AF92BD
S1131DE0BF92CF92DF92EF92FF926B017C018090C1
S1131DF0AA159090AB15A090AC15B090AD1580913C
S1131E004E1690914F1602960E94A006C80CD91C3B
S1131E10EA1CFB1CE0914E16F0914F16C282D3824D
S1131E20E482F582C814D904EA04FB0468F46091DE
S1131E304E1670914F168091C6159091C7156E5F1E
S1131E407F4F0E94630621C060914E1670914F1619
S1131E508091C8159091C9156E5F7F4F0E946306EB
S1131E6080919D1590919E15A0919F15B091A015FC
S1131E70C816D906EA06FB0640F4C0929D15D09216
S1131E809E15E0929F15F092A015FF90EF90DF90C1
S1131E90CF90BF90AF909F908F9008952F923F92D4
S1131EA04F925F926F927F928F929F92AF92BF9266
S1131EB0CF92DF92EF92FF920F93CF93DF933C0187
S1131EC01B014A012901CA010E9468056C01892B82
S1131ED071F084E390E00E946805EC01892B19F00D
S1131EE0DC8ECB8E06C0C6010E94110602C0C0E083
S1131EF0D0E0209761F0A12CB12C6E019201A401D5
S1131F00B101C30135DECE01D5DE81E001C08FEF22
S1131F10DF91CF910F91FF90EF90DF90CF90BF9022
S1131F20AF909F908F907F906F905F904F903F9075
S1131F302F900895EF92FF920F930F2EFBE9EF2E4F
S1131F40F5E1FF2EF02D00E020E030E040EC50E021
S1131F5066EE74E08DEC90E0A1DF813011F40E9414
S1131F601D188130C9F4F8948FEF9FEFDC01809342
S1131F709D1590939E15A0939F15B093A01581E095
S1131F808093A8151092AA151092AB151092AC1557
S1131F901092AD150E94EA06809106020F91FF90FF
S1131FA0EF90089580919A158F5F80939A15089504
S1131FB00FB6F8940F926091AA157091AB158091A9
S1131FC0AC159091AD150F900FBE0895CF92DF928E
S1131FD0EF92FF92CF93DF9380919A15811105C1FF
S1131FE0C090AA15D090AB15E090AC15F090AD154B
S1131FF08FEFC81AD80AE80AF80AC092AA15D09234
S1132000AB15E092AC15F092AD15C114D104E10406
S1132010F104B1F48091C8159091C9152091C615A9
S11320203091C7153093C9152093C8159093C715DF
S11320308093C6158091A2158F5F8093A21566DDEB
S113204080919D1590919E15A0919F15B091A0151A
S1132050C816D906EA06FB0620F480E0B2C081E087
S113206001C080E0E091C815F091C91590819111EB
S11320700CC04FEF5FEFBA0140939D1550939E152E
S113208060939F157093A0159CC0E091C815F091C2
S1132090C9150780F085E02D0084F185E02D42818B
S11320A0538164817581C416D506E606F70648F4A3
S11320B040939D1550939E1560939F157093A015A2
S11320C080C0A485B585C681D781208531853F83AD
S11320D02E83C085D185268137813D832C8311963B
S11320E04D915C9112979F012E5F3F4F421753070A
S11320F031F44085518512965C934E931197158661
S113210014869C9191509C93A08DB18D109709F1E8
S1132110C289D389448955895F834E83C489D5890B
S1132120428953895D834C8311966D917C911297FA
S1132130AF01425F5F4F6417750731F444895589D5
S113214012965C934E931197118E108E9C91915020
S11321509C93A28D9091A9159A1710F4A093A91598
S11321609BE09A9FD0011124A052BA4E11960D9073
S1132170BC91A02DB783A68316964D915C911797B9
S1132180518740871696CD91DC9117973D832C8318
S113219017963C932E931697A28D9A9FD0011124E3
S11321A0A052BA4EB587A4879C919F5F9C93228DC1
S11321B0E0914E16F0914F16928D291708F04FCFEB
S11321C051CFE0914E16F0914F16E28D9BE0E99FBE
S11321D0F0011124E052FA4E9081923008F081E02F
S11321E09091A315911116C016C08091A4159091D9
S11321F0A515A091A615B091A7150196A11DB11D15
S11322008093A4159093A515A093A615B093A71534
S113221080E001C081E0DF91CF91FF90EF90DF90EB
S1132220CF900895CF92DF92EF92FF92CF93DF93F6
S11322300FB6F8940F9280919A15815080939A1555
S113224080919A158111BEC08091AE15811188C00C
S1132250BCC0E091C215F091C3150084F185E02D56
S1132260A08DB18DC289D389848995899F838E83FA
S1132270C489D589828993899D838C8311962D91F4
S11322803C911297CF010E962817390731F48489AF
S1132290958912969C938E931197118E108E8C9122
S11322A081508C93A485B585C681D781808591851D
S11322B09F838E83C085D185868197819D838C83FE
S11322C011968D919C9112979F012E5F3F4F82171B
S11322D0930731F48085918512969C938E93119780
S11322E0158614868C9181508C93A28D8091A915AA
S11322F08A1710F4A093A9158BE08A9FD0011124AA
S1132300A052BA4E11960D90BC91A02DB783A6830E
S113231016964D915C911797518740871696CD91EB
S1132320DC9117973D832C8317963C932E93169735
S1132330A28D8A9FD0011124A052BA4EB587A487DA
S11323408C918F5F8C93928DA0914E16B0914F1605
S11323505A968C91981730F081E08093A31502C0AF
S1132360E0E0F0E08091BB15811173CFEF2B09F011
S1132370CDDBC090A415D090A515E090A615F090E3
S1132380A715C114D104E104F104A1F01FDE8823D0
S113239019F081E08093A31581E0C81AD108E108FF
S11323A0F108A1F71092A4151092A5151092A61584
S11323B01092A7158091A315882331F00E941C0761
S11323C081E003C080E001C080E00F900FBEDF9188
S11323D0CF91FF90EF90DF90CF9008958F929F92CE
S11323E0AF92BF92CF92DF92EF92FF921F93CF935F
S11323F0DF93EC016A017B01D5DD8090AA159090F2
S1132400AB15A090AC15B090AD1588819981AA81C7
S1132410BB81AC01BD014C0D5D1D6E1D7F1D881679
S11324209906AA06BB0660F4481759076A077B0792
S113243098F484169506A606B70680F010E013C03B
S1132440481759076A077B0758F084169506A606AD
S1132450B70640F010E007C010E005C011E003C06B
S113246011E001C011E0488359836A837B831123FF
S113247041F0CB01BA01681979098A099B0940E046
S1132480ACDCD0DE811102C00E941C07812FDF91D9
S1132490CF911F91FF90EF90DF90CF90BF90AF90BE
S11324A09F908F900895CF92DF92EF92FF926B01ED
S11324B07C01672B682B692B39F074DD40E0C70180
S11324C0B6018BDCAFDE01C080E0811102C00E9446
S11324D01C07FF90EF90DF90CF90089580919A159C
S11324E0882321F081E08093A31508951092A31509
S11324F0E0914E16F0914F1620813181E0914E16F5
S1132500F0914F16838D948D8217930760F060913C
S11325104E1670914F16635E7F4F80914E169091C8
S11325204F160E94AB1A8091A91501C08150282F23
S113253030E09BE0929FF001939FF00D1124E05254
S1132540FA4E9081992391F39BE0929FA001939F6F
S1132550500D1124DF010180F281E02D0480F5810A
S1132560E02D1296FC93EE9311974D515A4EE417B9
S1132570F50729F444815581FD01528341839BE091
S1132580929FF001939FF00D1124E052FA4E0180C6
S1132590F281E02D2085318530934F1620934E161D
S11325A08093A9150895CF92DF92EF92FF926A016A
S11325B07B0160914E1670914F16625F7F4F0E94AF
S11325C0630641E0C701B60108DCFF90EF90DF909D
S11325D0CF9008950F931F93CF93DF93FC01A091A5
S11325E04E16B0914F1670681E964D935D936D9381
S11325F07C935197A181B281C0914E16D0914F1610
S1132600BB8BAA8BC0914E16D0914F1616968D9106
S11326109C9117979D8B8C8B1696CD91DC91179777
S113262080914E1690914F160E969D838C838091C7
S11326304E1690914F160E9617969C938E9316975E
S1132640A0914E16B0914F165996FC93EE9358975D
S113265080818F5F808341E0C901B801BEDBDF91D7
S1132660CF911F910F910895CF93DF93FC01CB017C
S1132670BA01A181B281C0914E16D0914F16BB8B85
S1132680AA8BC0914E16D0914F1616964D915C911F
S113269017975D8B4C8B1696CD91DC9117974091D3
S11326A04E1650914F16425F5F4F5D834C834091AD
S11326B04E1650914F16425F5F4F17965C934E93A0
S11326C01697A0914E16B0914F165996FC93EE931F
S11326D0589730813F5F3083222319F06FEF7FEFEB
S11326E0CB01422F7ADBDF91CF910895CF93DF9313
S11326F0DC011796ED91FC9118970084F185E02D8B
S1132700A08DB18DC289D389848995899F838E8355
S1132710C489D589828993899D838C8311968D91EF
S11327209C9112979F01225F3F4F8217930731F4C8
S11327308489958912969C938E931197118E108E8D
S11327408C9181508C9380919A15811152C0A485EB
S1132750B585C681D781808591859F838E83C08509
S1132760D185868197819D838C8311968D919C91CF
S113277012979F012E5F3F4F8217930731F4808594
S1132780918512969C938E931197158614868C913D
S113279081508C93A28D8091A9158A1710F4A0936F
S11327A0A9158BE08A9FD0011124A052BA4E11962C
S11327B00D90BC91A02DB783A68316964D915C9184
S11327C01797518740871696CD91DC9117973D83D3
S11327D02C8317963C932E931697A28D8A9FD00133
S11327E01124A052BA4EB587A4878C918F5F8C9325
S11327F01CC04BEB55E1DA011196CD91DC91129797
S1132800D38BC28B8E819F81958B848B8E819F818C
S1132810DC0115963C932E9314973F832E83518F9E
S1132820408FDA018C918F5F8C93928DE0914E16DC
S1132830F0914F16828D891720F481E08093A315BF
S113284001C080E0DF91CF910895CF93DF93DC0145
S113285070684D935D936D937C9313971896ED91E7
S1132860FC9119971A964D915C911B9714968D9132
S11328709C91159716962D913C911797EC013F83E7
S11328802E8316968D919C91179714962D913C91B9
S11328901597EC013D832C83EA0189819A81A8175D
S11328A0B90731F416968D919C9117979A83898371
S11328B01B961C921E921A97DA018C9181508C936C
S11328C0A485B585C681D781808591859F838E83B4
S11328D0C085D185868197819D838C8311968D9146
S11328E09C9112979F012E5F3F4F8217930731F4FB
S11328F08085918512969C938E93119715861486E4
S11329008C9181508C93A28D8091A9158A1710F413
S1132910A093A9158BE08A9FD0011124A052BA4E2E
S113292011960D90BC91A02DB783A68316964D9158
S11329305C911797518740871696CD91DC91179734
S11329403D832C8317963C932E931697A28D8A9FD2
S1132950D0011124A052BA4EB587A4878C918F5F01
S11329608C93928DE0914E16F0914F16828D8917BB
S113297018F481E08093A315DF91CF9108950FB6E9
S1132980F8940F922091A215FC0120834091AA157E
S11329905091AB156091AC157091AD154183528384
S11329A0638374830F900FBE08952091A215FC01D8
S11329B020834091AA155091AB156091AC1570918C
S11329C0AD15418352836383748308958F929F92DC
S11329D0AF92BF92CF92DF92EF92FF920F931F9329
S11329E00FB6F8940F92C090AA15D090AB15E09052
S11329F0AC15F090AD15FC01018112812381348165
S1132A0046015701801A910AA20AB30A50814091E3
S1132A10A215541761F0C016D106E206F30638F089
S1132A20FB01108211821282138281E01BC0FB0120
S1132A30008111812281338180169106A206B3069A
S1132A4058F4081919092A093B09008311832283C0
S1132A503383ABDF80E006C0FB0110821182128257
S1132A60138281E00F900FBE1F910F91FF90EF90A2
S1132A70DF90CF90BF90AF909F908F90089581E0AA
S1132A808093A315089580914E1690914F16089542
S1132A908091A815882331F080919A15811104C082
S1132AA082E0089581E0089580E008950F931F93D4
S1132AB0CF93DF93FC01892B09F449C086A581508B
S1132AC086A7228D95A5291709F443C0811143C017
S1132AD0EF018F010E5F1F4FC8010E94A006EDA5F4
S1132AE0EA8F8AE090E0A0E0B0E08E1B9109A10992
S1132AF0B1098E879F87A88BB98B8091A9158E17F2
S1132B0010F4E093A9158BE08E9FF0011124E0529C
S1132B10FA4E0180F281E02DFF83EE832681378116
S1132B2039872887A681B78115961C930E9314972D
S1132B3017830683EA8D8E9FF0011124E052FA4E2A
S1132B40FD87EC8780818F5F808381E005C080E012
S1132B5003C080E001C080E0DF91CF911F910F910D
S1132B600895CF92DF92EF92FF92E0914E16F0918A
S1132B704F166685778580899189E0914E16F0918C
S1132B804F16A0914E16B0914F165A962C910F2EB7
S1132B90FAE0CF2ED12CE12CF12CF02DC21AD10861
S1132BA0E108F108C686D786E08AF18AFF90EF90A3
S1132BB0DF90CF9008954F925F926F927F92AF9281
S1132BC0BF92CF92DF92EF92FF920F931F93CF9316
S1132BD0DF93280139010FB6F8940F92E0914E1655
S1132BE0F0914F16C82FD0E0EC0FFD1F83A982305F
S1132BF071F1E0914E16F0914F16CE01880F991F96
S1132C00880F991FE80FF91F87A590A9A1A9B2A958
S1132C104095509560957095482359236A237B23EA
S1132C2047A750AB61AB72ABE0914E16F0914F16D3
S1132C30EC0FFD1F81E083ABA114B104C104D104E6
S1132C4031F041E0C601B501C8D80E941C070F90BD
S1132C500FBE0FB6F8940F92E114F104A1F0E091C5
S1132C604E16F0914F16CE01880F991F880F991FA9
S1132C70E80FF91F87A590A9A1A9B2A9F70180833C
S1132C809183A283B383E0914E16F0914F16EC0F1B
S1132C90FD1F83A98230E9F4E0914E16F0914F169E
S1132CA0CE01880F991F880F991FE80FF91F87A578
S1132CB090A9A1A9B2A94094509460947094482218
S1132CC059226A227B2247A650AA61AA72AA81E0ED
S1132CD001C080E020914E1630914F16C20FD31FD1
S1132CE01BAA0F900FBEDF91CF911F910F91FF9000
S1132CF0EF90DF90CF90BF90AF907F906F905F90F8
S1132D004F9008958F929F92AF92BF92EF92FF924D
S1132D100F93CF93DF93DC010FB6F8940F92E11475
S1132D20F10489F0E62FF0E0EE0FFF1FEE0FFF1F16
S1132D30E80FF91F87A490A8A1A8B2A8F701808280
S1132D409182A282B38270E0FD01E60FF71F83A98E
S1132D5092E093AB023001F118F4013031F04DC030
S1132D60033079F10430D1F148C0660F771F660F44
S1132D70771FFD01E60FF71F87A490A8A1A8B2A8AA
S1132D80BA01A901482959296A297B2947A750ABC7
S1132D9061AB72AB01E034C0660F771F660F771F1B
S1132DA0FD01E60FF71F47A550A961A972A94F5F5E
S1132DB05F4F6F4F7F4F47A750AB61AB72AB01E0E2
S1132DC01FC0660F771F660F771FFD01E60FF71F01
S1132DD027A730AB41AB52AB01E012C0823079F08F
S1132DE0660F771F660F771FFD01E60FF71F27A7F2
S1132DF030AB41AB52AB01E003C001E001C000E0E5
S1132E00813009F069C01C96ED91FC911D971696CE
S1132E10CD91DC91179718968D919C9119979F836A
S1132E208E831896CD91DC91199716968D919C916D
S1132E3017979D838C83818192819D012E5F3F4FE3
S1132E408217930731F418968D919C911997928368
S1132E5081831D961C921E921C97808181508083D1
S1132E605A96EC915A978091A9158E1710F4E09315
S1132E70A9158BE08E9FF0011124E052FA4E0180D7
S1132E80F281E02D1796FC93EE93169746815781B5
S1132E9019965C934E931897C681D7813D832C83F2
S1132EA0378326835A96EC915A978E9FF00111240A
S1132EB0E052FA4E1D96FC93EE931C9780818F5F2F
S1132EC080835A969C91E0914E16F0914F16828D14
S1132ED0891710F40E941C070F900FBE802FDF91FA
S1132EE0CF910F91FF90EF90BF90AF909F908F90F4
S1132EF00895009721F480914E1690914F160FB6C5
S1132F00F8940F9270E0FC01E60FF71F23A922301A
S1132F1031F4FC01E60FF71F13AA81E001C080E041
S1132F200F900FBE0895DC01E0915A16F0915B16E4
S1132F30808191E0811190E09C93911108C00780F9
S1132F40F085E02D6081718182819381089560E034
S1132F5070E0CB010895CF92DF92EF92FF920F932E
S1132F601F93FC0142835383648375839387828711
S1132F700417150726073707C0F00C191D092E0979
S1132F803F0986859785A089B189081719072A07FB
S1132F903B0700F5BF016E5F7F4F809158169091FB
S1132FA059160E94630680E018C00C151D052E05F5
S1132FB03F0528F44C155D056E057F0568F4BF01D7
S1132FC06E5F7F4F80915A1690915B160E94630644
S1132FD080E003C081E001C081E01F910F91FF9068
S1132FE0EF90DF90CF9008950FB6F8940F928091F0
S1132FF0561690915716892BE9F487E696E10E94BC
S11330004E068CE596E10E944E0687E696E1909383
S11330105B1680935A168CE596E19093591680932B
S1133020581640E067E08AE00E9401099093571621
S1133030809356160F900FBE0895EF92FF920F9350
S1133040D3DF8091561690915716892B91F00F2E4D
S1133050F4E5EF2EF6E1FF2EF02D03E020E030E062
S113306040EC50E06BEE74E087ED90E00E944E0F70
S113307001C080E00F91FF90EF9008958F929F928E
S1133080AF92BF92CF92DF92EF92FF920F931F9372
S1133090CF93DF93CDB7DEB727970FB6F894DEBF93
S11330A00FBECDBFE0915616F0915716309781F1BF
S11330B069832A833B834C835D839F838E8366303D
S11330C0F4F4E6DC823069F400E0A7019601BE0165
S11330D06F5F7F4F80915616909157160E94240976
S11330E018C000E020E030E0A901BE016F5F7F4F0F
S11330F080915616909157160E9424090AC020E028
S1133100A801BE016F5F7F4FCF010E94B30901C0C8
S113311080E027960FB6F894DEBF0FBECDBFDF91D7
S1133120CF911F910F91FF90EF90DF90CF90BF90C0
S1133130AF909F908F9008958F929F92AF92BF927D
S1133140CF92DF92EF92FF920F931F93CF93DF936F
S11331503BC00780F085E02D80809180A280B38001
S1133160C085D1858E010E5F1F4FC8010E94A00645
S1133170EC89FD89CE0119958E8982FF25C08E8543
S11331809F85A889B989880D991DAA1DBB1D88161C
S11331909906AA06BB0670F48A839B83AC83BD831D
S11331A0DB87CA87B80180915A1690915B160E94FA
S11331B063060AC0C12CD12C760100E010E0A50101
S11331C0940160E0CE015ADFE0915A16F0915B164B
S11331D080818111BECF8091581690915916909399
S11331E05B1680935A16F0935916E0935816DF91A4
S11331F0CF911F910F91FF90EF90DF90CF90BF90F0
S1133200AF909F908F900895CF92DF92EF92FF92AC
S1133210CF93DF93EC010E94D80F6B017C01809166
S1133220501690915116A0915216B0915316C8168B
S1133230D906EA06FB0620F47FDF81E0888301C01B
S11332401882C0925016D0925116E0925216F09203
S11332505316C701B601DF91CF91FF90EF90DF9035
S1133260CF9008954F925F926F927F928F929F9228
S1133270AF92BF92CF92DF92EF92FF920F931F9380
S1133280CF93DF934B015C0129013A01E0915A1677
S1133290F0915B160780F085E02DC085D185CE01C5
S11332A002960E94A0068E8982FF1BC04E855F8510
S11332B068897989480D591D6A1D7B1D7501640152
S11332C093018201CE0147DE882369F0C12CD12C01
S11332D0760100E010E0A501940160E0CE01CEDEAD
S11332E002C08E7F8E8BEC89FD89CE011995DF910A
S11332F0CF911F910F91FF90EF90DF90CF90BF90EF
S1133300AF909F908F907F906F905F904F900895B3
S11333108F929F92AF92BF92CF92DF92EF92FF92E1
S11333201F93CF93DF931F92CDB7DEB76B017C0160
S1133330142F0E94D20FCE01019666DF4B015C016F
S1133340898181112DC011110DC08C149D04AE040E
S1133350BF0440F00E941211A5019401C701B601F7
S113336081DF20C0112341F0E0915816F0915916E5
S1133370808111E0811110E0B701A60148195909B3
S11333806A097B09212F80915616909157160E9445
S11333907D0A0E941211811105C00E941C0702C0FF
S11333A00E9412110F90DF91CF911F91FF90EF9027
S11333B0DF90CF90BF90AF909F908F900895AF9281
S11333C0BF92CF92DF92EF92FF920F931F93CF930E
S11333D0DF93CDB7DEB728970FB6F894DEBF0FBEE4
S11333E0CDBF82C0898188230CF47EC0AE80BF80AB
S11333F0D5011C968D919C911D97892B21F0C501B7
S113340002960E94A006CE010896FEDE8B019C0166
S1133410E9810E2E000CFF0BEA30F10508F064C0C0
S11334208827EE58FF4F8F4F0C94CF28F5018689DB
S11334308160868BCA80DB80EC80FD804685578561
S1133440608971894C0D5D1D6E1D7F1DC50183DD75
S1133450882309F449C0D5015496ED91FC91559700
S1133460C5011995F501868982FF3EC04A815B81B9
S11334706C817D8186859785A089B1899A01AB018C
S1133480280F391F4A1F5B1FC12CD12C760100E085
S113349010E060E0C501F2DD27C0D50156968C919D
S11334A056978E7F56968C931FC0F501868981604E
S11334B0868B4A815B816C817D8146875787608BCF
S11334C0718B400F511F621F731F68017901C50181
S11334D042DD0AC0F501868981FD04C0C5010E9450
S11334E0110602C08E7F868B20E030E0A901BE0168
S11334F06F5F7F4F80915616909157160E94EE0988
S1133500811170CF28960FB6F894DEBF0FBECDBFE1
S1133510DF91CF911F910F91FF90EF90DF90CF90AB
S1133520BF90AF900895089584B1806884B985B13F
S1133530806885B9089583B1806883B90895F4DFFC
S11335402FEF80E792E0215080409040E1F700C0E7
S11335500000F1DFF5CFE8DF2FEF87EA91E6215095
S113356080409040E1F700C00000E5DFF5CF0E9405
S1133570EE020C94F902089581E00E947E0382E039
S11335800E946A0183E00C94B801089581B18168B6
S113359081B9EDDF80E00E942823EEDF85E00C9402
S11335A02F240895F3DF83EF94E00E946E2A0E9493
S11335B09A0FFFCF6530F1F4FA0180818F7390E0A8
S11335C0982F88272181822B90930A0280930902E5
S11335D08281F0E48F9FC0011124FA012381269592
S11335E02695822B909308028093070281E08093B2
S11335F072160895643051F080E090E490930802CC
S11336008093070290930A028093090208950F930E
S11336101F930AED1AE120E034E244EF50E060E049
S113362087E20E941525909374168093731621E007
S1133630892B09F020E0822F1F910F91089580912A
S1133640731690917416009759F040E060E070E0B2
S11336500E946625843031F41092721680E0089539
S113366082E0089583E00895809173169091741612
S1133670009739F064E00E94B225853021F083E0A0
S1133680089582E0089580E00895609109027091A0
S11336900A0280E090E00E94BC2720E030E048EC81
S11336A052E40E944A2820E038EF4FE756E40C9495
S11336B023270895EADF20E030E040E251E40E944D
S11336C04A280E949027CB010895609107027091C7
S11336D0080280E090E00E94BC2720E030E045E250
S11336E053E40E944A2820E038EF4FE756E40E9452
S11336F0232720E030E040E252E40C94BE260895F3
S1133700E4DF20E030E040E251E40E944A280E94D5
S11337108B27CB0108950F931F93CF93DF938C01D5
S1133720EB018091AE169091AF160E940E0CB80179
S113373085E796E10E943C2A209779F0E5E7F6E1D7
S113374001900020E9F7319780E290E09183808333
S1133750BE0185E796E10E94312AE5E7F6E1DF0143
S11337600D900020E9F711978DE09AE011969C9353
S11337708E9312961C9201900020E9F73197E55739
S1133780F641AE2F85E796E1AC016A2F8091B01621
S11337909091B11672D4811111C008E215E020E0B5
S11337A030E04DE250E06AE077E18091AE1690910E
S11337B0AF160E94030D8AE097E102C080E090E01A
S11337C0DF91CF911F910F9108952F923F924F92C5
S11337D05F926F927F928F929F92AF92BF92CF929D
S11337E0DF92EF92FF920F931F93CF93DF935C01CD
S11337F0FC0101900020E9F731976F01C81AD90A3A
S11338005C2C0F2EFEE98F2EF7E09F2EF02DE12C7D
S1133810F12C4C2C3701F40101811281E80109904B
S11338200020E9F72197C01BD10B3C2EF9E0CF16FD
S1133830D10458F0F4012080FEE02F1206C0B80134
S1133840C5010E940C2A892B09F5442D351408F46E
S11338504C2F50E0B801C5010E94432A892B49F43A
S1133860F301EE0FFF1FE60DF71DE256F84F20801F
S11338700DC08FEFE81AF80AE3E08E0E911CF1E117
S1133880EF16F10439F66894222424F8822DDF918E
S1133890CF911F910F91FF90EF90DF90CF90BF9049
S11338A0AF909F908F907F906F905F904F903F90DC
S11338B02F90089530DF89CF08958091AE169091AE
S11338C0AF160C940E0C0895882331F0E8E0F1E073
S11338D080818F7E80830895E8E0F1E080818061BB
S11338E08083089560E070E084E295E014DFEAE00C
S11338F0F7E101900020E9F73197EA50F74181E0C0
S1133900759708F080E00895CF93DF93EC0160E0B1
S113391070E085E395E0FFDEEAE0F7E10190002046
S1133920E9F7EB51F74139F46AE077E1CE010E94FF
S11339303C2A80E002C0188281E0DF91CF91089593
S1133940FC0101900020E9F79F012151310928175A
S1133950390729F4BC0183E695E0ACCF089589E0EA
S11339600895FC0101900020E9F79F0121513109DC
S11339702817390729F4BC0182E795E09BCF089505
S113398089E00895FC0101900020E9F79F0121528C
S113399031092817390729F4BC0181E895E08ACF59
S11339A0089589E0089560E070E080EC95E082CFAE
S11339B008950F931F93E82FF0E0EE0FFF1FE656D4
S11339C0F84F6081718189EC95E074DF811114C036
S11339D008E215E020E030E04DE250E06AE077E1F3
S11339E08091AE169091AF160E94030D882321F0AA
S11339F08AE097E1EADE03C08AE097E1E6DE1F9100
S1133A000F9108950F931F93CF93DF931F92CDB718
S1133A10DEB7DB0111969C911197953108F0B4C083
S1133A20992381F160E070E0272F30E0462F50E0C9
S1133A30FD01E40FF51F928192959F709A3010F06A
S1133A40995C01C0905DF901E853F94E90832F5FB2
S1133A503F4FFD01E40FF51F92819F70492F50E005
S1133A604A30510514F0995C01C0905DF901E853A6
S1133A70F94E90837E5F6F5F11969C911197691741
S1133A8098F201C070E0E72FF0E0E853F94E10829D
S1133A904C91811103C082ED95E002C084ED95E064
S1133AA028EC36E13F932F931F924F939F938F936C
S1133AB088ED95E09F938F938DED96E19F938F937F
S1133AC00E949E2A60E070E08DED96E1F3DE0FB671
S1133AD0F894DEBF0FBECDBF811159C008E215E0D6
S1133AE020E030E04DE250E06AE077E18091AE16EC
S1133AF09091AF160E94030D882309F447C08AE011
S1133B0097E163DE8E3009F042C087E089838091BB
S1133B10AC169091AD16892BA9F1BE016F5F7F4F52
S1133B208AE097E168D18093B216E981F0E0E65F1C
S1133B30F84EDF010D900020E9F71197AE1BBF0B83
S1133B40AA2391F0BB27CD0101979C0112F42F5FAA
S1133B503F4F359527952093B316AF014F5F5F4FC5
S1133B6064E184EB96E173D101E010E020E030E001
S1133B7046E150E062EB76E18091AC169091AD168F
S1133B800E943E0C8EE003C084E101C080E00F90EF
S1133B90DF91CF911F910F910895813019F068EE54
S1133BA075E002C061EC76E08CEE95E083CE08957A
S1133BB09F938F938DE196E09F938F938DED96E184
S1133BC09F938F930E949E2A60E070E08DED96E1B2
S1133BD071DE0F900F900F900F900F900F9008953B
S1133BE02F923F924F925F926F927F928F929F9209
S1133BF0AF92BF92CF92DF92EF92FF920F931F93F7
S1133C00CF93DF93CDB7DEB7A0970FB6F894DEBF9E
S1133C100FBECDBF6AE476E086E596E07CDDD5DDB7
S1133C208111A3C080E2E2E2F2E0DE01119601908C
S1133C300D928A95E1F79E012F5F3F4F6901E12CB8
S1133C40F12C0F2EF2E6AF2EF6E0BF2EF02D0DED87
S1133C5016E10F2EFBE74F2EF6E05F2EF02D0F2E10
S1133C60F2E98F2EF6E09F2EF02D0F2EFCEA6F2E38
S1133C70F6E07F2EF02D3E2C2F2CFF92EF92BF9278
S1133C80AF921F930F930E949E2A60E070E0C801D8
S1133C9042DD9BDD0F900F900F900F900F900F90CF
S1133CA0811163C032E03E15E8F4F60183818F93FD
S1133CB082818F9381818F9380818F93FF92EF9282
S1133CC05F924F921F930F930E949E2A60E070E0D0
S1133CD0C80121DD7ADD0FB6F894DEBF0FBECDBF7B
S1133CE0811143C02F923F929F928F921F930F9303
S1133CF00E949E2A60E070E0C8010DDD66DD0F9031
S1133D000F900F900F900F900F9081112EC02F9253
S1133D103F927F926F921F930F930E949E2A60E0BE
S1133D2070E0C801F8DC51DD0F900F900F900F90F8
S1133D300F900F90811119C03FEFE31AF30A84E04A
S1133D40C80ED11C98E0E916F10409F094CF60E0A4
S1133D5070E084EC96E0DFDC38DD811106C060E0C1
S1133D6070E085ED96E0D7DC30DDA0960FB6F894D0
S1133D70DEBF0FBECDBFDF91CF911F910F91FF909A
S1133D80EF90DF90CF90BF90AF909F908F907F90F7
S1133D906F905F904F903F902F900895EF92FF9215
S1133DA00F931F93CF93DF93EC018B017A0181E092
S1133DB0F4DE81110DC0CE01D4DD811109C0C8012A
S1133DC0E1DD811105C0C701BBDD811101C0EBDD5F
S1133DD0DF91CF911F910F91FF90EF90089590E0A4
S1133DE0FC01EE0FFF1F8E0F9F1FFC01E256F84FE0
S1133DF0818192810895DC01009729F1FB012081E2
S1133E00FC0101900020E9F73197E81BF90B822FA0
S1133E1090E0E817F907C8F080E008C0880F382F51
S1133E20330F330F830F8053890F2F5FFD01E20F90
S1133E30F11D908130ED390F3A3010F49111EECF2D
S1133E40FB012083089580E0089580E008950F9396
S1133E501F93CF93DF93DC01EA012097E1F1FA018C
S1133E6001900020E9F73197E41BF50B329710F528
S1133E7032C08D01040F151F30E0AE01420F531FF5
S1133E80FA019081913428F09753592F5295507F1D
S1133E9003C0592F5295507F2C0F3D1FF90191817A
S1133EA0913410F0975301C09053950FF80190830B
S1133EB08F5F01C080E0282F220F482F50E0FE01C1
S1133EC001900020E9F73197EC1BFD0B4E175F07BB
S1133ED010F48613CECFDF91CF911F910F910895E7
S1133EE02F923F924F925F926F927F928F929F9206
S1133EF0AF92CF92EF92FF920F931F93CF93DF93E2
S1133F00CDB7DEB7F82E2A013B0188E090E00E948D
S1133F10D7288C018F2D90E0FC01EE0FFF1FE95C88
S1133F20F84E118300830115110509F469C0880F47
S1133F30991FFC01E55FFD4F80819181D8018D932C
S1133F409C938C2D90E0880F991F880F991F0E94D5
S1133F50D7281C0186E090E00E94D7287C014C2DD4
S1133F60B101F0D6F801F582E4828A2D90E0880F41
S1133F70991F880F991F0E94D7281C0186E090E0A2
S1133F800E94D7287C014A2DB101DCD6D8011396B2
S1133F90FC92EE92129717969C928E921697FFB609
S1133FA0F894ED91FC91119736978081826080831B
S1133FB08D909C90C301B201DFD720E030E040E057
S1133FC051E40E944A289B01AC0160E074E284E75A
S1133FD09BE439D720E030E040E85FE3CFD6A0D7B8
S1133FE0F40132976083D801ED91FC9111973597D4
S1133FF088E98083ED91FC91349786E08083FFBE4D
S1134000C801DF91CF911F910F91FF90EF90CF9056
S1134010AF909F908F907F906F905F904F903F9064
S11340202F900895CF93DF93DC01892B01F1129631
S1134030ED91FC911397938182812581981B9223A2
S113404084819817B1F0838126952823C081D1817A
S1134050C20FD11D68838F5F958189238383ED917E
S1134060FC91359780818062808380E003C081E089
S113407001C082E0DF91CF910895EF92FF920F93F8
S11340801F93CF93DF937C01009709F441C0DC01B7
S11340901296ED91FC91139793818281981B8581EF
S11340A098238481891B8617A8F1662341F1842F04
S11340B0952FDC016150462F50E04F5F5F4F480F52
S11340C0591FE701EA81FB81938182812581981B35
S11340D092238481981779F08C91938126952923D2
S11340E0608171818B01020F111DE80188839F5F3C
S11340F08581982393831196A417B50711F7D701E7
S1134100ED91FC91359780818062808380E003C0CB
S113411081E001C082E0DF91CF911F910F91FF9068
S1134120EF9008950097D1F0DC011496ED91FC9185
S1134130159793818281981799F09281858186954C
S11341408923A081B181A80FB11D8C91DB018C93CF
S11341509F5F85819823928380E0089581E008958C
S113416083E008951F920F920FB60F9211240BB69D
S11341700F922F933F934F935F936F937F938F93FC
S11341809F93AF93BF93CF93DF93EF93FF93A0914C
S11341903717B0913817109711F16091C600149633
S11341A0ED91FC911597938182812581981B92232F
S11341B08481981761F0838126952823C081D18159
S11341C0C20FD11D68838F5F9581892383831696DF
S11341D0ED91FC911797309711F0CD011995FF914E
S11341E0EF91DF91CF91BF91AF919F918F917F918B
S11341F06F915F914F913F912F910F900BBE0F9054
S11342000FBE0F901F9018951F920F920FB60F922A
S113421011240BB60F922F938F939F93AF93BF9359
S1134220EF93FF93E0913717F09138173097B9F077
S11342300280F381E02D938182819817B1F09281FD
S11342408581282F26952923A081B181A20FB11D34
S11342502C919F5F892382832093C6000BC0E1ECDD
S1134260F0E080818F7D808305C0E1ECF0E0808107
S11342708F7D8083FF91EF91BF91AF919F918F913B
S11342802F910F900BBE0F900FBE0F901F9018959B
S11342901F920F920FB60F9211240BB60F922F9309
S11342A03F934F935F936F937F938F939F93AF93BA
S11342B0BF93CF93DF93EF93FF93A0913917B091FE
S11342C03A17109711F16091CE001496ED91FC917C
S11342D01597938182812581981B92238481981755
S11342E061F0838126952823C081D181C20FD11D1D
S11342F068838F5F9581892383831696ED91FC9162
S11343001797309711F0CD011995FF91EF91DF9137
S1134310CF91BF91AF919F918F917F916F915F9159
S11343204F913F912F910F900BBE0F900FBE0F90A6
S11343301F9018951F920F920FB60F9211240BB66F
S11343400F922F938F939F93AF93BF93EF93FF930A
S1134350E0913917F0913A173097B9F00280F38160
S1134360E02D938182819817B1F092818581282F65
S113437026952923A081B181A20FB11D2C919F5FA5
S1134380892382832093CE000BC0E9ECF0E0808186
S11343908F7D808305C0E9ECF0E080818F7D808390
S11343A0FF91EF91BF91AF919F918F912F910F90BA
S11343B00BBE0F900FBE0F901F9018951F920F9277
S11343C00FB60F9211240BB60F922F933F934F9376
S11343D05F936F937F938F939F93AF93BF93CF9389
S11343E0DF93EF93FF93A0913B17B0913C17109785
S11343F011F16091D6001496ED91FC91159793817B
S113440082812581981B92238481981761F083818E
S113441026952823C081D181C20FD11D68838F5F67
S11344209581892383831696ED91FC911797309794
S113443011F0CD011995FF91EF91DF91CF91BF91CB
S1134440AF919F918F917F916F915F914F913F9128
S11344502F910F900BBE0F900FBE0F901F901895C9
S11344601F920F920FB60F9211240BB60F922F9337
S11344708F939F93AF93BF93EF93FF93E0913B1779
S1134480F0913C173097B9F00280F381E02D9381CD
S113449082819817B1F092818581282F269529234E
S11344A0A081B181A20FB11D2C919F5F89238283CA
S11344B02093D6000BC0E1EDF0E080818F7D8083F6
S11344C005C0E1EDF0E080818F7D8083FF91EF9165
S11344D0BF91AF919F918F912F910F900BBE0F9031
S11344E00FBE0F901F9018951F920F920FB60F9248
S11344F011240BB60F922F933F934F935F936F93B7
S11345007F938F939F93AF93BF93CF93DF93EF9357
S1134510FF93A0913D17B0913E17109711F1609150
S113452036011496ED91FC91159793818281258132
S1134530981B92238481981761F083812695282300
S1134540C081D181C20FD11D68838F5F958189237A
S113455083831696ED91FC911797309711F0CD0156
S11345601995FF91EF91DF91CF91BF91AF919F91F9
S11345708F917F916F915F914F913F912F910F9008
S11345800BBE0F900FBE0F901F9018951F920F92A5
S11345900FB60F9211240BB60F922F938F939F9304
S11345A0AF93BF93EF93FF93E0913D17F0913E17C4
S11345B03097B9F00280F381E02D938182819817BE
S11345C0B1F092818581282F26952923A081B1817C
S11345D0A20FB11D2C919F5F892382832093360102
S11345E00BC0E1E3F1E080818F7D808305C0E1E3CE
S11345F0F1E080818F7D8083FF91EF91BF91AF9136
S11346009F918F912F910F900BBE0F900FBE0F9023
S11346101F901895CF93DF931F92CDB7DEB7BE01DD
S11346206F5F7F4F80913F17909140177BDD811121
S1134630F6CF898190E00F90DF91CF910895682F94
S113464080913F1790914017EDDC80E090E0089551
S11346508F929F92AF92CF92EF920F93812C912CD5
S11346606894AA24A7F86894CC24C7F8E12C00E045
S113467023E040E051EE60E070E032DC90934017BC
S113468080933F17EAE8F7E183E192E09183808326
S1134690938382830F91EF90CF90AF909F908F90F0
S11346A0089590E0FC01EE0FFF1FE80FF91FEE0FD5
S11346B0FF1FEF5BF84E238121111FC09C01220FC5
S11346C0331FF901E80FF91FEE0FFF1FEF5BF84EE0
S11346D0A081B1814C91F901E80FF91FEE0FFF1F82
S11346E0EF5BF84E81E090E0028002C0880F991FD2
S11346F00A94E2F7842B8C930895FC01EE0FFF1FBC
S1134700DF01A80FB91FAA0FBB1FAF5BB84E0D90F6
S1134710BC91A02D2C91E80FF91FEE0FFF1FEF5B4A
S1134720F84E81E090E0028002C0880F991F0A943D
S1134730E2F7809582238C93089590E0FC01EE0FBC
S1134740FF1FE80FF91FEE0FFF1FEF5BF84E2381E9
S1134750211120C09C01220F331FF901E80FF91F1A
S1134760EE0FFF1FEF5BF84EA081B1814C91F90170
S1134770E80FF91FEE0FFF1FEF5BF84E81E090E0AA
S1134780028002C0880F991F0A94E2F7809584235F
S11347908C930895FC01EE0FFF1FDF01A80FB91FD2
S11347A0AA0FBB1FAF5BB84E0D90BC91A02D2C91EE
S11347B0E80FF91FEE0FFF1FEF5BF84E81E090E06A
S11347C0028002C0880F991F0A94E2F7822B8C930F
S11347D00895CC24C394D12C6894BB24B2F8C1E4CA
S11347E0D7E110E08C81813081F018F1823061F5DD
S11347F0E881F9812081C6010A8002C0880F991FCF
S11348000A94E2F7822780831FC08D818F5F8630F0
S113481010F48D8319C01D82E881F9812081C601BD
S11348200A8002C0880F991F0A94E2F782278083C6
S11348300BC00D81002329F0812F7FDF01500D83F0
S113484003C0BC82812F2DDF1F5F2696143051F6E2
S11348506CE070E080E090E00E945312C0CFEF92D1
S1134860FF920F931F93CF93DF93082F80E487B9B0
S1134870C1E4D7E10F2EF8E2EF2EF12CF02DF982EE
S1134880E88286E08A831B8214E01C8380E009DFCF
S113489080E887B9FF82EE8287E0888719861A87C5
S11348A081E0FFDE80E283BB84E390E09D878C8718
S11348B085E08E871F86188B82E0F3DE80E180938B
S11348C0010182E091E09B8B8A8B1C8B1D8A1E8BDD
S11348D083E0E7DEE12CF12C20E030E040EC50E016
S11348E061ED77E089EE93E20E944E0FDF91CF9164
S11348F01F910F91FF90EF900895CF93DF9390E075
S1134900FC01EE0FFF1FDF01A80FB91FAA0FBB1F89
S1134910AF5BB84ECD91DC911197488121E030E036
S113492012960C90129702C0220F331F0A94E2F7DA
S113493024272883FD0181E08483DF91CF910895AA
S1134940CF93DF9390E0FC01EE0FFF1FDF01A80F70
S1134950B91FAA0FBB1FAF5BB84ECD91DC91119765
S1134960488121E030E012960C90129702C0220F89
S1134970331F0A94E2F724272883FD0182E084830D
S1134980DF91CF910895282F30E0F901EE0FFF1F3A
S1134990E20FF31FEE0FFF1FEF5BF84E93E09483DB
S11349A0CCCE0895282F30E0F901EE0FFF1FE20F5F
S11349B0F31FEE0FFF1FEF5BF84E94E0948371CE6C
S11349C0089590E0FC01EE0FFF1FDF01A80FB91F4F
S11349D0AA0FBB1FAF5BB84E26E015962C93159714
S11349E0FD011482089590E0FC01EE0FFF1FDF012A
S11349F0A80FB91FAA0FBB1FAF5BB84E15961C9228
S1134A001597FD01148208958091671781110CC0D8
S1134A108CE08093B8008FEF8093BB0084E0809398
S1134A20BC0081E0809367170895AF92BF92CF9244
S1134A30DF92EF92FF920F931F93CF93DF93A82EF1
S1134A40B62E69017A0184E090E0B1D3EC01892BA0
S1134A5061F1A88281E0B81212C0C701B60120EA50
S1134A6036E841E050E079D3DA01C9014097A10961
S1134A70B109B695A79597958795898311C0C70104
S1134A80B60120E83AE146E050E067D3DA01C90113
S1134A904097A109B109B695A795979587958983FC
S1134AA01B830A838C2F9D2F02C080E090E0DF914E
S1134AB0CF911F910F91FF90EF90DF90CF90BF9017
S1134AC0AF9008958091BC0081700895FF920F9378
S1134AD01F93CF93DF930097D1F14A30D0F5F42E92
S1134AE08B01EC01EFDF811136C080915A17909150
S1134AF05B17C817D90741F087DF89818093B80015
S1134B00D0935B17C0935A1781E08F0D80935C1785
S1134B108881880F80935D17FF2089F0F801AEE546
S1134B20B7E14FEF4F0D642F70E0CB010196B80150
S1134B30680F791F81918D93E617F707D9F788EFEE
S1134B408093210285EA8093BC0084E005C086E05E
S1134B5003C087E001C082E0DF91CF911F910F91E4
S1134B60FF9008951F93CF93DF93009729F16B3043
S1134B7028F5162FEC01A6DF811122C080915A1767
S1134B8090915B17C817D90741F03EDF8981809364
S1134B90B800D0935B17C0935A1710935C178881A1
S1134BA0880F816080935D1788EF8093210285EAE6
S1134BB08093BC0085E005C086E003C087E001C0A7
S1134BC082E0DF91CF911F9108951F920F920FB64B
S1134BD00F9211240BB60F922F933F934F935F9331
S1134BE06F937F938F939F93AF93BF93EF93FF93B1
S1134BF0E091B9008E2F90E0FC013897E135F10582
S1134C0008F075C08827E458FF4F8F4FC8C2109230
S1134C105917E091591780915C17E81770F481E0F7
S1134C208E0F80935917F0E0E35AF84E80818093F9
S1134C30BB0085E88093BC0072C084E98093BC000B
S1134C4080915A1790915B17DC011296ED91FC91BB
S1134C501397309709F463C020E040E050E064E02B
S1134C6019955DC0E091591781E08E0F8093591713
S1134C708091BB00F0E0E35AF84E80838091B90044
S1134C80803411F4109259172091591730E0809113
S1134C905C1790E001972817390724F485EC80937A
S1134CA0BC003DC085E88093BC0039C08091BB0046
S1134CB0E0915917F0E0E35AF84E808384E9809339
S1134CC0BC0080915A1790915B17DC011296ED910C
S1134CD0FC911397309719F120915C174DE557E13A
S1134CE065E019951CC085EA8093BC0018C08091CA
S1134CF0B9008093210284E08093BC0080915A170C
S1134D0090915B17DC011296ED91FC91139730970B
S1134D1031F020E040E050E0609121021995FF91CC
S1134D20EF91BF91AF919F918F917F916F915F911F
S1134D304F913F912F910F900BBE0F900FBE0F908C
S1134D401F901895FC01411101C052D3842F90E0AB
S1134D509C012150310982239323892B09F048D3E4
S1134D60413808F045D3128213824483440F4150E2
S1134D7045837183608380E090E008955058BB2799
S1134D80AA270ED04DC13ED130F043D120F031F4EA
S1134D909F3F11F41EF433C10EF4E095E7FB29C1E3
S1134DA0E92F4FD180F3BA17620773078407950779
S1134DB018F071F49EF567C10EF4E0950B2EBA2F2E
S1134DC0A02D0B01B90190010C01CA01A00111240D
S1134DD0FF27591B99F0593F50F4503E68F11A16B9
S1134DE0F040A22F232F342F4427585FF3CF46954A
S1134DF037952795A795F0405395C9F77EF41F166C
S1134E00BA0B620B730B840BBAF09150A1F0FF0F35
S1134E10BB1F661F771F881FC2F70EC0BA0F621F21
S1134E20731F841F48F4879577956795B795F79511
S1134E309E3F08F0B3CF9395880F08F09927EE0FA3
S1134E409795879508950CD0EBC0E3D040F0DAD065
S1134E5030F021F45F3F19F0CCC0511115C1CFC01F
S1134E60F0D098F39923C9F35523B1F3951B550B4F
S1134E70BB27AA2762177307840738F09F5F5F4F29
S1134E80220F331F441FAA1FA9F333D00E2E3AF06A
S1134E90E0E830D091505040E695001CCAF729D084
S1134EA0FE2F27D0660F771F881FBB1F26173707D3
S1134EB04807AB07B0E809F0BB0B802DBF01FF2703
S1134EC093585F4F2AF09E3F510568F092C0DCC0B2
S1134ED05F3FECF3983EDCF3869577956795B7953D
S1134EE0F7959F5FC9F7880F911D9695879597F958
S1134EF00895E1E0660F771F881FBB1F62177307D1
S1134F008407BA0720F0621B730B840BBA0BEE1FE5
S1134F1088F7E095089504D06894B111B5C0089558
S1134F2098D088F09F5790F0B92F9927B751A0F0E7
S1134F30D1F0660F771F881F991F1AF0BA95C9F729
S1134F4012C0B13081F09FD0B1E008959CC0672FAA
S1134F50782F8827B85F39F0B93FCCF386957795D9
S1134F606795B395D9F73EF49095809570956195C2
S1134F707F4F8F4F9F4F0895E89409C097FB3EF4ED
S1134F8090958095709561957F4F8F4F9F4F992392
S1134F90A9F0F92F96E9BB279395F6958795779510
S1134FA06795B795F111F8CFFAF4BB0F11F460FFD0
S1134FB01BC06F5F7F4F8F4F9F4F16C0882311F028
S1134FC096E911C0772321F09EE8872F762F05C03C
S1134FD0662371F096E8862F70E060E02AF09A95D7
S1134FE0660F771F881FDAF7880F9695879597F9CC
S1134FF0089597F99F6780E870E060E008959FEF57
S113500080EC089500240A9416161706180609065B
S1135010089500240A94121613061406050608952A
S1135020092E0394000C11F4882352F0BB0F40F4B2
S1135030BF2B11F460FF04C06F5F7F4F8F4F9F4FF2
S1135040089557FD9058440F551F59F05F3F71F074
S11350504795880F97FB991F61F09F3F79F08795DB
S11350600895121613061406551FF2CF4695F1DF64
S113507008C0161617061806991FF1CF86957105F4
S1135080610508940895E894BB2766277727CB0128
S113509097F908950BD0C4CFB5DF28F0BADF18F024
S11350A0952309F0A6CFABCF1124EECFCADFA0F32E
S11350B0959FD1F3950F50E0551F629FF001729FA9
S11350C0BB27F00DB11D639FAA27F00DB11DAA1FC8
S11350D0649F6627B00DA11D661F829F2227B00D15
S11350E0A11D621F739FB00DA11D621F839FA00DA0
S11350F0611D221F749F3327A00D611D231F849FF0
S1135100600D211D822F762F6A2F11249F57504046
S11351108AF0E1F088234AF0EE0FFF1FBB1F661FE1
S1135120771F881F91505040A9F79E3F510570F09A
S113513060CFAACF5F3FECF3983EDCF3869577957A
S11351406795B795F795E7959F5FC1F7FE2B880F95
S1135150911D9695879597F90895A1E21A2EAA1B99
S1135160BB1BFD010DC0AA1FBB1FEE1FFF1FA21713
S1135170B307E407F50720F0A21BB30BE40BF50B10
S1135180661F771F881F991F1A9469F76095709599
S1135190809590959B01AC01BD01CF010895EE0F60
S11351A0FF1F881F8BBF0790F691E02D19940F9372
S11351B01F93CF93DF938230910510F482E090E047
S11351C0E0918817F091891720E030E0A0E0B0E08A
S11351D0309719F140815181028113814817590791
S11351E0C8F08417950769F4109731F012960C9360
S11351F0129713961C9327C000938817109389174E
S113520022C02115310519F04217530718F49A01E9
S1135210BD01EF01DF01F801DBCF21153105F9F004
S1135220281B390B2430310580F48A819B81611558
S1135230710521F0FB019383828304C09093891745
S113524080938817FE01329644C0FE01E20FF31FDB
S11352508193919322503109398328833AC0209154
S1135260861730918717232B41F420910202309145
S11352700302309387172093861720910002309100
S113528001022115310541F42DB73EB740910402C6
S113529050910502241B350BE0918617F091871776
S11352A0E217F307A0F42E1B3F0B2817390778F0F9
S11352B0AC014E5F5F4F2417350748F04E0F5F1F58
S11352C050938717409386178193919302C0E0E02F
S11352D0F0E0CF01DF91CF911F910F910895CF930B
S11352E0DF93009709F481C0FC0132971382128284
S11352F0A0918817B0918917109781F4208131818A
S1135300820F931F2091861730918717281739072A
S113531051F5F0938717E093861767C0ED0120E0FD
S113532030E0CE17DF0740F44A815B819E014115CE
S11353305105F1F0EA01F5CFD383C2834081518155
S1135340840F951FC817D90759F488819981840F50
S1135350951F0296918380838A819B8193838283A4
S11353602115310529F4F0938917E09388173DC07E
S1135370E901FB83EA8349915991C40FD51FEC17C6
S1135380FD0761F480819181840F951F0296E901E4
S113539099838883828193819B838A83E0E0F0E010
S11353A012968D919C911397009719F0FD01DC01E1
S11353B0F7CF8D919C9111979D012E5F3F4F820FE6
S11353C0931F20918617309187172817390769F49E
S11353D0309729F4109289171092881702C013820B
S11353E01282B0938717A0938617DF91CF91089507
S11353F081E090E0F8947DC3FB01DC0102C00190E0
S11354000D9241505040D8F70895DC0101C06D93CE
S113541041505040E0F70895FB0151915523B1F0FC
S1135420BF01DC01052E4D91442369F010D0D9F75A
S1135430CD010190002049F04D91411108D0C9F3EC
S1135440FB014111EECF81E090E0019708954025E2
S113545039F0403229F440294B57465E08F018943D
S11354600895FB01DC010D900020E9F711970190EC
S11354700D920020E1F70895FB01DC0101900D92EB
S11354800020E1F70895FB01DC014150504088F011
S11354908D9181341CF08B350CF4805E6191613404
S11354A01CF06B350CF4605E861B611171F3990B73
S11354B00895881BFCCFCF93DF93CDB7DEB7AE0141
S11354C04A5F5F4FFA0161917191AF0180918C172E
S11354D090918D1761D0DF91CF9108950F931F9311
S11354E0CF93DF93E0918C17F0918D17238121FFE7
S11354F01BC08C01D0E0C0E0F80181918F01609164
S11355008C1770918D17DB011896ED91FC9119970A
S1135510882331F01995892B79F3DFEFCFEFECCFA6
S11355208AE01995892B19F08FEF9FEF02C08D2F18
S11355309C2FDF91CF911F910F9108950F931F938B
S1135540CF93DF93CDB7DEB72E970FB6F894DEBFB7
S11355500FBECDBF0E891F8986E08C831A83098311
S11355608FEF9FE79E838D83AE01465E5F4F688D0C
S1135570798DCE01019610D0EF81F885E00FF11FEF
S113558010822E960FB6F894DEBF0FBECDBFDF910A
S1135590CF911F910F9108952F923F924F925F9256
S11355A06F927F928F929F92AF92BF92CF92DF922F
S11355B0EF92FF920F931F93CF93DF93CDB7DEB794
S11355C02B970FB6F894DEBF0FBECDBF6C017B01E5
S11355D08A01FC0117821682838181FFBFC1CE013B
S11355E001963C01F6019381F70193FD859193FFA8
S11355F081917F01882309F4ADC1853239F493FD8B
S1135600859193FF81917F01853221F4B60190E069
S1135610D6D1E8CF912C212C312CFFE1F315D8F011
S11356208B3279F038F4803279F08332A1F4232D6F
S113563020611DC08D3261F0803369F4232D216017
S113564016C0832D8260382EE32DE4603E2E2AC0DE
S1135650F32DF8601DC037FC2DC020ED280F2A3033
S113566040F08E32B9F436FC75C1232D2064322EFD
S113567019C036FE06C08AE0989E200D1124922E91
S113568011C0EAE02E9E200D1124222EF32DF0628B
S11356903F2E08C08C3621F4832D8068382E02C03A
S11356A0883641F4F70193FD859193FF81917F0141
S11356B08111B3CF982F9F7D9554933028F40C5FBC
S11356C01F4F9FE399830DC0833631F0833771F008
S11356D0833509F055C020C0F801808189830E5FAD
S11356E01F4F88248394912C530112C02801F2E0A7
S11356F04F0E511CF801A080B18036FE03C0692D05
S113570070E002C06FEF7FEFC5014ED14C01820102
S1135710F32DFF773F2E15C0280122E0420E511CC5
S1135720F801A080B18036FE03C0692D70E002C08C
S11357306FEF7FEFC5012DD14C01F32DF0683F2EA3
S1135740820133FC19C0822D90E088169906A0F4DA
S1135750B60180E290E033D12A94F5CFF50137FC0D
S1135760859137FE81915F01B60190E028D1211027
S11357702A9421E0821A91088114910479F7E1C0F6
S1135780843611F0893639F5F80137FE07C0608197
S11357907181828193810C5F1F4F08C06081718188
S11357A0072E000C880B990B0E5F1F4FF32DFF760D
S11357B03F2E97FF09C090958095709561957F4F16
S11357C08F4F9F4FF0683F2E2AE030E0A30133D182
S11357D0882E861844C0853731F4232D2F7EB22EAF
S11357E02AE030E025C0932D997FB92E8F36C1F081
S11357F018F4883579F0AEC0803719F0883721F075
S1135800A9C0E92FE061BE2EB4FE0DC0FB2DF460EB
S1135810BF2E09C034FE0AC0292F2660B22E06C04E
S113582028E030E005C020E130E002C020E132E0B1
S1135830F801B7FE07C060817181828193810C5F9A
S11358401F4F06C06081718180E090E00E5F1F4FA2
S1135850A301F1D0882E8618FB2DFF773F2E36FE4C
S11358600DC0232D2E7FA22E891458F434FE0BC0B4
S113587032FC09C0832D8E7EA82E05C0B82CA32C23
S113588003C0B82C01C0B92CA4FE0FC0FE01E80D62
S1135890F11D8081803321F49A2D997EA92E09C0AF
S11358A0A2FE06C0B394B39404C08A2D867809F08E
S11358B0B394A3FC10C0A0FE06C0B21480F4280C5C
S11358C0922C9B180DC0B21458F4B60180E290E0FB
S11358D076D0B394F8CFB21418F42B1802C0982CD5
S11358E0212CA4FE0FC0B60180E390E068D0A2FE94
S11358F016C0A1FC03C088E790E002C088E590E0F0
S1135900B6010CC08A2D867851F0A1FE02C08BE24C
S113591001C080E2A7FC8DE2B60190E050D089146A
S113592030F4B60180E390E04AD09A94F8CF8A9498
S1135930F301E80DF11D8081B60190E040D08110A3
S1135940F6CF222009F44ECEB60180E290E037D0A3
S11359502A94F7CFF6018681978102C08FEF9FEFDB
S11359602B960FB6F894DEBF0FBECDBFDF91CF915B
S11359701F910F91FF90EF90DF90CF90BF90AF9069
S11359809F908F907F906F905F904F903F902F905B
S11359900895FC010590615070400110D8F780957E
S11359A090958E0F9F1F0895FC01615070400190E7
S11359B00110D8F7809590958E0F9F1F08950F932F
S11359C01F93CF93DF93FB01238121FD03C08FEF4E
S11359D09FEF2CC022FF16C0468157812481358158
S11359E04217530744F4A081B1819D012F5F3F4FBB
S11359F0318320838C93268137812F5F3F4F3783F8
S1135A00268314C08B01EC01FB010084F185E02D99
S1135A101995892BE1F6D80116968D919C911797CB
S1135A20019617969C938E931697CE01DF91CF9192
S1135A301F910F910895FA01AA27283051F12031BE
S1135A4081F1E8946F936E7F6E5F7F4F8F4F9F4F0E
S1135A50AF4FB1E03ED0B4E03CD0670F781F891F50
S1135A609A1FA11D680F791F8A1F911DA11D6A0F1E
S1135A70711D811D911DA11D20D009F468943F91D1
S1135A802AE0269F11243019305D3193DEF6CF01D0
S1135A900895462F4770405D4193B3E00FD0C9F796
S1135AA0F6CF462F4F70405D4A3318F0495D31FD03
S1135AB04052419302D0A9F7EACFB4E0A695979556
S1135AC0879577956795BA95C9F70097610571052C
S1135AD008959B01AC010A2E069457954795379576
S1135AE02795BA95C9F7620F731F841F951FA01DD0
S1095AF00895F894FFCFB5
S1135AF60000901720000900400040C600CE00D6E2
S1135B0600360100000003000000001F230A2300E2
S1135B1600F8A027BE33E034C1332042C43360E525
S1135B26AE33A0F2B133E0FFB433200DB833601ABC
S1135B36BB33414C4C204441544120434F4C4C45CB
S1135B46435445440054656D70657261747572659D
S1135B562069733A2025782C20616E642068756D5F
S1135B6669646974792069733A2025780A0041705A
S1135B76705461736B0055706C696E6B5F706179FC
S1135B866C6F61645F68616E646C65725F74617387
S1135B966B00466163746F72795265736574203E57
S1135BA625733C0A00436F6E6669677572652074D7
S1135BB66F204555383638203E25733C0A00476524
S1135BC674204857455549203E25733C3A20257391
S1135BD60A00536574204465764555493A20257371
S1135BE6203E25733C0A003834383630434241356A
S1135BF643353131364639454335364531423433FA
S1135C06343643413839390039323736423343461C
S1135C16334230363933353500536574204F544199
S1135C2641204964656E74697479206170704555C4
S1135C36493A2573206170704B45593A257320649F
S1135C4665764555493A2573203E25733C0A00532B
S1135C56617665206D6163203E25733C0A005365B9
S1135C6674204164617074697665204461746120AE
S1135C76526174653A204F4E203E25733C0A005308
S1135C8665742052656365697665722044656C6146
S1135C96793A202564206D73203E25733C0A004A18
S1135CA66F696E204E6574776F726B2054726965E6
S1135CB6734C6566743A2564203E25733C0A005588
S1135CC6706C6F6164204D657373616765203E2552
S1135CD6733C0A004E6F7420656E6F7567682068A2
