:1000000002C1000021C100001FC100001DC100008D
:100010001BC1000019C1000017C1000015C100007C
:1000200013C1000011C100000FC100000DC100008C
:100030000C94720E09C1000007C1000005C1000048
:1000400003C1000001C10000FFC00000FDC00000AE
:10005000FBC00000F9C00000F7C00000F5C00000C0
:10006000F3C000000C942E3C0C94803CEDC00000CA
:10007000EBC00000E9C00000E7C00000E5C00000E0
:10008000E3C00000E1C00000DFC00000DDC00000F0
:100090000C94C43C0C94163DD7C000000C946141F4
:1000A000D3C00000D1C00000CFC00000CDC0000010
:1000B000CBC00000C9C00000C7C00000C5C0000020
:1000C000C3C00000C1C00000BFC000000C945A3D76
:1000D0000C94AC3DB9C000000C94F03D0C94423E31
:1000E000B3C00000CF30CF30CF302E313931703136
:1000F000CF30CF302E3139318341F341F341F341D9
:10010000F341F341F341F3418341F341F341F341BF
:10011000F341F341F341F3418541F341F341F341AD
:10012000F341F341F341F341F341F341F341F3412F
:10013000F341F341F341F3418541F341F341F3418D
:10014000F341F341F341F341F341F341F341F3410F
:10015000F341F341F341F341EF41F341F341F34103
:10016000F341F341F341F341BA41F341F341F34128
:10017000F341F341F341F341F341F341F341F341DF
:10018000F341F341F341F341AE41F341F341F34114
:10019000F341F341F341F341D241CF93DF931F92F7
:1001A0001F92CDB7DEB79A8389830E941E26809165
:1001B0007A16823010F00E94870D0E949D32F5CF92
:1001C000CF93DF93CDB7DEB727970FB6F894DEBF96
:1001D0000FBECDBF9F838E83CE0105960E94612FF7
:1001E000DC01CB0189839A83AB83BC832D81898118
:1001F0009A81AB81BC81422FBC01CD010E94E22ECD
:100200000E948830E9CF11241FBECFEFD1E2DEBFBC
:10021000CDBF00E00CBF18E0A0E0B2E0E2E5F0E9FD
:1002200000E00BBF02C007900D92A63BB107D9F7C3
:1002300028E1A6EBB8E001C01D92A03BB207E1F7B0
:100240000E940A340C942748DBCECF92DF92EF92C3
:10025000FF920F931F93CF93DF93CDB7DEB76C97C9
:100260000FB6F894DEBF0FBECDBF9C8F8B8F8091F1
:10027000A2189091A31845E050E060E070E042D6EB
:100280008091A0189091A118CC24CA94DC2C7601FE
:1002900001E021E04AE050E060E070E0FCD4DC01E5
:1002A000CB0189839A83AB83BC8389819A81AB819B
:1002B000BC818A709927AA27BB27892B8A2B8B2B75
:1002C00009F443C082E292E00E941C45C8D07C0140
:1002D00001D48C010AD42F2D2F932E2D2F93212F53
:1002E0002F93202F2F93292F2F938F9385E392E025
:1002F000892F8F9385E392E08F930E9409458DB7F4
:100300009EB708960FB6F894DEBF0FBECDBFEDD3F3
:100310001AD1E0D304D1A3D02AD1CE01059662E050
:100320003AD180919E1890919F18BE016B5F7F4FCC
:100330000FEF1FEF980146E150E00E949F1460E12B
:100340007DE180E090E00E945C1C63E070E080E072
:1003500090E00E945C1C8BCFEF92FF920F93CF93A3
:10036000DF931F92CDB7DEB78983E12CF12C098191
:1003700020E030E040EC50E06EE672E085E291E093
:100380000E94701900000F90DF91CF910F91FF90A4
:10039000EF900895CF93DF93CDB7DEB783E00E944F
:1003A000943A8BE192E00E94B93A0000DF91CF913C
:1003B0000895CF92DF92EF92FF920F93CF93DF9346
:1003C00000D000D0CDB7DEB79E838D838091A21878
:1003D0009091A318CC24CA94DC2C760101E021E092
:1003E00044E050E060E070E056D4DC01CB0189834A
:1003F0009A83AB83BC8389819A81AB81BC818470F1
:100400009927AA27BB27892B8A2B8B2BF9F286E702
:1004100092E00E941C452ED08091A0189091A118C6
:1004200048E050E060E070E06DD560E070E0CB0146
:100430000E945C1CCBCFCF93DF931F921F92CDB74E
:10044000DEB79A83898389819A819093B7088093D4
:10045000B60800000F900F90DF91CF910895CF93D1
:10046000DF93CDB7DEB78091B6089091B708DF91E2
:10047000CF910895CF93DF93CDB7DEB70E94BE3AF8
:1004800080937F1880917F18882359F088E892E044
:10049000892F8F9388E892E08F930E9409450F90EF
:1004A0000F900000DF91CF910895EF92FF920F938C
:1004B000CF93DF931F92CDB7DEB789836BDFE12C3B
:1004C000F12C098120E030E040EC50E06DEA72E070
:1004D00089ED91E00E94701900000F90DF91CF919B
:1004E0000F91FF90EF900895CF93DF93CDB7DEB7D4
:1004F00081E00E94B70F9093831880938218109226
:1005000087181092861810928518109284181092ED
:100510008118109280180000DF91CF910895CF9339
:10052000DF931F921F92CDB7DEB79A8389838981AB
:100530009A819093BB088093BA0800000F900F90A7
:10054000DF91CF910895CF93DF931F921F92CDB784
:10055000DEB79A83898389819A819093B9088093C1
:10056000B80800000F900F90DF91CF910895CF93BE
:10057000DF931F921F92CDB7DEB79A83898389815B
:100580009A819093B7088093B60800000F900F905F
:10059000DF91CF910895CF93DF9300D01F921F92E8
:1005A000CDB7DEB79C838B836D8386E190E005D663
:1005B0009A83898389819A81892B09F446C089812C
:1005C0009A812D81FC01208389819A8126E0FC019A
:1005D00021838091B6089091B708892F9927282FF9
:1005E00089819A81FC0122838091B6089091B70895
:1005F000282F89819A81FC0123838091BA089091E8
:10060000BB08892F9927282F89819A81FC0124838F
:100610008091BA089091BB08282F89819A81FC01AA
:1006200025838091B8089091B908892F9927282FA0
:1006300089819A81FC0126838091B8089091B9083C
:10064000282F89819A81FC0127838B819C812981B4
:100650003A8146E1F901DC0101900D924A95E1F7FA
:100660008B819C810F900F900F900F900F90DF91D6
:10067000CF910895EF92FF920F93CF93DF931F9244
:10068000CDB7DEB78983E12CF12C098120E030E081
:1006900048E851E065EB72E081E994E00E9470194E
:1006A00000000F90DF91CF910F91FF90EF90089590
:1006B000CF93DF93CDB7DEB766970FB6F894DEBF62
:1006C0000FBECDBF81E00E94F93F0E943B370E94E0
:1006D000B839292F2F938F9381ED92E0892F8F9333
:1006E00081ED92E08F930E9409450F900F900F903B
:1006F0000F900E94B9380E94B839292F2F938F93F9
:1007000084EE92E0892F8F9384EE92E08F930E9483
:1007100009450F900F900F900F90CE0103960E9405
:100720004D378A838A810E94B8399C01CE01039695
:10073000492F4F938F93832F8F93822F8F938DEF1A
:1007400092E0892F8F938DEF92E08F930E9409455D
:100750000F900F900F900F900F900F90CE01039677
:100760000E9469370E94B839292F2F938F93CE01A9
:100770000396292F2F938F9381E193E0892F8F93F5
:1007800081E193E08F930E9409450F900F900F90A5
:100790000F900F900F90CE010396AC0166E273E0CC
:1007A00087E493E00E9497390E94B839292F2F934C
:1007B0008F93CE010396292F2F938F9386E293E098
:1007C000892F8F9386E293E08F9387E493E0892FBC
:1007D0008F9387E493E08F9388E593E0892F8F933D
:1007E00088E593E08F930E9409458DB79EB70A96DE
:1007F0000FB6F894DEBF0FBECDBF0E949C370E949B
:10080000B839292F2F938F938EE893E0892F8F93F8
:100810008EE893E08F930E9409450F900F900F9000
:100820000F9081E00E9496380E94B839292F2F93AB
:100830008F938DE993E0892F8F938DE993E08F93C8
:100840000E9409450F900F900F900F9084EF91E058
:100850000E94A1380E94B839292F2F938F9381E0ED
:100860008F9384EF8F938EEB93E0892F8F938EEB92
:1008700093E08F930E9409450F900F900F900F9077
:100880000F900F908AE0898380E00E94A2378A83CC
:100890008A810E94B8399C018981882F90E0432F7A
:1008A0004F932F93292F2F938F938EED93E0892FC2
:1008B0008F938EED93E08F930E9409450F900F90D8
:1008C0000F900F900F900F908A81883081F080E018
:1008D0000E945D4066E371E080E090E00E945C1C55
:1008E0008981815089838981882371F601C0000044
:1008F0008A81883021F481E00E943F4009C081E074
:100900000E944E4080E00E941C400E94870DFDCF57
:1009100066960FB6F894DEBF0FBECDBFDF91CF91C4
:1009200008950F931F93CF93DF93CDB7DEB72A9728
:100930000FB6F894DEBF0FBECDBF9A87898781E0DE
:100940000E942D3762E070E080E090E00E945C1C25
:1009500080E00E942D3766E970E080E090E00E9420
:100960005C1C0E94E636A4DE88E89EE0A0E0B0E0D1
:1009700089839A83AB83BC830E946B1EDC01CB010D
:100980008D839E83AF83B88789819A81AB81BC8137
:100990009E012B5F3F4FAC01BD01C9010E94A01B0E
:1009A00080919E1890919F180FEF1FEF980146E1DC
:1009B00050E068E878E10E94861683E00E946F406C
:1009C00068E878E180E00E94CB370E94B839292F8F
:1009D0002F938F938EEF93E0892F8F938EEF93E079
:1009E0008F930E9409450F900F900F900F90CCCFDE
:1009F000CF93DF93CDB7DEB72DD19093A11880931D
:100A0000A01828D19093A3188093A2180000DF911A
:100A1000CF910895CF93DF93CDB7DEB741E060E08B
:100A200070E08CE290E00E94AE1390939F18809348
:100A30009E1880919E1890919F18892B61F483E1F4
:100A400094E0892F8F9383E194E08F930E9409456E
:100A50000F900F900BC084E494E0892F8F9384E46F
:100A600094E08F930E9409450F900F900000DF9152
:100A7000CF910895CF93DF93CDB7DEB741E060E02B
:100A800070E08CE290E00E94AE139093A5188093E2
:100A9000A4188091A4189091A518892B61F48FE671
:100AA00094E0892F8F938FE694E08F930E940945FD
:100AB0000F900F900BC082EA94E0892F8F9382EA07
:100AC00094E08F930E9409450F900F900000DF91F2
:100AD000CF910895CF93DF93CDB7DEB78091BA0859
:100AE0009091BB08DF91CF910895CF93DF93CDB75D
:100AF000DEB78091B8089091B908DF91CF91089541
:100B0000CF93DF931F92CDB7DEB70E944F35898315
:100B10008981882329F48FEC94E00E941C4504C04D
:100B200082EF94E00E941C4500000F90DF91CF916E
:100B30000895CF93DF93CDB7DEB70E946735882342
:100B400021F08CE095E00E941C4563E070E080E0BD
:100B500090E00E945C1C0E947C35882321F08CE28E
:100B600095E00E941C4561E070E080E090E00E940A
:100B70005C1C0000DF91CF910895CF92DF92EF923D
:100B8000FF920F93CF93DF9300D000D0CDB7DEB7A5
:100B90009E838D838091A2189091A318CC24CA942F
:100BA000DC2C760101E021E041E050E060E070E003
:100BB00072D0DC01CB0189839A83AB83BC838981AA
:100BC0009A81AB81BC8181709927AA27BB27892B89
:100BD0008A2B8B2BD1F081E595E00E941C45A9DF83
:100BE0000E94C4359093B9088093B8080E94A1353B
:100BF0009093BB088093BA088091A0189091A11897
:100C000042E050E060E070E07DD160E070E0CB0158
:100C10000E945C1CBFCFEF92FF920F93CF93DF93A4
:100C20001F92CDB7DEB789836BDFE12CF12C0981F0
:100C300020E030E040EC50E066E675E08DEB95E0BA
:100C40000E94701900000F90DF91CF910F91FF90DB
:100C5000EF900895CF93DF931F921F92CDB7DEB729
:100C60008FE090E0AAD29A83898389819A81892B27
:100C700059F089819A81FC011082118212821382BB
:100C800089819A81049652D589819A810F900F901B
:100C9000DF91CF910895CF92DF92EF92FF920F9361
:100CA0001F93CF93DF93CDB7DEB76D970FB6F89450
:100CB000DEBF0FBECDBF9B8B8A8B4C8B5D8B6E8B4B
:100CC0007F8B288F098FCA8EDB8EEC8EFD8E8A89F2
:100CD0009B899A8789871D821E821F8218861B86A0
:100CE0000E94CF1C89859A85FC0180819181A28117
:100CF000B3818C879D87AE87BF872C893D894E89BC
:100D00005F898C859D85AE85BF85098DBC01CD0130
:100D100007D2888B8889882359F18C859D85AE857B
:100D2000BF8589839A83AB83BC831A8E1B8E1C8EEE
:100D30001D8E888D882309F465C089859A85FC01FC
:100D400020813181428153818C899D89AE89BF89FF
:100D500080959095A095B09582239323A423B523E5
:100D600029853A85F90180839183A283B3834AC0A0
:100D70008A8D9B8DAC8DBD8D892B8A2B8B2B59F445
:100D80008C859D85AE85BF8589839A83AB83BC8323
:100D900081E08B8737C0888D882349F08D819E81C3
:100DA000AF81B885B1608D839E83AF83B887898D0D
:100DB000882349F08D819E81AF81B885B4608D8391
:100DC0009E83AF83B8872C893D894E895F898D8149
:100DD0009E81AF81B885822B932BA42BB52B2985BF
:100DE0003A85F90134962A8D3B8D4C8D5D8D8901B4
:100DF0009A01AC01BD01CF010E943F2119821A82E4
:100E00001B821C820E94DC1C898B8A8D9B8DAC8D81
:100E1000BD8D892B8A2B8B2B09F45FC08989882390
:100E200009F475D60E94AB27DC01CB0189839A8334
:100E3000AB83BC8389819A81AB81BC818827992748
:100E4000AA27B270892B8A2B8B2B09F03DC00FB6D5
:100E5000F8940F9289859A85FC0180819181A28105
:100E6000B38189839A83AB83BC832C893D894E8966
:100E70005F8989819A81AB81BC81098DBC01CD01DB
:100E80004FD18823E9F0888D8823D1F089859A8510
:100E9000FC0120813181428153818C899D89AE89F9
:100EA000BF8980959095A095B09582239323A42324
:100EB000B52329853A85F90180839183A283B38381
:100EC00081E08B870F900FBE89819A81AB81BC81B5
:100ED000BB2789839A83AB83BC8389819A81AB8149
:100EE000BC81BC01CD016D960FB6F894DEBF0FBE7C
:100EF000CDBFDF91CF911F910F91FF90EF90DF90C9
:100F0000CF900895CF93DF93CDB7DEB76D970FB62F
:100F1000F894DEBF0FBECDBF998F888F4A8F5B8F4D
:100F20006C8F7D8F1B821C821D821E82888D998D05
:100F3000998788871F828885998504969B878A87E9
:100F40008A859B8503969D878C870E94CF1C8A8506
:100F50009B85FC01878190859A8389838885998503
:100F6000FC0120813181428153818A8D9B8DAC8D22
:100F7000BD8D822B932BA42BB52B28853985F901A8
:100F800080839183A283B38395C089819A81FC0178
:100F9000848195819F878E8789819A81FC018081D8
:100FA0009181A281B381888B998BAA8BBB8B1F8285
:100FB00088899989AA89BB8988279927AA278C8B30
:100FC0009D8BAE8BBF8B88899989AA89BB89BB27EA
:100FD000888B998BAA8BBB8B8C899D89AE89BF89A5
:100FE00088279927AA27B470892B8A2B8B2BB1F4D9
:100FF00088859985FC0120813181428153818889CE
:101000009989AA89BB8982239323A423B523892B99
:101010008A2B8B2BE9F081E08F831AC08885998514
:10102000FC01208131814281538188899989AA8973
:10103000BB89282339234A235B2388899989AA8974
:10104000BB89281739074A075B0711F481E08F83B2
:101050008F81882359F18C899D89AE89BF89882722
:101060009927AA27B170892B8A2B8B2B81F02B8192
:101070003C814D815E8188899989AA89BB89822BAF
:10108000932BA42BB52B8B839C83AD83BE83888548
:101090009985FC0180819181A281B381B26029810F
:1010A0003A81AC01BD01C9010E94AD238E859F85A7
:1010B0009A83898329813A818C859D8528173907F0
:1010C00009F063CF88859985FC01208131814281B7
:1010D00053818B819C81AD81BE8180959095A09537
:1010E000B09582239323A423B52328853985F9015C
:1010F00080839183A283B3830E94DC1C88859985B9
:10110000FC0180819181A281B381BC01CD016D96EA
:101110000FB6F894DEBF0FBECDBFDF91CF9108951B
:101120000F93CF93DF93CDB7DEB72A970FB6F8941E
:10113000DEBF0FBECDBF6A837B838C839D832E83EE
:101140003F83488759870A8719828A85882399F4BB
:101150002A813B814C815D818E819F81A885B985E3
:1011600082239323A423B523892B8A2B8B2BD1F0A5
:1011700081E0898317C02A813B814C815D818E810A
:101180009F81A885B985282339234A235B238E8133
:101190009F81A885B985281739074A075B0711F48D
:1011A00081E0898389812A960FB6F894DEBF0FBE4D
:1011B000CDBFDF91CF910F910895CF93DF93CDB73E
:1011C000DEB72A970FB6F894DEBF0FBECDBF9A8761
:1011D00089871E821D820E94CF1C80916C1690917F
:1011E0006D16892B09F46ED1209176163091771601
:1011F00089859A8582239323892B09F0E1C089850B
:101200009A85892BA1F024E030E089859A85280F02
:10121000391F89859A858217930748F484E090E006
:1012200029853A85820F931F9A87898702C01A867B
:10123000198689859A85892B09F4C2C080916E161A
:1012400090916F1629853A858217930708F4B8C0E4
:1012500088E696E19C838B8380916816909169164D
:101260009A8389830BC089819A819C838B8389812E
:101270009A81FC01808191819A83898389819A81F5
:10128000FC012281338189859A852817390738F432
:1012900089819A81FC0180819181892B21F780913C
:1012A0006C1690916D1629813A812817390709F437
:1012B00087C08B819C81FC012081318184E090E09A
:1012C000820F931F9E838D8389819A81FC012081E7
:1012D00031818B819C81FC013183208389819A81BA
:1012E000FC012281338189859A85281B390B84E092
:1012F00090E0880F991F8217930700F529813A81A2
:1013000089859A85820F931F98878F8389819A8117
:10131000FC012281338189859A85281B390B8F81B5
:101320009885FC013383228389819A8129853A85B6
:10133000FC01338322838F81988544D120916E16DE
:1013400030916F1689819A81FC0182819381A90174
:10135000481B590BCA0190936F1680936E1620910B
:101360006E1630916F168091701690917116281735
:10137000390740F480916E1690916F169093711614
:101380008093701689819A81FC012281338180913A
:10139000761690917716282B392B89819A81FC013A
:1013A0003383228389819A81FC011182108280918A
:1013B000721690917316019690937316809372161D
:1013C0000E94DC1C8D819E81892B11F40E94D032F9
:1013D0008D819E812A960FB6F894DEBF0FBECDBFD9
:1013E000DF91CF910895CF93DF9300D000D0CDB798
:1013F000DEB79E838D838D819E819A8389838D81C3
:101400009E81892B09F454C084E090E091958195E8
:10141000910929813A81820F931F9A838983898157
:101420009A819C838B838B819C81FC0122813381F7
:10143000809176169091771682239323892BC1F1A0
:101440008B819C81FC0180819181892B89F58B8125
:101450009C81FC01228133818091761690917716D0
:1014600080959095282339238B819C81FC013383BF
:1014700022830E94CF1C8B819C81FC0122813381BD
:1014800080916E1690916F16820F931F90936F1636
:1014900080936E168B819C8195D08091741690916B
:1014A0007516019690937516809374160E94DC1C35
:1014B000000026960FB6F894DEBF0FBECDBFDF91B9
:1014C000CF910895CF93DF93CDB7DEB728970FB6AE
:1014D000F894DEBF0FBECDBF8CEA9DE09A8389836E
:1014E0008CEB98E09C838B838B819C819E838D8386
:1014F0008D819E81909369168093681610926B1669
:1015000010926A162D813E8189819A81820F931FE4
:101510009C838B8384E090E02B813C81A901481B54
:10152000590BCA019C838B838B819C8190936D1690
:1015300080936C1680916C1690916D16FC0113824D
:10154000128280916C1690916D16FC0111821082AE
:101550008D819E8198878F838F8198852B813C8197
:10156000281B390B8F819885FC01338322832091BE
:101570006C1630916D168F819885FC013183208324
:101580008F819885FC01828193819093711680935D
:1015900070168F819885FC018281938190936F16DC
:1015A00080936E1680E090E890937716809376167D
:1015B000000028960FB6F894DEBF0FBECDBFDF91B6
:1015C000CF910895CF93DF9300D000D0CDB7DEB791
:1015D0009E838D8388E696E19A83898307C08981FB
:1015E0009A81FC01808191819A83898389819A8182
:1015F000FC01208131818D819E812817390778F384
:1016000089819A819C838B8389819A81FC01828163
:1016100093812B813C81280F391F8D819E81281752
:101620003907A9F489819A81FC01228133818D8156
:101630009E81FC0182819381280F391F89819A81C3
:10164000FC013383228389819A819E838D838D81DE
:101650009E819C838B838D819E81FC0182819381FD
:101660002B813C81280F391F89819A81FC0180815F
:10167000918128173907C1F589819A81FC01208160
:10168000318180916C1690916D162817390711F1F0
:101690008D819E81FC012281338189819A81FC01A7
:1016A00080819181FC0182819381280F391F8D8176
:1016B0009E81FC013383228389819A81FC01808190
:1016C0009181FC01208131818D819E81FC013183DA
:1016D000208314C020916C1630916D168D819E81EF
:1016E000FC01318320830AC089819A81FC01208119
:1016F00031818D819E81FC013183208329813A8152
:101700008D819E812817390739F089819A812D8131
:101710003E81FC0131832083000026960FB6F894A9
:10172000DEBF0FBECDBFDF91CF910895CF93DF9382
:101730001F921F92CDB7DEB79A83898389819A81E0
:101740009C012D5F3F4F89819A81FC013283218367
:1017500029813A818FEF9FEFDC01F9018383948324
:10176000A583B68389819A819C012D5F3F4F898132
:101770009A81FC013087278389819A819C012D5FA2
:101780003F4F89819A81FC013287218789819A8123
:10179000FC01108200000F900F90DF91CF9108950F
:1017A000CF93DF931F921F92CDB7DEB79A838983C1
:1017B00089819A81FC011386128600000F900F9098
:1017C000DF91CF910895CF93DF93CDB7DEB72A97FE
:1017D0000FB6F894DEBF0FBECDBF98878F837A8790
:1017E000698789859A85FC0180819181A281B38175
:1017F0008B839C83AD83BE838B819C81AD81BE81B5
:101800008F3F9F4FAF4FBF4F41F48F819885FC01B1
:10181000818592859A83898320C08F8198850396DC
:101820009A83898307C089819A81FC01848195818B
:101830009A83898389819A81FC0184819581FC0145
:1018400020813181428153818B819C81AD81BE8118
:1018500082179307A407B50730F789819A81FC01A5
:101860002481358189859A85FC0135832483898586
:101870009A85FC018481958129853A85FC0137830D
:10188000268389859A8529813A81FC0137832683BD
:1018900089819A8129853A85FC013583248389854C
:1018A0009A852F813885FC01338722878F8198851F
:1018B000FC01808121E0280F8F819885FC01208325
:1018C00000002A960FB6F894DEBF0FBECDBFDF91A1
:1018D000CF910895CF93DF9300D01F92CDB7DEB79D
:1018E0009C838B838B819C81FC01828593859A8369
:1018F00089838B819C81FC01848195812B813C8132
:10190000F90126813781FC01378326838B819C81F5
:10191000FC01868197812B813C81F90124813581ED
:10192000FC013583248389819A81FC0121813281E4
:101930008B819C812817390751F48B819C81FC0194
:101940002681378189819A81FC01328321838B81B1
:101950009C81FC011386128689819A81FC01808119
:101960002FEF280F89819A81FC01208389819A8138
:10197000FC0180810F900F900F900F90DF91CF911D
:101980000895CF93DF93CDB7DEB728970FB6F894BD
:10199000DEBF0FBECDBF9C838B837E836D83588754
:1019A0004F838D819E819A83898329818B819C813C
:1019B000FC0120838B819C8101979C838B8389818F
:1019C0009A81892F99279A83898329818B819C8188
:1019D000FC0120838B819C8101979C838B838B816D
:1019E0009C81FC0110828B819C8101979C838B835D
:1019F0008B819C81FC0110828B819C8101979C834F
:101A00008B838B819C8120E8FC0120838B819C81CE
:101A100001979C838B838B819C81FC0110828B813D
:101A20009C8101979C838B838B819C81FC0110821C
:101A30008B819C8101979C838B838B819C81FC0192
:101A400010828B819C8147979C838B838F819885A3
:101A50009A83898329818B819C81FC0120838B81DE
:101A60009C8101979C838B8389819A81892F9927F7
:101A70009A83898329818B819C81FC0120838B81BE
:101A80009C8107979C838B838B819C8128960FB6C2
:101A9000F894DEBF0FBECDBFDF91CF910895CF93F5
:101AA000DF93CDB7DEB7FFD0A0917816B09179164D
:101AB000CD91CDBFDD91DEBFFF91EF91DF91CF9151
:101AC000BF91AF919F918F917F916F915F914F9156
:101AD0003F912F911F910F91FF90EF90DF90CF904A
:101AE000BF90AF909F908F907F906F905F904F903E
:101AF0003F902F901F900F900CBE0F900BBE0F9039
:101B00000FBE0F90089581E0DF91CF9108950F925D
:101B10000FB6F8940F920BB60F920CB60F921F925D
:101B200011242F923F924F925F926F927F928F92E9
:101B30009F92AF92BF92CF92DF92EF92FF920F935C
:101B40001F932F933F934F935F936F937F938F9345
:101B50009F93AF93BF93CF93DF93EF93FF93A091A6
:101B60007816B09179160DB60D920EB60D920E94B0
:101B70008820A0917816B0917916CD91CDBFDD91D6
:101B8000DEBFFF91EF91DF91CF91BF91AF919F9118
:101B90008F917F916F915F914F913F912F911F9105
:101BA0000F91FF90EF90DF90CF90BF90AF909F90FC
:101BB0008F907F906F905F904F903F902F901F90ED
:101BC0000F900CBE0F900BBE0F900FBE0F9008959C
:101BD00000000F920FB6F8940F920BB60F920CB64E
:101BE0000F921F9211242F923F924F925F926F9209
:101BF0007F928F929F92AF92BF92CF92DF92EF929D
:101C0000FF920F931F932F933F934F935F936F9385
:101C10007F938F939F93AF93BF93CF93DF93EF9374
:101C2000FF93A0917816B09179160DB60D920EB66D
:101C30000D9283E590E0FC0110820E948F1E8823A4
:101C400011F00E948820A0917816B0917916CD915C
:101C5000CDBFDD91DEBFFF91EF91DF91CF91BF91BD
:101C6000AF919F918F917F916F915F914F913F9134
:101C70002F911F910F91FF90EF90DF90CF90BF9029
:101C8000AF909F908F907F906F905F904F903F901C
:101C90002F901F900F900CBE0F900BBE0F900FBE99
:101CA0000F9008950000CF93DF93CDB7DEB7A895CE
:101CB00080E090E088709927892B11F080EE01C0B8
:101CC00080EC90E09770892B982F88E10FB6F894FC
:101CD000A895809360000FBE909360000000DF9194
:101CE000CF91089576DF18950000CF93DF9300D051
:101CF0001F921F92CDB7DEB79C838B836D838B8140
:101D00009C819A8389830FB6F8940F9289819A8176
:101D1000FC018081918129813A81F901278D422F2F
:101D200050E029813A81F90120A1222F30E0429F21
:101D3000B001439F700D529F700D11249B01280F1D
:101D4000391F89819A81FC013583248389819A8195
:101D5000FC01168E89819A81FC0120813181898163
:101D60009A81FC013383228389819A81FC0120813D
:101D7000318189819A81FC01878D882F90E0BC0197
:101D80006150710989819A81FC0180A1482F50E03E
:101D9000649FC001659F900D749F900D1124280FC2
:101DA000391F89819A81FC013783268389819A8131
:101DB0002FEFFC0121A389819A812FEFFC0122A33F
:101DC0008D81882379F489819A81FC01808588231B
:101DD00089F089819A8108960E943822882351F0DF
:101DE00096DE08C089819A810896A0DC89819A8153
:101DF00043969CDC0F900FBE81E00F900F900F90E8
:101E00000F900F90DF91CF9108950F931F93CF9371
:101E1000DF93CDB7DEB729970FB6F894DEBF0FBEBC
:101E2000CDBF8F83688749878F81482F50E0888591
:101E3000282F30E0429FC001439F900D529F900D8C
:101E400011249A83898389819A818396B6D99C8348
:101E50008B838B819C81892B99F08B819C819E83C4
:101E60008D838D819E8183969E838D832B813C8182
:101E70008D819E8189012985AC0168858F810DD076
:101E80008B819C8129960FB6F894DEBF0FBECDBF23
:101E9000DF91CF911F910F9108950F931F93CF93CF
:101EA000DF93CDB7DEB727970FB6F894DEBF0FBE2E
:101EB000CDBF89836A835C834B832D831F830E830D
:101EC0008A81882341F48E819F812E813F81FC018C
:101ED0003183208307C08E819F812B813C81FC014F
:101EE000318320838E819F812981FC01278F8E8100
:101EF0009F812A81FC0120A38E819F8161E0F5DE14
:101F0000000027960FB6F894DEBF0FBECDBFDF915D
:101F1000CF911F910F9108950F93CF93DF931F924D
:101F20001F92CDB7DEB79A83898389819A81892BE5
:101F3000B9F089819A81FC011582148289819A8184
:101F4000FC011182108289819A81FC0116828981AB
:101F50009A8100E020E030E0A90160E070E025D047
:101F600000000F900F90DF91CF910F910895CF93C4
:101F7000DF9300D01F921F92CDB7DEB78D8381E033
:101F800089831A824D816A8189813FDF9C838B839B
:101F90008B819C81C1DF8B819C810F900F900F9072
:101FA0000F900F90DF91CF9108950F93CF93DF9310
:101FB000CDB7DEB762970FB6F894DEBF0FBECDBFC8
:101FC0009B878A877D876C872E873F87488B598BB5
:101FD0000A8B19828A859B859B838A830FB6F89426
:101FE0000F928A819B81FC01268D8A819B81FC0155
:101FF000878D281718F08A898230F9F42C853D8561
:102000008A819B814A89B9019DD18C838A819B8178
:10201000FC018389882349F08A819B8143960E9431
:102020003822882331F073DD04C08C81882309F0C5
:102030006EDD0F900FBE81E064C08E859F85A889FC
:10204000B989892B8A2B8B2B21F40F900FBE80E04E
:1020500058C08981882331F4CE0105960E9413254A
:1020600081E089830F900FBE0E94CF1C0FB6F894B9
:102070000F928A819B81FC0181A18F3F21F48A818B
:102080009B81FC0111A28A819B81FC0182A18F3F6F
:1020900021F48A819B81FC0112A20F900FBE9E0148
:1020A000225F3F4FCE010596B9010E943625882355
:1020B00011F58A819B81E2D28823B9F08E859F85B4
:1020C000A889B9892A813B81285F3F4FAC01BD01B6
:1020D000C9010E9414218A819B8155D20E94DC1C77
:1020E000882309F07BCF13DD79CF8A819B814BD286
:1020F0000E94DC1C73CF8A819B8145D20E94DC1C2C
:1021000080E062960FB6F894DEBF0FBECDBFDF91C0
:10211000CF910F910895CF93DF93CDB7DEB72D9771
:102120000FB6F894DEBF0FBECDBF98878F837A8736
:1021300069875C874B872D878F8198859B838A83EE
:102140001C828A819B81FC01268D8A819B81FC01F6
:10215000878D281718F08D858230A9F58A819B819B
:10216000FC0182A18D838A819B81FC01868D8E83F7
:1021700029853A858A819B814D85B901E3D08D817E
:102180008F3FB9F48A819B81FC0183898823C1F048
:102190008A819B8143960E943822882389F08B850F
:1021A0009C85892B69F08B859C8521E0FC0120832F
:1021B00007C08D818F5F282F8A819B81FC0122A31C
:1021C00081E0898301C0198289812D960FB6F89428
:1021D000DEBF0FBECDBFDF91CF910895CF93DF93C8
:1021E000CDB7DEB761970FB6F894DEBF0FBECDBF97
:1021F0009B878A877D876C872E873F87488B598B83
:1022000019828A859B859B838A830FB6F8940F92E7
:102210008A819B81FC01868D8C838C818823F9F0D7
:102220002C853D858A819B81B9015CD18C812FEF02
:10223000280F8A819B81FC01268F8A819B81FC016A
:102240008085882341F08A819B8108960E943822EC
:10225000882309F05CDC0F900FBE81E06AC08E8598
:102260009F85A889B989892B8A2B8B2B21F40F9004
:102270000FBE80E05EC08981882331F4CE010596CF
:102280000E94132581E089830F900FBE0E94CF1C0E
:102290000FB6F8940F928A819B81FC0181A18F3F38
:1022A00021F48A819B81FC0111A28A819B81FC011E
:1022B00082A18F3F21F48A819B81FC0112A20F90A1
:1022C0000FBE9E01225F3F4FCE010596B9010E94CD
:1022D0003625882311F58A819B81B3D18823B9F0F3
:1022E0008E859F85A889B9892A813B812D5E3F4FC4
:1022F000AC01BD01C9010E9414218A819B8143D197
:102300000E94DC1C882309F080CF01DC7ECF8A810B
:102310009B8139D10E94DC1C78CF8A819B8133D18B
:102320000E94DC1C8A819B818CD1882309F46DCFAB
:1023300080E061960FB6F894DEBF0FBECDBFDF918F
:10234000CF910895CF93DF93CDB7DEB727970FB620
:10235000F894DEBF0FBECDBF9C838B837E836D83DD
:102360004F8319828B819C81FC01868D8A838B81AE
:102370009C81FC0180A18823B1F48B819C81FC01AC
:1023800080819181892B09F09CC08B819C81FC010B
:10239000848195810E94C42689838B819C81FC0164
:1023A000158214828EC08F818823D9F58B819C8100
:1023B000FC0180A1482F50E08B819C81FC0182812F
:1023C00093812D813E81B9010E94AA448B819C8119
:1023D000FC01228133818B819C81FC0180A1882FAB
:1023E00090E0280F391F8B819C81FC01338322836D
:1023F0008B819C81FC01228133818B819C81FC013A
:10240000848195812817390708F45BC08B819C81F2
:10241000FC01208131818B819C81FC0133832283EB
:1024200050C08B819C81FC0180A1482F50E08B81A2
:102430009C81FC01868197812D813E81B9010E949A
:10244000AA448B819C81FC01268137818B819C81F0
:10245000FC0180A1882F90E0919581959109280F2A
:10246000391F8B819C81FC01378326838B819C8162
:10247000FC01268137818B819C81FC0180819181C7
:1024800028173907A8F48B819C81FC0124813581B0
:102490008B819C81FC0180A1882F90E09195819592
:1024A0009109280F391F8B819C81FC01378326837A
:1024B0008F81823031F48A81882319F08A8181509A
:1024C0008A838A8121E0280F8B819C81FC01268FE1
:1024D000898127960FB6F894DEBF0FBECDBFDF917E
:1024E000CF910895CF93DF9300D01F92CDB7DEB781
:1024F0009A8389837C836B8389819A81FC0180A183
:102500008823C9F189819A81FC01268137818981DB
:102510009A81FC0180A1882F90E0280F391F8981C2
:102520009A81FC013783268389819A81FC01268167
:10253000378189819A81FC01848195812817390727
:1025400050F089819A81FC012081318189819A81B1
:10255000FC013783268389819A81FC0180A1482F61
:1025600050E089819A81FC01268137818B819C8191
:10257000B9010E94AA4400000F900F900F900F9095
:10258000DF91CF910895CF93DF9300D01F92CDB705
:10259000DEB79C838B830FB6F8940F928B819C815E
:1025A000FC0182A1898312C08B819C81FC018389FB
:1025B000882381F08B819C8143960E943822882356
:1025C00011F00E94D825898181508983898118164C
:1025D0005CF301C000008B819C812FEFFC0122A3E2
:1025E0000F900FBE0FB6F8940F928B819C81FC0167
:1025F00081A18A8312C08B819C81FC018085882304
:1026000081F08B819C8108960E943822882311F0EA
:102610000E94D8258A8181508A838A8118165CF3AA
:1026200001C000008B819C812FEFFC0121A30F9042
:102630000FBE00000F900F900F900F90DF91CF9181
:102640000895CF93DF9300D0CDB7DEB79B838A8305
:102650000FB6F8940F928A819B81FC01868D8823A6
:1026600019F481E0898301C019820F900FBE89811E
:102670000F900F900F90DF91CF910895CF93DF933C
:1026800000D0CDB7DEB79B838A830FB6F8940F9244
:102690008A819B81FC01268D8A819B81FC01878D2B
:1026A000281719F481E0898301C019820F900FBEA9
:1026B00089810F900F900F90DF91CF910895CF9364
:1026C000DF93CDB7DEB729970FB6F894DEBF0FBE04
:1026D000CDBF9C838B834D835E836F8378872987EF
:1026E0008B819C819A8389830FB6F8940F9289819C
:1026F0009A81FC0181A18F3F21F489819A81FC019B
:1027000011A289819A81FC0182A18F3F21F48981E4
:102710009A81FC0112A20F900FBE89819A81FC015F
:10272000868D882371F489819A81FC0173968D814D
:102730009E81AF81B8852985AC01BD01CF010E9482
:10274000C12189819A811FDF000029960FB6F89474
:10275000DEBF0FBECDBFDF91CF9108950F93CF9312
:10276000DF93CDB7DEB728970FB6F894DEBF0FBE64
:10277000CDBF9D838C837F836E834887888581301E
:1027800019F481E08B8301C01B828E819F81892B8C
:1027900021F481E090E09F838E838C819D819C0158
:1027A000205F3F4F8C819D818217930768F48C8155
:1027B0009D8101969D838C838C819D810F960E94C3
:1027C000DD089A83898302C01A82198289819A81DD
:1027D000892B69F089819A81BC01615F7F4F2E81CD
:1027E0003F814C815D8189819A810B8138D58981B6
:1027F0009A8128960FB6F894DEBF0FBECDBFDF9149
:10280000CF910F9108950F93CF93DF9300D01F9234
:102810001F92CDB7DEB79D838C838C819D819B8376
:102820008A8319820FB6F8940F928A819B81DC010A
:1028300018968D919C911997892B39F58A819B81E6
:10284000FC0182859385892B01F58A819B81DC01BE
:102850001E96EC918A819B81DC0116962D913C910C
:1028600017978A819B81DC0114964D915C91159795
:102870008A819B81DC011C966D917C911D978A81D8
:102880009B810E2FECD481E089830F900FBE89814C
:102890000F900F900F900F900F90DF91CF910F91AD
:1028A0000895CF93DF9300D000D0CDB7DEB79E83DD
:1028B0008D838D819E819C838B838B819C81FC0188
:1028C000248135818B819C81FC0180819181820FE3
:1028D000931F9A8389838B819C81FC0182819381E0
:1028E00029813A81A901481B590BCA019A8389831E
:1028F00089819A8101979A8389838B819C81FC01CC
:102900002481358189819A818217930768F08B81B0
:102910009C81FC018481958129813A81A901481B10
:10292000590BCA019A83898389819A8126960FB6A9
:10293000F894DEBF0FBECDBFDF91CF910895AF9267
:10294000BF92CF92DF92EF92FF920F931F93CF939C
:10295000DF93CDB7DEB769970FB6F894DEBF0FBE31
:10296000CDBF998B888B7B8B6A8B5D8B4C8B0E8B51
:102970001F8B288F398F888999899E838D831A822E
:1029800019828C899D899C838B838D819E81FC011A
:1029900084819581019798878F838D819E81FC0129
:1029A0008685882F90E081709927892B89F08B810B
:1029B0009C8102969C838B832B813C818F8198859F
:1029C0008217930780F41E8A1F8A188E198E0BC0F7
:1029D0002B813C818F8198858217930720F48F810A
:1029E00098859C838B838E899F89A88DB98D892B2F
:1029F0008A2B8B2B09F447C0CE010B960E94EB2447
:102A00000FB6F8940F928D819E814BDF9A83898354
:102A100029813A818B819C812817390770F460E005
:102A200080E090E00E94E62C0E9498269C018D8117
:102A30009E81FC013387228703C00F900FBE23C005
:102A40000F900FBE8E899F89A88DB98D5C016D0195
:102A5000E12CF12C00E010E0980140E050E0BA01D8
:102A600080E00E94F2278D819E81FC0113861286F0
:102A70009E012A5E3F4FCE010B96B9010E9436257A
:102A8000882309F4BDCF89819A81892B29F48D810E
:102A90009E8107DF9A838983EB81FC8129813A81BA
:102AA0004C895D896A897B898D819E818F01C2D025
:102AB0009A87898789859A85892B41F18D819E81A5
:102AC0008BD39C018D819E81FC0186819781281783
:102AD0003907E0F064D78D819E81FC018085918566
:102AE000892B99F08D819E81FC0180859185E12C57
:102AF000F12C00E020E030E0A90160E00E94F9281C
:102B00008D819E81FC011186108656D789859A8514
:102B100069960FB6F894DEBF0FBECDBFDF91CF919F
:102B20001F910F91FF90EF90DF90CF90BF90AF90EB
:102B30000895CF92DF92EF92FF920F931F93CF935E
:102B4000DF93CDB7DEB761970FB6F894DEBF0FBE47
:102B5000CDBF9B878A877D876C875F874E87398B40
:102B6000288B8A859B859C838B838E859F859A8302
:102B700089838B819C81FC018685882F90E0817000
:102B80009927892B29F089819A8102969A838983D2
:102B90008B819C8186DE9E838D83E981FA812D81E4
:102BA0003E814E855F856C857D858B819C818F0103
:102BB00041D098878F838F819885892B51F18B81A4
:102BC0009C810AD39C018B819C81FC018681978129
:102BD00028173907F0F019868B819C81FC018085CC
:102BE0009185892BB1F08B819C81FC018085918539
:102BF000288939896901E12CF12C00E020E030E0DE
:102C0000A90160E00E94CA2A8B819C81FC01118687
:102C100010868F81988561960FB6F894DEBF0FBE3F
:102C2000CDBFDF91CF911F910F91FF90EF90DF907B
:102C3000CF9008950F931F93CF93DF93CDB7DEB757
:102C400061970FB6F894DEBF0FBECDBF9987888716
:102C50007B876A875D874C873F872E87198B088B18
:102C60008E859F85892B11F4198233C088859985BB
:102C7000FC018685882F90E081709927892BA9F423
:102C800081E089838C859D859D838C838E859F853E
:102C90009F838E832C813D818E819F8128173907E8
:102CA00008F4C9019D878C8714C02E853F858889CB
:102CB00099892817390760F081E089839E01245F94
:102CC0003F4F8885998542E050E0B9014FD101C05E
:102CD00019828981882359F04C855D852A853B8539
:102CE00088859985B90142D19B838A8302C01B8262
:102CF0001A828A819B8161960FB6F894DEBF0FBE5F
:102D0000CDBFDF91CF911F910F910895AF92BF92E8
:102D1000CF92DF92EF92FF920F931F93CF93DF93A7
:102D2000CDB7DEB762970FB6F894DEBF0FBECDBF4A
:102D30009A8789877C876B875E874D870F87188B7B
:102D4000298B3A8B89859A8598878F831A82198275
:102D50008F819885FC018685882F90E08170992766
:102D6000892B29F082E090E09E838D8302C01E8231
:102D70001D828F859889A989BA89892B8A2B8B2BEB
:102D800009F441C00FB6F8940F928F81988524D230
:102D90009C838B832B813C818D819E81821793073D
:102DA00068F060E080E090E00E94E62C0E949826A7
:102DB0009C018F819885FC01318720870F900FBE81
:102DC0002B813C818D819E818217930708F18F852D
:102DD0009889A989BA895C016D01E12CF12C00E088
:102DE00010E0980140E050E0BA0180E00E94F22734
:102DF0008F819885FC01118610868F819885ECD192
:102E00009C838B8305C08F819885E6D19C838B83BF
:102E10002B813C818D819E818217930770F5ED8116
:102E2000FE812B813C814D855E856B857C858F8104
:102E300098858F0135D09A83898389819A81892BDE
:102E4000E1F0ADD58F819885FC0182859385892B32
:102E500099F08F819885FC0182859385E12CF12C76
:102E600000E020E030E0A90160E00E94F9288F81B5
:102E70009885FC01138612869FD589819A81629676
:102E80000FB6F894DEBF0FBECDBFDF91CF911F917B
:102E90000F91FF90EF90DF90CF90BF90AF9008958B
:102EA0000F931F93CF93DF93CDB7DEB762970FB623
:102EB000F894DEBF0FBECDBF9A8789877C876B876A
:102EC0005E874D87388B2F871A8B098B89899A8962
:102ED000892B81F189859A85FC01808191819C8370
:102EE0008B832F85388949895A89BE01695F7F4F55
:102EF00089859A85CAD08F8198859A8389832F8501
:102F0000388989899A89A901481B590BCA01988B6C
:102F10008F8729813A818D859E858217930770F46A
:102F200089859A852B813C81FC01318320831A821B
:102F3000198204C08D859E859A8389832F8538895F
:102F400049815A816B857C8589859A859ED09E832F
:102F50008D838D819E8162960FB6F894DEBF0FBE81
:102F6000CDBFDF91CF911F910F910895CF93DF9344
:102F7000CDB7DEB72E970FB6F894DEBF0FBECDBF2C
:102F80009A8789877C876B875E874D8789859A8535
:102F9000FC01828193819A83898389859A85FC01CA
:102FA0002481358189819A81A901481B590BCA0165
:102FB0009C838B838D859E859E838D832B813C8115
:102FC0008D819E812817390708F4C90198878F835E
:102FD00089859A85FC012485358589819A81820FAE
:102FE000931F4F8158852B853C85B9010E94AA44C7
:102FF0002D853E858F81988582179307A8F42D85AE
:103000003E858F819885A901481B590B2B853C85EE
:103010008F819885280F391F89859A85FC018485C1
:103020009585B9010E94AA4429813A818D859E85A2
:10303000820F931F9A83898389859A85FC01248155
:10304000358189819A818217930768F089859A85ED
:10305000FC018481958129813A81A901481B590B82
:10306000CA019A83898389859A8529813A81FC01DD
:10307000338322838D859E852E960FB6F894DEBF0E
:103080000FBECDBFDF91CF910895CF93DF93CDB722
:10309000DEB766970FB6F894DEBF0FBECDBF988B34
:1030A0008F877A8B698B5C8B4B8B3E8B2D8B8D89BD
:1030B0009E899C838B838B899C899E838D832B81A6
:1030C0003C818D819E812817390708F4C9019887B2
:1030D0008F838F819885892B09F473C08F85988998
:1030E000FC01808191819A8389838F859889FC0175
:1030F0002481358189819A81A901481B590BCA0114
:103100009A8789878F8198859C878B8729853A85BF
:103110008B859C852817390708F4C9019E878D8700
:103120008F859889FC012485358589819A81280FAE
:10313000391F4D855E8589899A89B9010E94AA4403
:103140002F8138858D859E8582179307A0F42F8166
:1031500038858D859E85A901481B590B8F859889D7
:10316000FC016485758529893A898D859E85820F44
:10317000931F0E94AA4429813A818F819885820FEA
:10318000931F9A8389838F859889FC0124813581D7
:1031900089819A818217930768F08F859889FC014D
:1031A0008481958129813A81A901481B590BCA0163
:1031B0009A8389838F85988929813A81FC0131839B
:1031C00020838F81988566960FB6F894DEBF0FBE78
:1031D000CDBFDF91CF910895CF93DF9300D01F92A1
:1031E000CDB7DEB79C838B838B819C81FC012481CE
:1031F00035818B819C81FC0182819381820F931F99
:103200009A8389838B819C81FC01808191812981B2
:103210003A81A901481B590BCA019A8389838B8182
:103220009C81FC012481358189819A8182179307D1
:1032300068F08B819C81FC018481958129813A8190
:10324000A901481B590BCA019A83898389819A81F4
:103250000F900F900F900F90DF91CF9108950F93E3
:10326000CF93DF93CDB7DEB729970FB6F894DEBFC3
:103270000FBECDBF9A8389837C836B835E834D832E
:1032800038872F83098789819A814FE050E060E079
:1032900070E00E94B34489819A812B813C81FC01BA
:1032A0003587248789819A812D813E81FC01358370
:1032B000248389819A812F813885FC013783268375
:1032C00089819A812985FC012687000029960FB6FD
:1032D000F894DEBF0FBECDBFDF91CF910F9108955F
:1032E000AF92BF92CF92DF92EF92FF920F93CF9364
:1032F000DF93CDB7DEB760970FB6F894DEBF0FBE91
:10330000CDBF9F838E83798768875B874A873D8798
:103310002C870E87F88AEF868A859B850E94DD08B8
:103320009D838C838C819D81892BB9F084E390E00F
:103330000E94DD089A83898389819A81892B41F0D3
:1033400089819A812C813D81FC01348F238F07C0B4
:103350008C819D810E94F30902C01A8219828981A1
:103360009A81892BC1F0A981BA81EF85F8892C85D2
:103370003D854A855B85688579858E819F81A12CF5
:10338000B12C6D017F010E8519D089819A8105D1FB
:1033900081E08B8302C08FEF8B838B8160960FB6A9
:1033A000F894DEBF0FBECDBFDF91CF910F91FF909C
:1033B000EF90DF90CF90BF90AF900895AF92BF9203
:1033C000CF92DF92EF92FF920F931F93CF93DF93F1
:1033D000CDB7DEB762970FB6F894DEBF0FBECDBF94
:1033E0009D838C837F836E83598748873B872A8799
:1033F0000C87FE86ED86D88ACF86BA8AA98A8F8501
:103400009889FC01838D948D28853985A90165EA09
:1034100070E00E94B3448F859889FC01238D348D20
:10342000888599850197820F931F9B838A838E815C
:103430009F81892B69F1198221C08981882F90E0B1
:103440002981222F30E04E815F81240F351FF90141
:1034500040812F853889820F931F4D96FC01408350
:103460008981882F90E02E813F81820F931FFC017C
:103470008081882339F089818F5F898389818031B8
:10348000E0F201C000008F859889FC0114A604C0F9
:103490008F859889FC01158E8C858A3010F089E023
:1034A0008C878F8598892C85FC01228F8F85988940
:1034B0002C85FC0125A78F859889FC0116A68F8590
:1034C000988902960E94D00B8F8598890E960E944B
:1034D000D00B8F8598892F853889FC013387228707
:1034E0008C85882F90E0A0E0B0E02AE030E040E05A
:1034F00050E079018A01E81AF90A0A0B1B0BD8017E
:10350000C7012F853889F90186879787A08BB18BF2
:103510008F8598892F853889FC01378B268B8F857D
:1035200098898F9644E050E060E070E00E94B344D8
:103530008F859889C39641E050E060E070E00E947A
:10354000B3444A855B852C813D818A819B81B90189
:103550000E94C10C9C018F859889FC0131832083D6
:103560008D859E85892B39F08D859E852F8538899F
:10357000FC0131832083000062960FB6F894DEBF11
:103580000FBECDBFDF91CF911F910F91FF90EF90B4
:10359000DF90CF90BF90AF900895CF93DF9300D08E
:1035A0001F92CDB7DEB79C838B830FB6F8940F9232
:1035B000809119178F5F80931917809178169091D9
:1035C0007916892B69F48B819C819093791680936D
:1035D0007816809119178130C9F40E94E32516C02E
:1035E00080911F17882391F4809178169091791615
:1035F000FC01228D8B819C81FC01828D821730F031
:103600008B819C81909379168093781680912617F0
:103610008F5F809326178B819C81FC01928D809116
:103620001E17891730F48B819C81FC01828D809359
:103630001E178B819C81FC01828D282F30E04BE08E
:10364000429FC001439F900D11248558994EFC0163
:10365000808191819A8389838B819C8129813A81A0
:10366000FC013783268389819A81FC012681378179
:103670008B819C81FC013187208789819A81FC01A3
:10368000868197812B813C812E5F3F4FFC013583E2
:1036900024838B819C819C012E5F3F4F89819A817D
:1036A000FC01378326838B819C81FC01828D282F2E
:1036B00030E04BE0429FC001439F900D11249C01DC
:1036C0002658394E8B819C81FC01358724878B815C
:1036D0009C81FC01828D882F90E04BE0489F9001F7
:1036E000499F300D11242658394EF901208141E0BF
:1036F000420F5BE0589F9001599F300D1124C90182
:103700008658994EFC0140830F900FBE80911F1781
:10371000882371F08091781690917916FC01228DA2
:103720008B819C81FC01828D281710F40E94870DEB
:1037300000000F900F900F900F90DF91CF910895A0
:10374000EF92FF920F931F93CF93DF93CDB7DEB726
:1037500060970FB6F894DEBF0FBECDBF9C878B87F6
:103760004D875E876F87788B198219D180911A17E0
:1037700090911B17A0911C17B0911D178A839B83F2
:10378000AC83BD838B859C85FC0120813181428186
:1037900053818D859E85AF85B889820F931FA41FA5
:1037A000B51F8E839F83A887B9878B859C85FC0175
:1037B00020813181428153818A819B81AC81BD818D
:1037C00082179307A407B50700F58B859C85FC013C
:1037D00020813181428153818E819F81A885B98565
:1037E00082179307A407B50778F52E813F81488596
:1037F00059858A819B81AC81BD8182179307A4077B
:10380000B50710F581E089831FC08B859C85FC017D
:1038100020813181428153818E819F81A885B98524
:1038200082179307A407B50768F02E813F8148856A
:1038300059858A819B81AC81BD8182179307A4073A
:10384000B50710F481E089832B853C858E819F81AB
:10385000A885B985F90180839183A283B383898187
:103860008823A9F02E813F81488559858A819B81D3
:10387000AC81BD8179018A01E81AF90A0A0B1B0B98
:10388000D801C70140E0BC01CD010E94252D94D094
:103890008A878A85882311F40E94870D8981609622
:1038A0000FB6F894DEBF0FBECDBFDF91CF911F9151
:1038B0000F91FF90EF900895CF93DF9300D01F9268
:1038C0001F92CDB7DEB76A837B838C839D83198279
:1038D0008A819B81AC81BD81892B8A2B8B2B61F0E6
:1038E0005ED08A819B81AC81BD8140E0BC01CD016D
:1038F0000E94252D61D089838981882311F40E943B
:10390000870D00000F900F900F900F900F90DF9198
:10391000CF910895EF92FF920F93CF93DF931F9271
:10392000CDB7DEB70F2EFBE2EF2EF7E1FF2EF02D25
:1039300000E020E030E040EC50E065E775E08DEC21
:1039400090E0CEDC89838981813019F40E94B52D05
:10395000898389818130C9F4F8948FEF9FEFDC016E
:103960008093271790932817A0932917B0932A17AD
:1039700081E080931F1710921A1710921B17109254
:103980001C1710921D170E944F0D80910602000017
:103990000F90DF91CF910F91FF90EF900895CF930B
:1039A000DF93CDB7DEB780912D178F5F80932D17F2
:1039B0000000DF91CF910895CF93DF93CDB7DEB7AD
:1039C0002D970FB6F894DEBF0FBECDBF1A821982B5
:1039D0001B820FB6F8940F9280912D17815080931F
:1039E0002D1780912D17882309F069C1809119172F
:1039F000882309F464C11BC18091091790910A17AB
:103A0000FC01808591859A83898389819A81FC0153
:103A1000808D918D9987888789819A81FC0182891F
:103A2000938929813A81F90124893589FC013783F9
:103A3000268389819A81FC018489958929813A812B
:103A4000F90122893389FC0135832483888599858E
:103A5000FC012181328189819A810E9628173907CC
:103A600051F489819A81FC01248935898885998559
:103A7000FC013283218389819A81FC01118E108E91
:103A800088859985FC0180812FEF280F888599858D
:103A9000FC01208389819A81FC01848595859B871F
:103AA0008A8789819A81FC018681978129813A815F
:103AB000F90120853185FC013783268389819A812C
:103AC000FC018085918529813A81F9012681378120
:103AD000FC01358324838A859B85FC012181328109
:103AE00089819A8102962817390751F489819A8130
:103AF000FC01208531858A859B85FC0132832183E9
:103B000089819A81FC01158614868A859B85FC0132
:103B100080812FEF280F8A859B85FC012083898176
:103B20009A81FC01928D80911E17891730F489814A
:103B30009A81FC01828D80931E1789819A81FC01F4
:103B4000828D282F30E04BE0429FC001439F900DB3
:103B500011248558994EFC01808191819D878C8725
:103B600089819A812C853D85FC01378326838C854C
:103B70009D85FC012681378189819A81FC013187ED
:103B800020878C859D85FC018681978129813A81DA
:103B90002E5F3F4FFC013583248389819A819C01EC
:103BA0002E5F3F4F8C859D85FC013783268389815D
:103BB0009A81FC01828D282F30E04BE0429FC001AA
:103BC000439F900D11249C012658394E89819A817A
:103BD000FC013587248789819A81FC01828D882F99
:103BE00090E04BE0489F9001499F300D11242658EA
:103BF000394EF901208141E0420F5BE0589F90016E
:103C0000599F300D1124C9018658994EFC014083FB
:103C100089819A81FC01228D809178169091791684
:103C2000FC01828D281718F081E080932417809181
:103C30000217882309F0E0CE89819A81892B11F03F
:103C40000E9468268091201790912117A091221739
:103C5000B09123178C839D83AE83BF838C819D811C
:103C6000AE81BF81892B8A2B8B2B09F158D08823F9
:103C700019F081E0809324178C819D81AE81BF81F2
:103C80000197A109B1098C839D83AE83BF838C8189
:103C90009D81AE81BF81892B8A2B8B2B39F71092A6
:103CA000201710922117109222171092231780913B
:103CB0002417882321F081E08B830E94870D0F90C9
:103CC0000FBE8B812D960FB6F894DEBF0FBECDBF11
:103CD000DF91CF910895CF93DF9300D01F92CDB79E
:103CE000DEB70FB6F8940F9280911A1790911B17B8
:103CF000A0911C17B0911D1789839A83AB83BC8355
:103D00000F900FBE89819A81AB81BC81BC01CD012E
:103D10000F900F900F900F90DF91CF910895CF9358
:103D2000DF93CDB7DEB763970FB6F894DEBF0FBE53
:103D3000CDBF198280912D17882309F0CCC18091C5
:103D40001A1790911B17A0911C17B0911D1701967F
:103D5000A11DB11D8A839B83AC83BD838A819B8116
:103D6000AC81BD8180931A1790931B17A0931C17E9
:103D7000B0931D178A819B81AC81BD81892B8A2BD1
:103D80008B2BD1F48091FE169091FF169F838E832A
:103D900080910017909101179093FF168093FE1663
:103DA0008E819F8190930117809300178091251732
:103DB0008F5F809325178CD78091271790912817B4
:103DC000A0912917B0912A172A813B814C815D81EE
:103DD000281739074A075B0708F460C18091FE166F
:103DE0009091FF16FC018081882361F48FEF9FEF93
:103DF000DC018093271790932817A0932917B0937D
:103E00002A174CC18091FE169091FF16FC01878104
:103E10009085FC018085918599878887888599851B
:103E2000FC0182819381A481B5818A879B87AC87BD
:103E3000BD872A813B814C815D818A859B85AC85CC
:103E4000BD85281739074A075B0768F48A859B8573
:103E5000AC85BD858093271790932817A0932917C9
:103E6000B0932A171BC188859985FC0184859585A7
:103E70009F878E8788859985FC0186819781288513
:103E80003985F90120853185FC01378326838885B2
:103E90009985FC018085918528853985F9012681E0
:103EA0003781FC01358324838E859F85FC01218128
:103EB00032818885998502962817390751F48885BB
:103EC0009985FC01208531858E859F85FC01328393
:103ED000218388859985FC01158614868E859F85AA
:103EE000FC0180812FEF280F8E859F85FC012083A8
:103EF00088859985FC01808D918D892B09F445C0B9
:103F000088859985FC01808D918D998B888B88851A
:103F10009985FC018289938928853985F90124894D
:103F20003589FC013783268388859985FC0184893E
:103F3000958928853985F90122893389FC013583E2
:103F4000248388899989FC0121813281888599851A
:103F50000E962817390751F488859985FC01248924
:103F6000358988899989FC013283218388859985DF
:103F7000FC01118E108E88899989FC0180812FEFB8
:103F8000280F88899989FC01208388859985FC01FF
:103F9000928D80911E17891730F488859985FC01D0
:103FA000828D80931E1788859985FC01828D282F2C
:103FB00030E04BE0429FC001439F900D1124855893
:103FC000994EFC01808191819B8B8A8B8885998594
:103FD0002A893B89FC01378326838A899B89FC01D6
:103FE0002681378188859985FC01318720878A89D8
:103FF0009B89FC0186819781288539852E5F3F4FFB
:10400000FC0135832483888599859C012E5F3F4F71
:104010008A899B89FC013783268388859985FC01E1
:10402000828D282F30E04BE0429FC001439F900DCE
:1040300011249C012658394E88859985FC013587C5
:10404000248788859985FC01828D882F90E04BE03C
:10405000489F9001499F300D11242658394EF9018F
:10406000208141E0420F5BE0589F9001599F300D45
:104070001124C9018658994EFC0140838885998591
:10408000FC01228D8091781690917916FC01828D29
:10409000281708F4A3CE81E08983A0CE80917816FA
:1040A00090917916FC01828D282F30E04BE0429FE1
:1040B000C001439F900D11248658994EFC018081C8
:1040C000823010F081E08983809124178823B1F039
:1040D00081E0898313C08091201790912117A091CE
:1040E0002217B09123170196A11DB11D80932017AF
:1040F00090932117A0932217B09323178981639679
:104100000FB6F894DEBF0FBECDBFDF91CF910895FB
:10411000CF93DF9300D0CDB7DEB780912D178823E2
:1041200021F081E08093241778C0109224178091A9
:10413000781690917916FC01208131818091781652
:1041400090917916FC01838D948D8217930770F0FE
:1041500080917816909179169C01235E3F4F809153
:10416000781690917916B9010E94493380911E17F3
:10417000898303C08981815089838981282F30E018
:104180004BE0429FC001439F900D11248658994EE9
:10419000FC018081882371F38981282F30E04BE076
:1041A000429FC001439F900D11248658994E9B83D6
:1041B0008A838A819B81FC0181819281FC01248117
:1041C00035818A819B81FC01328321838A819B8195
:1041D000FC01218132818A819B810396281739074E
:1041E00069F48A819B81FC0181819281FC01248197
:1041F00035818A819B81FC01328321838A819B8165
:10420000FC0181819281FC018085918590937916D2
:1042100080937816898180931E1700000F900F906D
:104220000F90DF91CF910895CF93DF9300D000D00E
:10423000CDB7DEB79A8389834B835C836D837E839E
:1042400080917816909179169C01225F3F4F898169
:104250009A81B9010E94E30B8B819C81AD81BE8163
:1042600041E0BC01CD010E94252D000026960FB62D
:10427000F894DEBF0FBECDBFDF91CF9108950F93AD
:104280001F93CF93DF93CDB7DEB72C970FB6F8947B
:10429000DEBF0FBECDBF9C838B834D835E836F8358
:1042A000788709871A872B873C8720917816309169
:1042B00079168D819E81AF81B885B068F9018687B6
:1042C0009787A08BB18B8B819C81FC01818192812E
:1042D0009A838983809178169091791629813A8101
:1042E000FC01338B228B809178169091791629816D
:1042F0003A81F90126813781FC01358B248B898134
:104300009A81FC01868197812091781630917916E7
:10431000225F3F4FFC013583248380917816909172
:1043200079169C01225F3F4F89819A81FC01378376
:10433000268380917816909179162B813C81FC011F
:10434000318F208F8B819C81FC01808121E0280F9F
:104350008B819C81FC01208389859A85AB85BC85F6
:1043600041E0BC01CD010E94252D00002C960FB626
:10437000F894DEBF0FBECDBFDF91CF911F910F919B
:104380000895CF93DF93CDB7DEB729970FB6F89492
:10439000DEBF0FBECDBF9C838B834D835E836F8357
:1043A000788729878B819C81FC01818192819A8306
:1043B0008983809178169091791629813A81FC0140
:1043C000338B228B809178169091791629813A81CE
:1043D000F90126813781FC01358B248B89819A81F3
:1043E000FC01868197812091781630917916225FA1
:1043F0003F4FFC0135832483809178169091791684
:104400009C01225F3F4F89819A81FC01378326837B
:1044100080917816909179162B813C81FC01318F27
:10442000208F8B819C81FC01808121E0280F8B8172
:104430009C81FC0120838985882339F08FEF9FEFD1
:10444000DC018D839E83AF83B8878D819E81AF8190
:10445000B8854985BC01CD010E94252D0000299613
:104460000FB6F894DEBF0FBECDBFDF91CF91089598
:10447000CF93DF93CDB7DEB72D970FB6F894DEBF9D
:104480000FBECDBF9D878C878C859D85FC01878164
:104490009085FC01808591859B838A838A819B819D
:1044A000FC01808D918D9D838C838A819B81FC0191
:1044B000828993892A813B81F90124893589FC010C
:1044C000378326838A819B81FC01848995892A818F
:1044D0003B81F90122893389FC01358324838C8156
:1044E0009D81FC01218132818A819B810E96281752
:1044F000390751F48A819B81FC01248935898C819B
:104500009D81FC01328321838A819B81FC01118E74
:10451000108E8C819D81FC0180812FEF280F8C8172
:104520009D81FC01208380912D17882309F0BFC055
:104530008A819B81FC01848595859F838E838A81F6
:104540009B81FC01868197812A813B81F90120852D
:104550003185FC01378326838A819B81FC0180851C
:1045600091852A813B81F90126813781FC013583C0
:1045700024838E819F81FC01218132818A819B81EC
:1045800002962817390751F48A819B81FC01208506
:1045900031858E819F81FC01328321838A819B81B9
:1045A000FC01158614868E819F81FC0180812FEF8E
:1045B000280F8E819F81FC0120838A819B81FC01D1
:1045C000928D80911E17891730F48A819B81FC019E
:1045D000828D80931E178A819B81FC01828D282FFA
:1045E00030E04BE0429FC001439F900D112485585D
:1045F000994EFC0180819181998788878A819B816E
:1046000028853985FC013783268388859985FC01B7
:10461000268137818A819B81FC01318720878885AB
:104620009985FC01868197812A813B812E5F3F4FCE
:10463000FC01358324838A819B819C012E5F3F4F3F
:1046400088859985FC01378326838A819B81FC01BB
:10465000828D282F30E04BE0429FC001439F900D98
:1046600011249C012658394E8A819B81FC01358793
:1046700024878A819B81FC01828D882F90E04BE00A
:10468000489F9001499F300D11242658394EF90159
:10469000208141E0420F5BE0589F9001599F300D0F
:1046A0001124C9018658994EFC01408339C080917C
:1046B0000317909104179B878A878A819B812A859B
:1046C0003B85FC01338B228B8A859B85FC012681EF
:1046D00037818A819B81FC01358B248B8A859B8560
:1046E000FC01868197812A813B81225F3F4FFC013B
:1046F000358324838A819B819C01225F3F4F8A8579
:104700009B85FC01378326838A819B8122E037E1E8
:10471000FC01318F208F809102178F5F80930217E9
:104720008A819B81FC01228D809178169091791667
:10473000FC01828D821730F481E0898381E08093CF
:10474000241701C0198289812D960FB6F894DEBF17
:104750000FBECDBFDF91CF910895CF93DF93CDB73B
:10476000DEB72E970FB6F894DEBF0FBECDBF9A8787
:1047700089874B875C876D877E878B859C85AD8518
:10478000BE85B06829853A85F90180839183A2832B
:10479000B38389859A85FC01808591859A83898375
:1047A00089859A85FC01828593859C838B83898585
:1047B0009A85FC018481958129853A85F9012681B4
:1047C0003781FC013783268389859A85FC018681A0
:1047D000978129853A85F90124813581FC0135834A
:1047E00024838B819C81FC012181328189859A857A
:1047F0002817390751F489859A85FC01268137816C
:104800008B819C81FC013283218389859A85FC01FF
:10481000138612868B819C81FC0180812FEF280FEB
:104820008B819C81FC01208389819A81FC01848594
:1048300095859E838D8389819A81FC0186819781EC
:1048400029813A81F90120853185FC01378326834E
:1048500089819A81FC018085918529813A81F901BC
:1048600026813781FC01358324838D819E81FC0163
:104870002181328189819A8102962817390751F462
:1048800089819A81FC01208531858D819E81FC0181
:104890003283218389819A81FC01158614868D815A
:1048A0009E81FC0180812FEF280F8D819E81FC016C
:1048B000208389819A81FC01928D80911E1789172E
:1048C00030F489819A81FC01828D80931E17898141
:1048D0009A81FC01828D282F30E04BE0429FC0017D
:1048E000439F900D11248558994EFC018081918140
:1048F00098878F8389819A812F813885FC0137833E
:1049000026838F819885FC012681378189819A8150
:10491000FC01318720878F819885FC0186819781F2
:1049200029813A812E5F3F4FFC01358324838981A1
:104930009A819C012E5F3F4F8F819885FC013783C0
:10494000268389819A81FC01828D282F30E04BE0FB
:10495000429FC001439F900D11249C012658394E5F
:1049600089819A81FC013587248789819A81FC019C
:10497000828D882F90E04BE0489F9001499F300D39
:1049800011242658394EF901208141E0420F5BE0A5
:10499000589F9001599F300D1124C9018658994E96
:1049A000FC01408389819A81FC01228D80917816D7
:1049B00090917916FC01828D821718F481E0809322
:1049C000241700002E960FB6F894DEBF0FBECDBFA1
:1049D000DF91CF910895CF93DF931F921F92CDB7B0
:1049E000DEB79A8389830FB6F8940F92209125172A
:1049F00089819A81FC01208380911A1790911B175D
:104A0000A0911C17B0911D1729813A81F90181836A
:104A10009283A383B4830F900FBE00000F900F907A
:104A2000DF91CF910895CF93DF931F921F92CDB75F
:104A3000DEB79A8389832091251789819A81FC01A9
:104A4000208380911A1790911B17A0911C17B09189
:104A50001D1729813A81F90181839283A383B4834D
:104A600000000F900F90DF91CF910895EF92FF9289
:104A70000F931F93CF93DF93CDB7DEB72D970FB66C
:104A8000F894DEBF0FBECDBF9B878A877D876C877A
:104A90000FB6F8940F9280911A1790911B17A0915E
:104AA0001C17B0911D178A839B83AC83BD838A85B5
:104AB0009B85FC0181819281A381B4812A813B8104
:104AC0004C815D8179018A01E81AF90A0A0B1B0BF6
:104AD000D801C7018E839F83A887B9878A859B8564
:104AE000FC019081809125179817D1F08A859B85CC
:104AF000FC0121813281438154818A819B81AC8177
:104B0000BD8182179307A407B50750F081E0898320
:104B10008C859D85FC01108211821282138238C01F
:104B20008C859D85FC0120813181428153818E815C
:104B30009F81A885B98582179307A407B507F8F464
:104B40008C859D85FC0120813181428153818E813C
:104B50009F81A885B98579018A01E81AF90A0A0BAB
:104B60001B0BD801C7012C853D85F90180839183FA
:104B7000A283B3838A859B8556DF198209C08C8501
:104B80009D85FC01108211821282138281E089834B
:104B90000F900FBE89812D960FB6F894DEBF0FBE21
:104BA000CDBFDF91CF911F910F91FF90EF900895AE
:104BB000CF93DF93CDB7DEB781E080932417000059
:104BC000DF91CF910895CF93DF931F92CDB7DEB7DA
:104BD000198210C08981282F30E04BE0429FC0012C
:104BE000439F900D11248658994E0E94960B8981FF
:104BF0008F5F898389818A3068F388EE96E10E940D
:104C0000960B83EF96E10E94960B82E097E10E945B
:104C1000960B8DE097E10E94960B88EE96E19093BB
:104C2000FF168093FE1683EF96E190930117809311
:104C3000001700000F90DF91CF910895CF93DF937D
:104C40001F921F92CDB7DEB720C00FB6F8940F9217
:104C50008091141790911517FC01808591859A8396
:104C6000898389819A8102960E946A0C8091191722
:104C700081508093191780911817815080931817CD
:104C80000F900FBE89819A810AD0809118178823CE
:104C9000E1F600000F900F90DF91CF910895CF9330
:104CA000DF931F921F92CDB7DEB79A8389838981E4
:104CB0009A81FC01838D948D0E94F30989819A81E8
:104CC0000E94F30900000F900F90DF91CF9108959B
:104CD000CF93DF93CDB7DEB78091FE169091FF168C
:104CE000FC018081882361F48FEF9FEFDC018093CA
:104CF000271790932817A0932917B0932A1714C049
:104D00008091FE169091FF16FC0187819085FC0131
:104D100080819181A281B381809327179093281776
:104D2000A0932917B0932A170000DF91CF9108951F
:104D3000CF93DF931F921F92CDB7DEB78091781685
:104D4000909179169A83898389819A810F900F9027
:104D5000DF91CF910895CF93DF931F92CDB7DEB748
:104D600080911F17882319F481E0898308C08091FE
:104D70002D17882319F482E0898301C01982898163
:104D80000F90DF91CF910895EF92FF920F931F93B1
:104D9000CF93DF93CDB7DEB727970FB6F894DEBF7A
:104DA0000FBECDBF9F838E838E819F819B838A831D
:104DB00019828E819F81892B09F4BFC08A819B81D2
:104DC000FC0186A52FEF280F8A819B81FC0126A775
:104DD0008A819B81FC01228D8A819B81FC0185A5B2
:104DE000281709F4AAC08A819B81FC0186A5882323
:104DF00009F0A3C08A819B8102960E946A0C8A8175
:104E00009B81FC0125A58A819B81FC01228F8A81DF
:104E10009B81FC01828D882F90E0A0E0B0E02AE029
:104E200030E040E050E079018A01E81AF90A0A0B03
:104E30001B0BD801C7012A813B81F901868797871F
:104E4000A08BB18B8A819B81FC01928D80911E1772
:104E5000891730F48A819B81FC01828D80931E1713
:104E60008A819B81FC01828D282F30E04BE0429F9C
:104E7000C001439F900D11248558994EFC018081FB
:104E800091819D838C838A819B812C813D81FC0152
:104E9000378326838C819D81FC01268137818A811D
:104EA0009B81FC01318720878C819D81FC0186815B
:104EB00097812A813B812E5F3F4FFC0135832483FC
:104EC0008A819B819C012E5F3F4F8C819D81FC01DB
:104ED000378326838A819B81FC01828D282F30E0D5
:104EE0004BE0429FC001439F900D11249C01265826
:104EF000394E8A819B81FC01358724878A819B8179
:104F0000FC01828D882F90E04BE0489F9001499FE3
:104F1000300D11242658394EF901208141E0420F0D
:104F20005BE0589F9001599F300D1124C9018658AC
:104F3000994EFC01408381E08983898127960FB6D1
:104F4000F894DEBF0FBECDBFDF91CF911F910F91BF
:104F5000FF90EF900895EF92FF920F931F93CF93DE
:104F6000DF9300D01F92CDB7DEB780917816909175
:104F70007916FC0186859785A089B18989839A83F2
:104F8000AB83BC8360917816709179168091781606
:104F900090917916FC01828D882F90E0A0E0B0E01E
:104FA0002AE030E040E050E079018A01E81AF90A8D
:104FB0000A0B1B0BD801C701FB0186879787A08BC3
:104FC000B18B89819A81AB81BC81BC01CD010F90ED
:104FD0000F900F900F90DF91CF911F910F91FF9045
:104FE000EF900895AF92BF92CF92DF92EF92FF922F
:104FF0000F931F93CF93DF93CDB7DEB760970FB6B4
:10500000F894DEBF0FBECDBF8A834B835C836D8374
:105010007E830F83188729873A87FC86EB86AD86C7
:10502000BE86CF86D88A0FB6F8940F922091781654
:10503000309179168A81882F90E0820F931FC39652
:10504000DC018C91823009F44FC060917816709128
:1050500079168A81E82FF0E08A81882F90E0880F06
:10506000991F880F991F860F971F8F96DC012D912E
:105070003D914D915C918B819C81AD81BE818095EC
:105080009095A095B09582239323A423B5239F01E7
:10509000220F331F220F331F260F371F215D3F4F73
:1050A000F90180839183A283B38320917816309194
:1050B00079168A81882F90E0820F931FC39621E092
:1050C000DC012C938D859E85AF85B889892B8A2B31
:1050D0008B2B51F08D859E85AF85B88941E0BC0151
:1050E000CD01B3D40E94870D0F900FBE0FB6F89478
:1050F0000F928B859C85892BD1F020917816309169
:1051000079168A81882F90E0880F991F880F991F40
:10511000820F931F8F96FC0180819181A281B381C0
:105120002B853C85F90180839183A283B3832091F1
:105130007816309179168A81882F90E0820F931F1C
:10514000C396DC018C91823011F0198232C06091DB
:105150007816709179168A81E82FF0E08A81882F7D
:1051600090E0880F991F880F991F860F971F8F96C1
:10517000DC012D913D914D915C918F819885A985A0
:10518000BA8580959095A095B09582239323A4230A
:10519000B5239F01220F331F220F331F260F371F06
:1051A000215D3F4FF90180839183A283B38381E026
:1051B000898320917816309179168A81882F90E022
:1051C000820F931FC396DC011C920F900FBE898142
:1051D00060960FB6F894DEBF0FBECDBFDF91CF91C2
:1051E0001F910F91FF90EF90DF90CF90BF90AF9005
:1051F0000895EF92FF920F93CF93DF93CDB7DEB771
:1052000062970FB6F894DEBF0FBECDBF9A8789872D
:105210006B872C873D874E875F87088BFA8AE98AE0
:1052200081E0898389859A859B838A830FB6F89468
:105230000F9289899A89892BC1F08B85882F90E0FC
:105240002A813B81880F991F880F991F820F931F16
:105250008F96FC0180819181A281B38129893A894D
:10526000F90180839183A283B3838B85882F90E09B
:105270002A813B81820F931FC396FC0180818C831E
:105280008B85882F90E02A813B81820F931FC396E4
:1052900022E0FC0120838889882F90E082309105EC
:1052A00009F43EC08330910534F4009709F492C0AC
:1052B000019749F090C08330910509F456C00497D6
:1052C00009F46BC088C08B85682F70E08B85882FB0
:1052D00090E02A813B81880F991F880F991F820FC8
:1052E000931F8F96FC0120813181428153818C85EF
:1052F0009D85AE85BF85822B932BA42BB52B4A8130
:105300005B819B01220F331F220F331F240F351F98
:10531000215D3F4FF90180839183A283B3835BC0FA
:105320008B85282F30E04A815B81C901880F991F46
:10533000880F991F840F951F8F96FC0180819181A2
:10534000A281B3810196A11DB11D4A815B81220F0B
:10535000331F220F331F240F351F215D3F4FF901EB
:1053600080839183A283B38336C08B85882F90E09E
:105370002A813B81880F991F880F991F820F931FE5
:105380009C01215D3F4F8C859D85AE85BF85F901D0
:1053900080839183A283B3831EC08C818230C1F04D
:1053A0008B85882F90E02A813B81880F991F880F79
:1053B000991F820F931F9C01215D3F4F8C859D8516
:1053C000AE85BF85F90180839183A283B38303C037
:1053D000198201C000008C81813009F0CCC08A8123
:1053E0009B81FC01848595859E838D838A819B8129
:1053F000FC01868197812A813B81F90120853185D5
:10540000FC01378326838A819B81FC0180859185FD
:105410002A813B81F90126813781FC013583248370
:105420008D819E81FC01218132818A819B8102963E
:105430002817390751F48A819B81FC012085318529
:105440008D819E81FC01328321838A819B81FC01B5
:10545000158614868D819E81FC0180812FEF280F97
:105460008D819E81FC0120838A819B81FC01928D2C
:1054700080911E17891730F48A819B81FC01828DEF
:1054800080931E178A819B81FC01828D282F30E03A
:105490004BE0429FC001439F900D11248558994EC7
:1054A000FC018081918198878F838A819B812F81E4
:1054B0003885FC01378326838F819885FC012681FE
:1054C00037818A819B81FC01318720878F81988574
:1054D000FC01868197812A813B812E5F3F4FFC0131
:1054E000358324838A819B819C012E5F3F4F8F816E
:1054F0009885FC01378326838A819B81FC01828DFC
:10550000282F30E04BE0429FC001439F900D1124B3
:105510009C012658394E8A819B81FC01358724875E
:105520008A819B81FC01828D882F90E04BE0489F0F
:105530009001499F300D11242658394EF9012081E0
:1055400041E0420F5BE0589F9001599F300D1124BC
:10555000C9018658994EFC0140838A819B81FC01D8
:10556000228D8091781690917916FC01828D821798
:1055700010F40E94870D0F900FBE898162960FB6BE
:10558000F894DEBF0FBECDBFDF91CF910F91FF909A
:10559000EF900895CF92DF92EF92FF920F93CF9307
:1055A000DF93CDB7DEB767970FB6F894DEBF0FBEB7
:1055B000CDBF9D878C876E872F87388B498B5A8B01
:1055C0000B8BFD8AEC8ADF8ACE8A81E089838C8509
:1055D0009D859B838A831C828C899D89892BC1F040
:1055E0008E85882F90E02A813B81880F991F880F34
:1055F000991F820F931F8F96FC0180819181A28158
:10560000B3812C893D89F90180839183A283B3837F
:105610008E85882F90E02A813B81820F931FC3964D
:10562000FC0180818D838E85882F90E02A813B81CB
:10563000820F931FC39622E0FC0120838B89882F61
:1056400090E08230910509F43EC08330910534F436
:10565000009709F492C0019749F090C083309105FA
:1056600009F456C0049709F46BC088C08E85682F72
:1056700070E08E85882F90E02A813B81880F991FEA
:10568000880F991F820F931F8F96FC012081318113
:10569000428153818F859889A989BA89822B932B5E
:1056A000A42BB52B4A815B819B01220F331F220F54
:1056B000331F240F351F215D3F4FF90180839183F4
:1056C000A283B3835BC08E85282F30E04A815B8143
:1056D000C901880F991F880F991F840F951F8F96F6
:1056E000FC0180819181A281B3810196A11DB11D30
:1056F0004A815B81220F331F220F331F240F351F76
:10570000215D3F4FF90180839183A283B38336C02B
:105710008E85882F90E02A813B81880F991F880F02
:10572000991F820F931F9C01215D3F4F8F859889A0
:10573000A989BA89F90180839183A283B3831EC0AA
:105740008D818230C1F08E85882F90E02A813B8147
:10575000880F991F880F991F820F931F9C01215D4D
:105760003F4F8F859889A989BA89F90180839183F0
:10577000A283B38303C0198201C000008D818130F0
:1057800009F015C180912D17882309F0BFC08A81C7
:105790009B81FC01848595859F838E838A819B8173
:1057A000FC01868197812A813B81F9012085318521
:1057B000FC01378326838A819B81FC01808591854A
:1057C0002A813B81F90126813781FC0135832483BD
:1057D0008E819F81FC01218132818A819B81029689
:1057E0002817390751F48A819B81FC012085318576
:1057F0008E819F81FC01328321838A819B81FC0100
:10580000158614868E819F81FC0180812FEF280FE1
:105810008E819F81FC0120838A819B81FC01928D76
:1058200080911E17891730F48A819B81FC01828D3B
:1058300080931E178A819B81FC01828D282F30E086
:105840004BE0429FC001439F900D11248558994E13
:10585000FC0180819181998788878A819B81288535
:105860003985FC013783268388859985FC0126814B
:1058700037818A819B81FC013187208788859985C2
:10588000FC01868197812A813B812E5F3F4FFC017D
:10589000358324838A819B819C012E5F3F4F8885BD
:1058A0009985FC01378326838A819B81FC01828D47
:1058B000282F30E04BE0429FC001439F900D112400
:1058C0009C012658394E8A819B81FC0135872487AB
:1058D0008A819B81FC01828D882F90E04BE0489F5C
:1058E0009001499F300D11242658394EF90120812D
:1058F00041E0420F5BE0589F9001599F300D112409
:10590000C9018658994EFC01408339C08091031724
:10591000909104179B878A878A819B812A853B8582
:10592000FC01338B228B8A859B85FC012681378184
:105930008A819B81FC01358B248B8A859B85FC01A8
:10594000868197812A813B81225F3F4FFC0135830D
:1059500024838A819B819C01225F3F4F8A859B859E
:10596000FC01378326838A819B8122E037E1FC0199
:10597000318F208F809102178F5F809302178A8169
:105980009B81FC01228D8091781690917916FC0103
:10599000828D821760F48E899F89892B29F08E89E8
:1059A0009F8921E0FC01208381E080932417898175
:1059B00067960FB6F894DEBF0FBECDBFDF91CF91D3
:1059C0000F91FF90EF90DF90CF900895CF93DF93EA
:1059D00000D000D0CDB7DEB79D838C836E838C81E1
:1059E0009D81892B29F4809178169091791602C0B7
:1059F0008C819D819B838A830FB6F8940F928E8150
:105A0000882F90E02A813B81820F931FC396FC016F
:105A10008081823069F48E81882F90E02A813B81D9
:105A2000820F931FC396FC01108281E0898301C01D
:105A300019820F900FBE898126960FB6F894DEBFAB
:105A40000FBECDBFDF91CF910895CF93DF93CDB738
:105A5000DEB72D970FB6F894DEBF0FBECDBF6987B6
:105A60007A878B879C874D8780911A1790911B1797
:105A7000A0911C17B0911D1789839A83AB83BC83B7
:105A8000809178169091791602960E946A0C29816D
:105A90003A814B815C8189859A85AB85BC85820F73
:105AA000931FA41FB51F8D839E83AF83B88720915A
:105AB0007816309179168D819E81AF81B885F90174
:105AC00082839383A483B5832D813E814F81588542
:105AD00089819A81AB81BC81281739074A075B0706
