:1000000002C1000021C100001FC100001DC100008D
:100010001BC1000019C1000017C1000015C100007C
:1000200013C1000011C100000FC100000DC100008C
:100030000C94291109C1000007C1000005C100008E
:1000400003C1000001C10000FFC00000FDC00000AE
:10005000FBC00000F9C00000F7C00000F5C00000C0
:10006000F3C000000C9461420C94B342EDC0000058
:10007000EBC00000E9C00000E7C00000E5C00000E0
:10008000E3C00000E1C00000DFC00000DDC00000F0
:100090000C94F7420C944943D7C000000C94944749
:1000A000D3C00000D1C00000CFC00000CDC0000010
:1000B000CBC00000C9C00000C7C00000C5C0000020
:1000C000C3C00000C1C00000BFC000000C948D433D
:1000D0000C94DF43B9C000000C9423440C94754485
:1000E000B3C00000C636C636C63625373037673748
:1000F000C636C63625373037B647264826482648FE
:100100002648264826482648B647264826482648F0
:100110002648264826482648B847264826482648DE
:10012000264826482648264826482648264826485F
:100130002648264826482648B847264826482648BE
:10014000264826482648264826482648264826483F
:100150002648264826482648224826482648264833
:100160002648264826482648ED4726482648264859
:10017000264826482648264826482648264826480F
:100180002648264826482648E14726482648264845
:1001900026482648264826480548CF93DF931F92D5
:1001A0001F92CDB7DEB79A8389830E94DE298091A2
:1001B000F817823010F00E943E100E949438F5CF5C
:1001C000CF93DF93CDB7DEB727970FB6F894DEBF96
:1001D0000FBECDBF9F838E83CE0105960E945835FA
:1001E000DC01CB0189839A83AB83BC832D81898118
:1001F0009A81AB81BC81422FBC01CD010E94D934D0
:100200000E947F36E9CF11241FBECFEFD1E2DEBFBF
:10021000CDBF00E00CBF1AE0A0E0B2E0E6EDFCE9E3
:1002200000E00BBF02C007900D92A433B107D9F7CD
:100230002AE1A4E3BAE001C01D92A033B207E1F7BE
:100240000E94093A0C94694EDBCECF92DF92EF9276
:10025000FF920F931F93CF93DF93CDB7DEB76C97C9
:100260000FB6F894DEBF0FBECDBF9C8F8B8F8091F1
:10027000221A9091231A45E050E060E070E00E945D
:10028000390A8091201A9091211ACC24CA94DC2C2E
:10029000760101E021E04AE050E060E070E0B2D792
:1002A000DC01CB0189839A83AB83BC8389819A81EA
:1002B000AB81BC818A709927AA27BB27892B8A2BFF
:1002C0008B2B09F443C082E292E00E945E4BC9D0BE
:1002D0007C01A3D68C01ACD62F2D2F932E2D2F93DE
:1002E000212F2F93202F2F93292F2F938F9385E347
:1002F00092E0892F8F9385E392E08F930E944B4B7E
:100300008DB79EB708960FB6F894DEBF0FBECDBF6F
:100310008FD69BD282D685D2A4D0ABD2CE01059601
:1003200062E0BBD280911E1A90911F1ABE016B5FD2
:100330007F4F0FEF1FEF980146E150E00E945F18DA
:1003400060E17DE180E090E00E941C2063E070E0CD
:1003500080E090E00E941C208ACFEF92FF920F93E2
:10036000CF93DF931F92CDB7DEB78983E12CF12CB9
:10037000098120E030E040EC50E06EE672E085E27A
:1003800091E00E94301D00000F90DF91CF910F91FE
:10039000FF90EF900895CF93DF93CDB7DEB783E062
:1003A0000E9493408DE192E00E94B8400000DF91EE
:1003B000CF910895CF92DF92EF92FF920F93CF9358
:1003C000DF9300D000D0CDB7DEB79E838D838091C0
:1003D000221A9091231ACC24CA94DC2C760101E0D5
:1003E00021E044E050E060E070E00CD7DC01CB019C
:1003F00089839A83AB83BC8389819A81AB81BC81D9
:1004000084709927AA27BB27892B8A2B8B2BF9F27B
:1004100086E792E00E945E4B2FD08091201A909147
:10042000211A48E050E060E070E00E94390A60E084
:1004300070E0CB010E941C20CACFCF93DF931F92A4
:100440001F92CDB7DEB79A83898389819A81909371
:10045000350A8093340A00000F900F90DF91CF91FE
:100460000895CF93DF93CDB7DEB78091340A909192
:10047000350ADF91CF910895CF93DF93CDB7DEB7E3
:100480000E94BD408093FD198091FD19882359F089
:1004900088E892E0892F8F9388E892E08F930E94FA
:1004A0004B4B0F900F900000DF91CF910895EF928A
:1004B000FF920F93CF93DF931F92CDB7DEB789835F
:1004C0006ADFE12CF12C098120E030E040EC50E0C3
:1004D0006DEA72E08AED91E00E94301D00000F90FD
:1004E000DF91CF910F91FF90EF9008950F93CF93ED
:1004F000DF93CDB7DEB785EB92E00E945E4B88EECE
:1005000093E09093051A8093041A8AE190E0909307
:10051000031A8093021A8091021A9091031A292FCC
:100520002F938F9387EC92E0892F8F9387EC92E043
:100530008F930E944B4B0F900F900F900F9088EE6F
:1005400093E09093FF198093FE1981E00E946E1250
:100550009093011A8093001A8091001A9091011AC9
:1005600000E020E030E0A90160E070E00E948C1221
:100570000000DF91CF910F910895CF93DF93CDB716
:10058000DEB78091041A9091051ADF91CF910895FA
:10059000CF93DF93CDB7DEB78091021A9091031A03
:1005A000DF91CF910895CF93DF93CDB7DEB78091E0
:1005B000FE199091FF19DF91CF910895CF93DF93AA
:1005C0001F921F92CDB7DEB79A83898389819A8162
:1005D0009093051A8093041A00000F900F90DF91FA
:1005E000CF910895CF93DF931F921F92CDB7DEB7BF
:1005F0009A83898389819A819093031A8093021A3E
:1006000000000F900F90DF91CF910895CF93DF936B
:100610001F921F92CDB7DEB79A83898389819A8111
:100620009093FF198093FE1900000F900F90DF91B7
:10063000CF910895EF92FF920F931F93CF93DF9383
:100640001F921F92CDB7DEB786E190E00E94940B17
:100650009A83898389819A81892BB1F389819A81CF
:1006600022E0FC01208389819A8126E0FC0121831C
:100670008091241A9091251A0FEF1FEF980146E1FF
:1006800050E0BE016F5F7F4F0E94461A89819A81B8
:10069000FC018181282F30E089819A81FC018081D1
:1006A000882F90E0432F4F932F93292F2F938F93D1
:1006B00088ED92E0892F8F9388ED92E08F930E94CE
:1006C0004B4B0F900F900F900F900F900F908981D0
:1006D0009A81FC018181882309F47EC08091001AEF
:1006E0009091011A4AE050E060E070E00E945914D5
:1006F000813009F066C08EE093E0892F8F938EE001
:1007000093E08F930E944B4B0F900F9089819A81B9
:10071000FC018281282F30E089819A81FC0183814C
:10072000882F90E0820F931F49DF89819A81FC0115
:100730008481282F30E089819A81FC018581882F6E
:1007400090E0820F931F62DF89819A81FC0186818C
:10075000282F30E089819A81FC018681882F90E0E2
:10076000820F931F3FDF14DF7C011DDF8C0105DF4B
:100770002F2D2F932E2D2F93212F2F93202F2F931B
:10078000292F2F938F938EE193E0892F8F938EE102
:1007900093E08F930E944B4B8DB79EB708960FB690
:1007A000F894DEBF0FBECDBF8091001A9091011A60
:1007B00000E020E030E0A90160E070E00E948C12CF
:1007C0000BC089E493E0892F8F9389E493E08F93A2
:1007D0000E944B4B0F900F9066E070E080E090E03D
:1007E0000E941C2031CFEF92FF920F93CF93DF93A3
:1007F0001F92CDB7DEB78983E12CF12C098120E06F
:1008000030E040EC50E06EE773E08AE193E00E9454
:10081000301D00000F90DF91CF910F91FF90EF906E
:100820000895CF93DF931F921F92CDB7DEB79A83BF
:10083000898389819A819093390A8093380A0000CC
:100840000F900F90DF91CF910895CF93DF931F9278
:100850001F92CDB7DEB79A83898389819A8190935D
:10086000370A8093360A00000F900F90DF91CF91E6
:100870000895CF93DF931F921F92CDB7DEB79A836F
:10088000898389819A819093350A8093340A000084
:100890000F900F90DF91CF910895CF93DF9300D009
:1008A0001F921F92CDB7DEB79C838B836D8386E149
:1008B00090E03AD79A83898389819A81892B09F4B8
:1008C00046C089819A812D81FC01208389819A818A
:1008D00026E0FC0121838091340A9091350A892F0A
:1008E0009927282F89819A81FC0122838091340ADB
:1008F0009091350A282F89819A81FC012383809168
:10090000380A9091390A892F9927282F89819A814D
:10091000FC0124838091380A9091390A282F89811B
:100920009A81FC0125838091360A9091370A892F9C
:100930009927282F89819A81FC0126838091360A84
:100940009091370A282F89819A81FC0127838B8116
:100950009C8129813A8146E1F901DC0101900D92E7
:100960004A95E1F78B819C810F900F900F900F902B
:100970000F90DF91CF910895EF92FF920F93CF9355
:10098000DF931F92CDB7DEB78983E12CF12C09816B
:1009900020E030E048E851E06CE873E083E196E065
:1009A0000E94301D00000F90DF91CF910F91FF90BA
:1009B000EF900895CF93DF93CDB7DEB766970FB66C
:1009C000F894DEBF0FBECDBF81E00E942C460E948E
:1009D0003A3D0E94B73F292F2F938F9388EA93E0E7
:1009E000892F8F9388EA93E08F930E944B4B0F904F
:1009F0000F900F900F900E94B83E0E94B73F292F92
:100A00002F938F938BEB93E0892F8F938BEB93E056
:100A10008F930E944B4B0F900F900F900F90CE0131
:100A200003960E944C3D8A838A810E94B73F9C01B5
:100A3000CE010396492F4F938F93832F8F93822F4D
:100A40008F9384ED93E0892F8F9384ED93E08F93C0
:100A50000E944B4B0F900F900F900F900F900F90A4
:100A6000CE0103960E94683D0E94B73F292F2F9325
:100A70008F93CE010396292F2F938F9388EE93E0C7
:100A8000892F8F9388EE93E08F930E944B4B0F90AA
:100A90000F900F900F900F900F90CE010396AC0126
:100AA0006DEF73E08EE194E00E94963F0E94B73FA5
:100AB000292F2F938F93CE010396292F2F938F9356
:100AC0008DEF93E0892F8F938DEF93E08F938EE1DD
:100AD00094E0892F8F938EE194E08F938FE294E0DE
:100AE000892F8F938FE294E08F930E944B4B8DB7A9
:100AF0009EB70A960FB6F894DEBF0FBECDBF0E9418
:100B00009B3D0E94B73F292F2F938F9385E694E05A
:100B1000892F8F9385E694E08F930E944B4B0F9023
:100B20000F900F900F9081E00E94953E0E94B73F7A
:100B3000292F2F938F9384E794E0892F8F9384E755
:100B400094E08F930E944B4B0F900F900F900F905B
:100B500084EF91E00E94A03E0E94B73F292F2F937F
:100B60008F9381E08F9384EF8F9385E994E0892FB1
:100B70008F9385E994E08F930E944B4B0F900F90D9
:100B80000F900F900F900F908AE0898380E00E9471
:100B9000A13D8A838A810E94B73F9C018981882F69
:100BA00090E0432F4F932F93292F2F938F9385EB13
:100BB00094E0892F8F9385EB94E08F930E944B4BA9
:100BC0000F900F900F900F900F900F908A818830A8
:100BD00081F080E00E94904666E371E080E090E062
:100BE0000E941C208981815089838981882371F624
:100BF00001C000008A81883021F481E00E947246A1
:100C000009C081E00E94814680E00E944F460E9418
:100C10003E10FDCF66960FB6F894DEBF0FBECDBF77
:100C2000DF91CF9108950F931F93CF93DF93CDB7AB
:100C3000DEB72A970FB6F894DEBF0FBECDBF9A87F6
:100C4000898781E00E942C3D62E070E080E090E0C6
:100C50000E941C2080E00E942C3D66E970E080E04C
:100C600090E00E941C200E94E53CA4DE88E89EE003
:100C7000A0E0B0E089839A83AB83BC830E942B22DF
:100C8000DC01CB018D839E83AF83B88789819A81F4
:100C9000AB81BC819E012B5F3F4FAC01BD01C901FF
:100CA0000E94601F80911E1A90911F1A0FEF1FEF74
:100CB000980146E150E066E07AE10E94461A83E03E
:100CC0000E94A24666E07AE180E00E94CA3D0E944E
:100CD000B73F292F2F938F9385ED94E0892F8F9322
:100CE00085ED94E08F930E944B4B0F900F900F90E7
:100CF0000F90CCCFCF93DF93CDB7DEB70E940441E6
:100D000010921D1A10921C1A0000DF91CF910895C5
:100D1000CF93DF93CDB7DEB760E580E00E94EC4073
:100D200081E090E090931D1A80931C1A0000DF91DF
:100D3000CF910895CF93DF93CDB7DEB760E080E029
:100D40000E94EC4010921D1A10921C1A0000DF91B4
:100D5000CF910895CF92DF92EF92FF920F931F935E
:100D6000CF93DF9300D000D0CDB7DEB79E838D83C5
:100D70008091201A9091211ACC24CA94DC2C7601FF
:100D800001E021E04AE050E060E070E03BD2DC01AD
:100D9000CB0189839A83AB83BC8389819A81AB81A0
:100DA000BC818A709927AA27BB27892B8A2B8B2B7A
:100DB000F9F28091001A9091011A42E350E060E04C
:100DC00070E00E945914813009F08CC031D18C013F
:100DD000DFDB212F2F93202F2F93292F2F938F93FA
:100DE0008AEE94E0892F8F938AEE94E08F930E948D
:100DF0004B4B0F900F900F900F900F900F90C8DB00
:100E00008C0116D19C01ADECBCEC0E94B8499695C2
:100E1000879596958795969587958017910710F5F4
:100E2000C2DB8C01FAD09C01ADECBCEC0E94B8494D
:100E300096958795969587959695879580179107AE
:100E400088F49BDB8C010DDB9C01ADECBCEC0E94BB
:100E5000B849969587959695879596958795801725
:100E6000910708F155DF80911C1A90911D1A292FC6
:100E70002F938F9385E095E0892F8F9385E095E000
:100E80008F930E944B4B0F900F900F900F9085E126
:100E900095E0892F8F9385E195E08F930E944B4BCE
:100EA0000F900F9012C080911C1A90911D1A0197FB
:100EB00061F440DF86E295E0892F8F9386E295E02A
:100EC0008F930E944B4B0F900F908091001A90913E
:100ED000011A00E020E030E0A90160E070E00E942B
:100EE0008C1204C087E395E00E945E4B68E87EE0C8
:100EF00080E090E00E941C203BCFEF92FF920F9386
:100F0000CF93DF931F92CDB7DEB78983E12CF12C0D
:100F1000098120E030E040EC50E06CE675E08AEAC0
:100F200096E00E94301D00000F90DF91CF910F914D
:100F3000FF90EF900895CF93DF93CDB7DEB741D107
:100F40009093211A8093201A3CD19093231A809376
:100F5000221A0000DF91CF910895CF93DF93CDB790
:100F6000DEB741E060E070E08CE290E00E946E1736
:100F700090931F1A80931E1A80911E1A90911F1A27
:100F8000892B61F481E895E0892F8F9381E895E0C2
:100F90008F930E944B4B0F900F900BC082EB95E00C
:100FA000892F8F9382EB95E08F930E944B4B0F908C
:100FB0000F900000DF91CF910895CF93DF93CDB7CD
:100FC000DEB741E060E070E08CE290E00E946E17D6
:100FD0009093251A8093241A8091241A9091251AAF
:100FE000892B61F48DED95E0892F8F938DED95E040
:100FF0008F930E944B4B0F900F900BC080E196E0B7
:10100000892F8F9380E196E08F930E944B4B0F9036
:101010000F900000DF91CF910895CF93DF93CDB76C
:10102000DEB78091380A9091390ADF91CF91089507
:10103000CF93DF93CDB7DEB78091360A9091370A10
:10104000DF91CF910895CF93DF931F92CDB7DEB795
:101050000E944E3B89838981882329F48DE396E0A1
:101060000E945E4B04C080E696E00E945E4B00004A
:101070000F90DF91CF910895CF93DF93CDB7DEB777
:101080000E94663B882321F08AE796E00E945E4B2F
:1010900063E070E080E090E00E941C200E947B3BB7
:1010A000882321F08AE996E00E945E4B61E070E0BF
:1010B00080E090E00E941C200000DF91CF91089515
:1010C000CF92DF92EF92FF920F93CF93DF9300D0F6
:1010D00000D0CDB7DEB79E838D838091221A909188
:1010E000231ACC24CA94DC2C760101E021E041E0F3
:1010F00050E060E070E086D0DC01CB0189839A8308
:10110000AB83BC8389819A81AB81BC818170992733
:10111000AA27BB27892B8A2B8B2B71F18FEB96E0AB
:101120000E945E4BA9DF0E94C33B9093370A8093D5
:10113000360A0E94A03B9093390A8093380A809126
:10114000360A9091370A292F2F938F9384ED96E0DA
:10115000892F8F9384ED96E08F930E944B4B0F90D5
:101160000F900F900F908091201A9091211A42E0D9
:1011700050E060E070E07DD160E070E0CB010E9463
:101180001C20ABCFEF92FF920F93CF93DF931F9270
:10119000CDB7DEB7898357DFE12CF12C098120E040
:1011A00030E040EC50E065EE76E080E698E00E94AA
:1011B000301D00000F90DF91CF910F91FF90EF90C5
:1011C0000895CF93DF931F921F92CDB7DEB78FE0C4
:1011D00090E0AAD29A83898389819A81892B59F0D8
:1011E00089819A81FC011082118212821382898185
:1011F0009A81049652D589819A810F900F90DF9140
:10120000CF910895CF92DF92EF92FF920F931F93A9
:10121000CF93DF93CDB7DEB76D970FB6F894DEBFEF
:101220000FBECDBF9B8B8A8B4C8B5D8B6E8B7F8B68
:10123000288F098FCA8EDB8EEC8EFD8E8A899B8962
:101240009A8789871D821E821F8218861B860E94AC
:101250008F2089859A85FC0180819181A281B3814B
:101260008C879D87AE87BF872C893D894E895F8992
:101270008C859D85AE85BF85098DBC01CD0107D2CA
:10128000888B8889882359F18C859D85AE85BF859B
:1012900089839A83AB83BC831A8E1B8E1C8E1D8E12
:1012A000888D882309F465C089859A85FC01208191
:1012B0003181428153818C899D89AE89BF89809516
:1012C0009095A095B09582239323A423B5232985D7
:1012D0003A85F90180839183A283B3834AC08A8DC2
:1012E0009B8DAC8DBD8D892B8A2B8B2B59F48C85D6
:1012F0009D85AE85BF8589839A83AB83BC8381E05E
:101300008B8737C0888D882349F08D819E81AF817E
:10131000B885B1608D839E83AF83B887898D88231C
:1013200049F08D819E81AF81B885B4608D839E83A5
:10133000AF83B8872C893D894E895F898D819E81D5
:10134000AF81B885822B932BA42BB52B29853A85A9
:10135000F90134962A8D3B8D4C8D5D8D89019A0162
:10136000AC01BD01CF010E94FF2419821A821B82A9
:101370001C820E949C20898B8A8D9B8DAC8DBD8D9B
:10138000892B8A2B8B2B09F45FC08989882309F468
:1013900075D60E94872DDC01CB0189839A83AB83AC
:1013A000BC8389819A81AB81BC8188279927AA2730
:1013B000B270892B8A2B8B2B09F03DC00FB6F894A5
:1013C0000F9289859A85FC0180819181A281B381E8
:1013D00089839A83AB83BC832C893D894E895F893D
:1013E00089819A81AB81BC81098DBC01CD014FD12E
:1013F0008823E9F0888D8823D1F089859A85FC01BE
:1014000020813181428153818C899D89AE89BF8938
:1014100080959095A095B09582239323A423B5231E
:1014200029853A85F90180839183A283B38381E082
:101430008B870F900FBE89819A81AB81BC81BB27BE
:1014400089839A83AB83BC8389819A81AB81BC8178
:10145000BC01CD016D960FB6F894DEBF0FBECDBFB7
:10146000DF91CF911F910F91FF90EF90DF90CF9080
:101470000895CF93DF93CDB7DEB76D970FB6F8948D
:10148000DEBF0FBECDBF998F888F4A8F5B8F6C8F69
:101490007D8F1B821C821D821E82888D998D99876B
:1014A00088871F828885998504969B878A878A8585
:1014B0009B8503969D878C870E948F208A859B85BC
:1014C000FC01878190859A83898388859985FC01B1
:1014D00020813181428153818A8D9B8DAC8DBD8D60
:1014E000822B932BA42BB52B28853985F90180837A
:1014F0009183A283B38395C089819A81FC01848101
:1015000095819F878E8789819A81FC018081918155
:10151000A281B381888B998BAA8BBB8B1F82888910
:101520009989AA89BB8988279927AA278C8B9D8BA3
:10153000AE8BBF8B88899989AA89BB89BB27888B89
:10154000998BAA8BBB8B8C899D89AE89BF89882793
:101550009927AA27B470892B8A2B8B2BB1F4888505
:101560009985FC0120813181428153818889998943
:10157000AA89BB8982239323A423B523892B8A2B91
:101580008B2BE9F081E08F831AC088859985FC0157
:10159000208131814281538188899989AA89BB89B7
:1015A000282339234A235B2388899989AA89BB89FF
:1015B000281739074A075B0711F481E08F838F8171
:1015C000882359F18C899D89AE89BF8988279927FD
:1015D000AA27B170892B8A2B8B2B81F02B813C8120
:1015E0004D815E8188899989AA89BB89822B932B39
:1015F000A42BB52B8B839C83AD83BE838885998573
:10160000FC0180819181A281B381B26029813A81FC
:10161000AC01BD01C9010E946D278E859F859A830B
:10162000898329813A818C859D852817390709F09E
:1016300063CF88859985FC01208131814281538166
:101640008B819C81AD81BE8180959095A095B09550
:1016500082239323A423B52328853985F901808328
:101660009183A283B3830E949C2088859985FC0185
:1016700080819181A281B381BC01CD016D960FB6AD
:10168000F894DEBF0FBECDBFDF91CF9108950F93C9
:10169000CF93DF93CDB7DEB72A970FB6F894DEBFAE
:1016A0000FBECDBF6A837B838C839D832E833F8354
:1016B000488759870A8719828A85882399F42A815D
:1016C0003B814C815D818E819F81A885B985822374
:1016D0009323A423B523892B8A2B8B2BD1F081E074
:1016E000898317C02A813B814C815D818E819F81D6
:1016F000A885B985282339234A235B238E819F81BE
:10170000A885B985281739074A075B0711F481E0D6
:10171000898389812A960FB6F894DEBF0FBECDBFAC
:10172000DF91CF910F910895CF93DF93CDB7DEB7BF
:101730002A970FB6F894DEBF0FBECDBF9A87898770
:101740001E821D820E948F208091EA179091EB17D4
:10175000892B09F46ED12091F4173091F517898502
:101760009A8582239323892B09F0E1C089859A8584
:10177000892BA1F024E030E089859A85280F391F54
:1017800089859A858217930748F484E090E029853B
:101790003A85820F931F9A87898702C01A86198615
:1017A00089859A85892B09F4C2C08091EC179091A4
:1017B000ED1729853A858217930708F4B8C086EE9D
:1017C00097E19C838B838091E6179091E7179A832A
:1017D00089830BC089819A819C838B8389819A81BB
:1017E000FC01808191819A83898389819A81FC019E
:1017F0002281338189859A852817390738F48981B0
:101800009A81FC0180819181892B21F78091EA17CF
:101810009091EB1729813A812817390709F487C07D
:101820008B819C81FC012081318184E090E0820FDA
:10183000931F9E838D8389819A81FC012081318150
:101840008B819C81FC013183208389819A81FC01F9
:101850002281338189859A85281B390B84E090E0A9
:10186000880F991F8217930700F529813A8189858E
:101870009A85820F931F98878F8389819A81FC01B3
:101880002281338189859A85281B390B8F81988520
:10189000FC013383228389819A8129853A85FC0161
:1018A000338322838F81988544D12091EC17309126
:1018B000ED1789819A81FC0182819381A901481BDE
:1018C000590BCA019093ED178093EC172091EC17F8
:1018D0003091ED178091EE179091EF172817390787
:1018E00040F48091EC179091ED179093EF1780934F
:1018F000EE1789819A81FC01228133818091F4174E
:101900009091F517282B392B89819A81FC0133831B
:10191000228389819A81FC01118210828091F017C3
:101920009091F11701969093F1178093F0170E9410
:101930009C208D819E81892B11F40E94C7388D8156
:101940009E812A960FB6F894DEBF0FBECDBFDF9101
:10195000CF910895CF93DF9300D000D0CDB7DEB7FD
:101960009E838D838D819E819A8389838D819E81C3
:10197000892B09F454C084E090E0919581959109F8
:1019800029813A81820F931F9A83898389819A8161
:101990009C838B838B819C81FC012281338180918C
:1019A000F4179091F51782239323892BC1F18B8132
:1019B0009C81FC0180819181892B89F58B819C819F
:1019C000FC01228133818091F4179091F517809565
:1019D0009095282339238B819C81FC0133832283BA
:1019E0000E948F208B819C81FC0122813381809118
:1019F000EC179091ED17820F931F9093ED17809342
:101A0000EC178B819C8195D08091F2179091F31700
:101A100001969093F3178093F2170E949C20000088
:101A200026960FB6F894DEBF0FBECDBFDF91CF91E3
:101A30000895CF93DF93CDB7DEB728970FB6F8940C
:101A4000DEBF0FBECDBF8CEA9DE09A8389838AE317
:101A50009AE09C838B838B819C819E838D838D8177
:101A60009E819093E7178093E6171092E9171092E2
:101A7000E8172D813E8189819A81820F931F9C8373
:101A80008B8384E090E02B813C81A901481B590B9A
:101A9000CA019C838B838B819C819093EB178093ED
:101AA000EA178091EA179091EB17FC0113821282DA
:101AB0008091EA179091EB17FC01118210828D81C1
:101AC0009E8198878F838F8198852B813C81281BED
:101AD000390B8F819885FC01338322832091EA178B
:101AE0003091EB178F819885FC01318320838F81A2
:101AF0009885FC01828193819093EF178093EE1774
:101B00008F819885FC01828193819093ED1780935A
:101B1000EC1780E090E89093F5178093F41700009D
:101B200028960FB6F894DEBF0FBECDBFDF91CF91E0
:101B30000895CF93DF9300D000D0CDB7DEB79E835A
:101B40008D8386EE97E19A83898307C089819A8184
:101B5000FC01808191819A83898389819A81FC012A
:101B6000208131818D819E812817390778F3898101
:101B70009A819C838B8389819A81FC0182819381E4
:101B80002B813C81280F391F8D819E8128173907B1
:101B9000A9F489819A81FC01228133818D819E8102
:101BA000FC0182819381280F391F89819A81FC0170
:101BB0003383228389819A819E838D838D819E8147
:101BC0009C838B838D819E81FC01828193812B81FB
:101BD0003C81280F391F89819A81FC018081918184
:101BE00028173907C1F589819A81FC01208131814B
:101BF0008091EA179091EB172817390711F18D8121
:101C00009E81FC012281338189819A81FC0180813E
:101C10009181FC0182819381280F391F8D819E81E2
:101C2000FC013383228389819A81FC018081918127
:101C3000FC01208131818D819E81FC0131832083D3
:101C400014C02091EA173091EB178D819E81FC0121
:101C5000318320830AC089819A81FC0120813181EE
:101C60008D819E81FC013183208329813A818D8180
:101C70009E812817390739F089819A812D813E810B
:101C8000FC0131832083000026960FB6F894DEBF56
:101C90000FBECDBFDF91CF910895CF93DF931F92F9
:101CA0001F92CDB7DEB79A83898389819A819C017F
:101CB0002D5F3F4F89819A81FC01328321832981E5
:101CC0003A818FEF9FEFDC01F90183839483A58331
:101CD000B68389819A819C012D5F3F4F89819A81CA
:101CE000FC013087278389819A819C012D5F3F4FBA
:101CF00089819A81FC013287218789819A81FC013F
:101D0000108200000F900F90DF91CF910895CF9334
:101D1000DF931F921F92CDB7DEB79A8389838981A3
:101D20009A81FC011386128600000F900F90DF91BC
:101D3000CF910895CF93DF93CDB7DEB72A970FB633
:101D4000F894DEBF0FBECDBF98878F837A876987EF
:101D500089859A85FC0180819181A281B3818B83E1
:101D60009C83AD83BE838B819C81AD81BE818F3F7F
:101D70009F4FAF4FBF4F41F48F819885FC01818504
:101D800092859A83898320C08F81988503969A8350
:101D9000898307C089819A81FC01848195819A8316
:101DA000898389819A81FC0184819581FC0120814C
:101DB0003181428153818B819C81AD81BE818217AB
:101DC0009307A407B50730F789819A81FC01248124
:101DD000358189859A85FC013583248389859A8597
:101DE000FC018481958129853A85FC01378326830E
:101DF00089859A8529813A81FC01378326838981E7
:101E00009A8129853A85FC013583248389859A85C1
:101E10002F813885FC01338722878F819885FC01CB
:101E2000808121E0280F8F819885FC0120830000AC
:101E30002A960FB6F894DEBF0FBECDBFDF91CF91CB
:101E40000895CF93DF9300D01F92CDB7DEB79C8368
:101E50008B838B819C81FC01828593859A83898306
:101E60008B819C81FC01848195812B813C81F901CE
:101E700026813781FC01378326838B819C81FC017D
:101E8000868197812B813C81F90124813581FC0178
:101E90003583248389819A81FC01218132818B8160
:101EA0009C812817390751F48B819C81FC01268184
:101EB000378189819A81FC01328321838B819C81C6
:101EC000FC011386128689819A81FC0180812FEFA3
:101ED000280F89819A81FC01208389819A81FC01E4
:101EE00080810F900F900F900F90DF91CF91089508
:101EF000CF93DF93CDB7DEB728970FB6F894DEBF48
:101F00000FBECDBF9C838B837E836D8358874F83A9
:101F10008D819E819A83898329818B819C81FC019B
:101F200020838B819C8101979C838B8389819A81FB
:101F3000892F99279A83898329818B819C81FC0130
:101F400020838B819C8101979C838B838B819C81D7
:101F5000FC0110828B819C8101979C838B838B81F8
:101F60009C81FC0110828B819C8101979C838B83D7
:101F70008B819C8120E8FC0120838B819C810197CF
:101F80009C838B838B819C81FC0110828B819C8143
:101F900001979C838B838B819C81FC0110828B81B8
:101FA0009C8101979C838B838B819C81FC01108297
:101FB0008B819C8147979C838B838F8198859A83A3
:101FC000898329818B819C81FC0120838B819C8169
:101FD00001979C838B8389819A81892F99279A8382
:101FE000898329818B819C81FC0120838B819C8149
:101FF00007979C838B838B819C8128960FB6F894DE
:10200000DEBF0FBECDBFDF91CF910895CF93DF9399
:10201000CDB7DEB7FFD0A091F617B091F717CD91ED
:10202000CDBFDD91DEBFFF91EF91DF91CF91BF91E9
:10203000AF919F918F917F916F915F914F913F9160
:102040002F911F910F91FF90EF90DF90CF90BF9055
:10205000AF909F908F907F906F905F904F903F9048
:102060002F901F900F900CBE0F900BBE0F900FBEC5
:102070000F90089581E0DF91CF9108950F920FB6F0
:10208000F8940F920BB60F920CB60F921F92112478
:102090002F923F924F925F926F927F928F929F9278
:1020A000AF92BF92CF92DF92EF92FF920F931F9366
:1020B0002F933F934F935F936F937F938F939F9350
:1020C000AF93BF93CF93DF93EF93FF93A091F61756
:1020D000B091F7170DB60D920EB60D920E944824DE
:1020E000A091F617B091F717CD91CDBFDD91DEBF6E
:1020F000FF91EF91DF91CF91BF91AF919F918F9120
:102100007F916F915F914F913F912F911F910F910F
:10211000FF90EF90DF90CF90BF90AF909F908F9007
:102120007F906F905F904F903F902F901F900F90F7
:102130000CBE0F900BBE0F900FBE0F9008950000C5
:102140000F920FB6F8940F920BB60F920CB60F9237
:102150001F9211242F923F924F925F926F927F9223
:102160008F929F92AF92BF92CF92DF92EF92FF92A7
:102170000F931F932F933F934F935F936F937F938F
:102180008F939F93AF93BF93CF93DF93EF93FF937F
:10219000A091F617B091F7170DB60D920EB60D92ED
:1021A00083E590E0FC0110820E944F22882311F009
:1021B0000E944824A091F617B091F717CD91CDBF9A
:1021C000DD91DEBFFF91EF91DF91CF91BF91AF9194
:1021D0009F918F917F916F915F914F913F912F913F
:1021E0001F910F91FF90EF90DF90CF90BF90AF9035
:1021F0009F908F907F906F905F904F903F902F9027
:102200001F900F900CBE0F900BBE0F900FBE0F9043
:1022100008950000CF93DF93CDB7DEB7A89580E097
:1022200090E088709927892B11F080EE01C080EC36
:1022300090E09770892B982F88E10FB6F894A895B5
:10224000809360000FBE909360000000DF91CF91FB
:10225000089576DF18950000CF93DF9300D01F928A
:102260001F92CDB7DEB79C838B836D838B819C815E
:102270009A8389830FB6F8940F9289819A81FC0121
:102280008081918129813A81F901278D422F50E087
:1022900029813A81F90120A1222F30E0429FB0012B
:1022A000439F700D529F700D11249B01280F391F01
:1022B00089819A81FC013583248389819A81FC017B
:1022C000168E89819A81FC012081318189819A81D0
:1022D000FC013383228389819A81FC012081318131
:1022E00089819A81FC01878D882F90E0BC01615023
:1022F000710989819A81FC0180A1482F50E0649F77
:10230000C001659F900D749F900D1124280F391FF7
:1023100089819A81FC013783268389819A812FEFF5
:10232000FC0121A389819A812FEFFC0122A38D81D9
:10233000882379F489819A81FC018085882389F03A
:1023400089819A8108960E94F825882351F096DEAB
:1023500008C089819A810896A0DC89819A81439678
:102360009CDC0F900FBE81E00F900F900F900F90AC
:102370000F90DF91CF9108950F931F93CF93DF9329
:10238000CDB7DEB729970FB6F894DEBF0FBECDBF2D
:102390008F83688749878F81482F50E08885282F51
:1023A00030E0429FC001439F900D529F900D112439
:1023B0009A83898389819A818396B6D99C838B83FA
:1023C0008B819C81892B99F08B819C819E838D834D
:1023D0008D819E8183969E838D832B813C818D810F
:1023E0009E8189012985AC0168858F810DD08B8103
:1023F0009C8129960FB6F894DEBF0FBECDBFDF914A
:10240000CF911F910F9108950F931F93CF93DF9357
:10241000CDB7DEB727970FB6F894DEBF0FBECDBF9E
:1024200089836A835C834B832D831F830E838A8118
:10243000882341F48E819F812E813F81FC0131836D
:10244000208307C08E819F812B813C81FC013183D9
:1024500020838E819F812981FC01278F8E819F811E
:102460002A81FC0120A38E819F8161E0F5DE0000BE
:1024700027960FB6F894DEBF0FBECDBFDF91CF9188
:102480001F910F9108950F93CF93DF931F921F9287
:10249000CDB7DEB79A83898389819A81892BB9F078
:1024A00089819A81FC011582148289819A81FC01BB
:1024B0001182108289819A81FC01168289819A8118
:1024C00000E020E030E0A90160E070E025D00000ED
:1024D0000F900F90DF91CF910F910895CF93DF93DD
:1024E00000D01F921F92CDB7DEB78D8381E0898324
:1024F0001A824D816A8189813FDF9C838B838B8126
:102500009C81C1DF8B819C810F900F900F900F9069
:102510000F90DF91CF9108950F93CF93DF93CDB7B5
:10252000DEB762970FB6F894DEBF0FBECDBF9B87B4
:102530008A877D876C872E873F87488B598B0A8BCC
:1025400019828A859B859B838A830FB6F8940F92A4
:102550008A819B81FC01268D8A819B81FC01878D6C
:10256000281718F08A898230F9F42C853D858A81F4
:102570009B814A89B901A6D28C838A819B81FC0107
:102580008389882349F08A819B8143960E94F8259C
:10259000882331F073DD04C08C81882309F06EDD5F
:1025A0000F900FBE81E064C08E859F85A889B98990
:1025B000892B8A2B8B2B21F40F900FBE80E058C003
:1025C0008981882331F4CE0105960E94D32881E0C9
:1025D00089830F900FBE0E948F200FB6F8940F9240
:1025E0008A819B81FC0181A18F3F21F48A819B819B
:1025F000FC0111A28A819B81FC0182A18F3F21F401
:102600008A819B81FC0112A20F900FBE9E01225F66
:102610003F4FCE010596B9010E94F628882311F597
:102620008A819B81EBD38823B9F08E859F85A88909
:10263000B9892A813B81285F3F4FAC01BD01C901A7
:102640000E94D4248A819B815ED30E949C2088238F
:1026500009F07BCF13DD79CF8A819B8154D30E940F
:102660009C2073CF8A819B814ED30E949C2080E066
:1026700062960FB6F894DEBF0FBECDBFDF91CF914B
:102680000F910895CF93DF93CDB7DEB72D970FB697
:10269000F894DEBF0FBECDBF98878F837A87698796
:1026A0005C874B872D878F8198859B838A831C82CB
:1026B0008A819B81FC01268D8A819B81FC01878D0B
:1026C000281718F08D858230A9F58A819B81FC013D
:1026D00082A18D838A819B81FC01868D8E832985D1
:1026E0003A858A819B814D85B901ECD18D818F3FDF
:1026F000B9F48A819B81FC0183898823C1F08A8196
:102700009B8143960E94F825882389F08B859C85C0
:10271000892B69F08B859C8521E0FC01208307C013
:102720008D818F5F282F8A819B81FC0122A381E00C
:10273000898301C0198289812D960FB6F894DEBF76
:102740000FBECDBFDF91CF910895CF93DF93CDB76B
:10275000DEB761970FB6F894DEBF0FBECDBF9B8783
:102760008A877D876C872E873F87488B598B198294
:102770008A859B859B838A830FB6F8940F928A8102
:102780009B81FC01868D8C838C818823F9F02C85BC
:102790003D858A819B81B90165D28C812FEF280FFD
:1027A0008A819B81FC01268F8A819B81FC01808527
:1027B000882341F08A819B8108960E94F82588230E
:1027C00009F05CDC0F900FBE81E06AC08E859F85AA
:1027D000A889B989892B8A2B8B2B21F40F900FBEE6
:1027E00080E05EC08981882331F4CE0105960E9485
:1027F000D32881E089830F900FBE0E948F200FB6EF
:10280000F8940F928A819B81FC0181A18F3F21F472
:102810008A819B81FC0111A28A819B81FC0182A19A
:102820008F3F21F48A819B81FC0112A20F900FBE81
:102830009E01225F3F4FCE010596B9010E94F62806
:10284000882311F58A819B81BCD28823B9F08E85BB
:102850009F85A889B9892A813B812D5E3F4FAC01B4
:10286000BD01C9010E94D4248A819B814CD20E945F
:102870009C20882309F080CF01DC7ECF8A819B8158
:1028800042D20E949C2078CF8A819B813CD20E94B8
:102890009C208A819B8195D2882309F46DCF80E0AA
:1028A00061960FB6F894DEBF0FBECDBFDF91CF911A
:1028B0000895CF93DF93CDB7DEB761970FB6F89445
:1028C000DEBF0FBECDBF9D878C874E875F87688B2D
:1028D000798B19828C859D859C838B831A820FB698
:1028E000F8940F928B819C81FC01868D8D838D8164
:1028F000882341F18D812FEF280F8B819C81FC0172
:10290000268F8B819C81FC0180819181892B41F4F0
:102910000E94CE2D9C018B819C81FC0135832483F8
:102920008B819C81FC018085882341F08B819C8177
:1029300008960E94F825882309F0A0DB0F900FBEAF
:1029400081E093C08E859F85A889B989892B8A2BC0
:102950008B2B21F40F900FBE80E087C089818823E4
:1029600031F4CE0107960E94D32881E089830F902D
:102970000FBE0E948F200FB6F8940F928B819C811E
:10298000FC0181A18F3F21F48B819C81FC0111A26C
:102990008B819C81FC0182A18F3F21F48B819C81E2
:1029A000FC0112A20F900FBE9E01225F3F4FCE018D
:1029B0000796B9010E94F628882309F036C08B815A
:1029C0009C81FFD1882359F18B819C81FC018081FE
:1029D0009181892B69F40FB6F8940F928B819C81B9
:1029E000FC01848195810E94842A8A830F900FBE06
:1029F0008E859F85A889B9892B813C812D5E3F4FAB
:102A0000AC01BD01C9010E94D4248B819C817BD182
:102A10000E949C20882309F062CF30DB60CF8B813D
:102A20009C8171D10E949C205ACF8B819C816BD15B
:102A30000E949C208B819C81C4D1882309F44FCFB4
:102A40008A81882389F00FB6F8940F928B819C813C
:102A500015D08E838B819C81FC01848195816E8150
:102A60000E94812C0F900FBE80E061960FB6F89403
:102A7000DEBF0FBECDBFDF91CF910895CF93DF931F
:102A800000D0CDB7DEB79B838A838A819B81FC010E
:102A90008389882379F08A819B81FC01828D938DC3
:102AA000FC0180819181A281B381982F8AE0891BEA
:102AB000898301C0198289810F900F900F90DF9157
:102AC000CF910895CF93DF93CDB7DEB727970FB699
:102AD000F894DEBF0FBECDBF9C838B837E836D8356
:102AE0004F8319828B819C81FC01868D8A838B8127
:102AF0009C81FC0180A18823B1F48B819C81FC0125
:102B000080819181892B09F09CC08B819C81FC0183
:102B1000848195810E949A2B89838B819C81FC0101
:102B2000158214828EC08F818823D9F58B819C8178
:102B3000FC0180A1482F50E08B819C81FC018281A7
:102B400093812D813E81B9010E94EC4A8B819C8149
:102B5000FC01228133818B819C81FC0180A1882F23
:102B600090E0280F391F8B819C81FC0133832283E5
:102B70008B819C81FC01228133818B819C81FC01B2
:102B8000848195812817390708F45BC08B819C816B
:102B9000FC01208131818B819C81FC013383228364
:102BA00050C08B819C81FC0180A1482F50E08B811B
:102BB0009C81FC01868197812D813E81B9010E9413
:102BC000EC4A8B819C81FC01268137818B819C8121
:102BD000FC0180A1882F90E0919581959109280FA3
:102BE000391F8B819C81FC01378326838B819C81DB
:102BF000FC01268137818B819C81FC018081918140
:102C000028173907A8F48B819C81FC012481358128
:102C10008B819C81FC0180A1882F90E0919581950A
:102C20009109280F391F8B819C81FC0137832683F2
:102C30008F81823031F48A81882319F08A81815012
:102C40008A838A8121E0280F8B819C81FC01268F59
:102C5000898127960FB6F894DEBF0FBECDBFDF91F6
:102C6000CF910895CF93DF9300D01F92CDB7DEB7F9
:102C70009A8389837C836B8389819A81FC0180A1FB
:102C80008823C9F189819A81FC0126813781898154
:102C90009A81FC0180A1882F90E0280F391F89813B
:102CA0009A81FC013783268389819A81FC012681E0
:102CB000378189819A81FC018481958128173907A0
:102CC00050F089819A81FC012081318189819A812A
:102CD000FC013783268389819A81FC0180A1482FDA
:102CE00050E089819A81FC01268137818B819C810A
:102CF000B9010E94EC4A00000F900F900F900F90C6
:102D0000DF91CF910895CF93DF9300D01F92CDB77D
:102D1000DEB79C838B830FB6F8940F928B819C81D6
:102D2000FC0182A1898312C08B819C81FC01838973
:102D3000882381F08B819C8143960E94F82588230B
:102D400011F00E9498298981815089838981181600
:102D50005CF301C000008B819C812FEFFC0122A35A
:102D60000F900FBE0FB6F8940F928B819C81FC01DF
:102D700081A18A8312C08B819C81FC01808588237C
:102D800081F08B819C8108960E94F825882311F0A0
:102D90000E9498298A8181508A838A8118165CF35F
:102DA00001C000008B819C812FEFFC0121A30F90BB
:102DB0000FBE00000F900F900F900F90DF91CF91FA
:102DC0000895CF93DF9300D0CDB7DEB79B838A837E
:102DD0000FB6F8940F928A819B81FC01868D88231F
:102DE00019F481E0898301C019820F900FBE898197
:102DF0000F900F900F90DF91CF910895CF93DF93B5
:102E000000D0CDB7DEB79B838A830FB6F8940F92BC
:102E10008A819B81FC01268D8A819B81FC01878DA3
:102E2000281719F481E0898301C019820F900FBE21
:102E300089810F900F900F90DF91CF910895CF93DC
:102E4000DF93CDB7DEB729970FB6F894DEBF0FBE7C
:102E5000CDBF9C838B834D835E836F837887298767
:102E60008B819C819A8389830FB6F8940F92898114
:102E70009A81FC0181A18F3F21F489819A81FC0113
:102E800011A289819A81FC0182A18F3F21F489815D
:102E90009A81FC0112A20F900FBE89819A81FC01D8
:102EA000868D882371F489819A81FC0173968D81C6
:102EB0009E81AF81B8852985AC01BD01CF010E94FB
:102EC000812589819A811FDF000029960FB6F89429
:102ED000DEBF0FBECDBFDF91CF9108950F93CF938B
:102EE000DF93CDB7DEB728970FB6F894DEBF0FBEDD
:102EF000CDBF9D838C837F836E8348878885813097
:102F000019F481E08B8301C01B828E819F81892B04
:102F100021F481E090E09F838E838C819D819C01D0
:102F2000205F3F4F8C819D818217930768F48C81CD
:102F30009D8101969D838C838C819D810F960E943B
:102F4000940B9A83898302C01A82198289819A819B
:102F5000892B69F089819A81BC01615F7F4F2E8145
:102F60003F814C815D8189819A810B8138D589812E
:102F70009A8128960FB6F894DEBF0FBECDBFDF91C1
:102F8000CF910F9108950F93CF93DF9300D01F92AD
:102F90001F92CDB7DEB79D838C838C819D819B83EF
:102FA0008A8319820FB6F8940F928A819B81DC0183
:102FB00018968D919C911997892B39F58A819B815F
:102FC000FC0182859385892B01F58A819B81DC0137
:102FD0001E96EC918A819B81DC0116962D913C9185
:102FE00017978A819B81DC0114964D915C9115970E
:102FF0008A819B81DC011C966D917C911D978A8151
:103000009B810E2FECD481E089830F900FBE8981C4
:103010000F900F900F900F900F90DF91CF910F9125
:103020000895CF93DF9300D000D0CDB7DEB79E8355
:103030008D838D819E819C838B838B819C81FC0100
:10304000248135818B819C81FC0180819181820F5B
:10305000931F9A8389838B819C81FC018281938158
:1030600029813A81A901481B590BCA019A83898396
:1030700089819A8101979A8389838B819C81FC0144
:103080002481358189819A818217930768F08B8129
:103090009C81FC018481958129813A81A901481B89
:1030A000590BCA019A83898389819A8126960FB622
:1030B000F894DEBF0FBECDBFDF91CF910895AF92E0
:1030C000BF92CF92DF92EF92FF920F931F93CF9315
:1030D000DF93CDB7DEB769970FB6F894DEBF0FBEAA
:1030E000CDBF998B888B7B8B6A8B5D8B4C8B0E8BCA
:1030F0001F8B288F398F888999899E838D831A82A7
:1031000019828C899D899C838B838D819E81FC0192
:1031100084819581019798878F838D819E81FC01A1
:103120008685882F90E081709927892B89F08B8183
:103130009C8102969C838B832B813C818F81988517
:103140008217930780F41E8A1F8A188E198E0BC06F
:103150002B813C818F8198858217930720F48F8182
:1031600098859C838B838E899F89A88DB98D892BA7
:103170008A2B8B2B09F447C0CE010B960E94AB28FB
:103180000FB6F8940F928D819E814BDF9A838983CD
:1031900029813A818B819C812817390770F460E07E
:1031A00080E090E00E94DC320E94582A9C018D81D0
:1031B0009E81FC013387228703C00F900FBE23C07E
:1031C0000F900FBE8E899F89A88DB98D5C016D010E
:1031D000E12CF12C00E010E0980140E050E0BA0151
:1031E00080E00E94E82D8D819E81FC01138612866D
:1031F0009E012A5E3F4FCE010B96B9010E94F62830
:10320000882309F4BDCF89819A81892B29F48D8186
:103210009E8107DF9A838983EB81FC8129813A8132
:103220004C895D896A897B898D819E818F01C2D09D
:103230009A87898789859A85892B41F18D819E811D
:103240008BD39C018D819E81FC01868197812817FB
:103250003907E0F064D78D819E81FC0180859185DE
:10326000892B99F08D819E81FC0180859185E12CCF
:10327000F12C00E020E030E0A90160E00E94EF2E98
:103280008D819E81FC011186108656D789859A858D
:1032900069960FB6F894DEBF0FBECDBFDF91CF9118
:1032A0001F910F91FF90EF90DF90CF90BF90AF9064
:1032B0000895CF92DF92EF92FF920F931F93CF93D7
:1032C000DF93CDB7DEB761970FB6F894DEBF0FBEC0
:1032D000CDBF9B878A877D876C875F874E87398BB9
:1032E000288B8A859B859C838B838E859F859A837B
:1032F00089838B819C81FC018685882F90E0817079
:103300009927892B29F089819A8102969A8389834A
:103310008B819C8186DE9E838D83E981FA812D815C
:103320003E814E855F856C857D858B819C818F017B
:1033300041D098878F838F819885892B51F18B811C
:103340009C810AD39C018B819C81FC0186819781A1
:1033500028173907F0F019868B819C81FC01808544
:103360009185892BB1F08B819C81FC0180859185B1
:10337000288939896901E12CF12C00E020E030E056
:10338000A90160E00E94C0308B819C81FC01118604
:1033900010868F81988561960FB6F894DEBF0FBEB8
:1033A000CDBFDF91CF911F910F91FF90EF90DF90F4
:1033B000CF9008950F931F93CF93DF93CDB7DEB7D0
:1033C00061970FB6F894DEBF0FBECDBF998788878F
:1033D0007B876A875D874C873F872E87198B088B91
:1033E0008E859F85892B11F4198233C08885998534
:1033F000FC018685882F90E081709927892BA9F49C
:1034000081E089838C859D859D838C838E859F85B6
:103410009F838E832C813D818E819F812817390760
:1034200008F4C9019D878C8714C02E853F85888943
:1034300099892817390760F081E089839E01245F0C
:103440003F4F8885998542E050E0B9014FD101C0D6
:1034500019828981882359F04C855D852A853B85B1
:1034600088859985B90142D19B838A8302C01B82DA
:103470001A828A819B8161960FB6F894DEBF0FBED7
:10348000CDBFDF91CF911F910F910895AF92BF9261
:10349000CF92DF92EF92FF920F931F93CF93DF9320
:1034A000CDB7DEB762970FB6F894DEBF0FBECDBFC3
:1034B0009A8789877C876B875E874D870F87188BF4
:1034C000298B3A8B89859A8598878F831A821982EE
:1034D0008F819885FC018685882F90E081709927DF
:1034E000892B29F082E090E09E838D8302C01E82AA
:1034F0001D828F859889A989BA89892B8A2B8B2B64
:1035000009F441C00FB6F8940F928F81988524D2A8
:103510009C838B832B813C818D819E8182179307B5
:1035200068F060E080E090E00E94DC320E94582A5F
:103530009C018F819885FC01318720870F900FBEF9
:103540002B813C818D819E818217930708F18F85A5
:103550009889A989BA895C016D01E12CF12C00E000
:1035600010E0980140E050E0BA0180E00E94E82DB0
:103570008F819885FC01118610868F819885ECD10A
:103580009C838B8305C08F819885E6D19C838B8338
:103590002B813C818D819E818217930770F5ED818F
:1035A000FE812B813C814D855E856B857C858F817D
:1035B00098858F0135D09A83898389819A81892B57
:1035C000E1F0ADD58F819885FC0182859385892BAB
:1035D00099F08F819885FC0182859385E12CF12CEF
:1035E00000E020E030E0A90160E00E94EF2E8F8132
:1035F0009885FC01138612869FD589819A816296EF
:103600000FB6F894DEBF0FBECDBFDF91CF911F91F3
:103610000F91FF90EF90DF90CF90BF90AF90089503
:103620000F931F93CF93DF93CDB7DEB762970FB69B
:10363000F894DEBF0FBECDBF9A8789877C876B87E2
:103640005E874D87388B2F871A8B098B89899A89DA
:10365000892B81F189859A85FC01808191819C83E8
:103660008B832F85388949895A89BE01695F7F4FCD
:1036700089859A85CAD08F8198859A8389832F8579
:10368000388989899A89A901481B590BCA01988BE5
:103690008F8729813A818D859E858217930770F4E3
:1036A00089859A852B813C81FC01318320831A8294
:1036B000198204C08D859E859A8389832F853889D8
:1036C00049815A816B857C8589859A859ED09E83A8
:1036D0008D838D819E8162960FB6F894DEBF0FBEFA
:1036E000CDBFDF91CF911F910F910895CF93DF93BD
:1036F000CDB7DEB72E970FB6F894DEBF0FBECDBFA5
:103700009A8789877C876B875E874D8789859A85AD
:10371000FC01828193819A83898389859A85FC0142
:103720002481358189819A81A901481B590BCA01DD
:103730009C838B838D859E859E838D832B813C818D
:103740008D819E812817390708F4C90198878F83D6
:1037500089859A85FC012485358589819A81820F26
:10376000931F4F8158852B853C85B9010E94EC4AF7
:103770002D853E858F81988582179307A8F42D8526
:103780003E858F819885A901481B590B2B853C8567
:103790008F819885280F391F89859A85FC0184853A
:1037A0009585B9010E94EC4A29813A818D859E85D3
:1037B000820F931F9A83898389859A85FC012481CE
:1037C000358189819A818217930768F089859A8566
:1037D000FC018481958129813A81A901481B590BFB
:1037E000CA019A83898389859A8529813A81FC0156
:1037F000338322838D859E852E960FB6F894DEBF87
:103800000FBECDBFDF91CF910895CF93DF93CDB79A
:10381000DEB766970FB6F894DEBF0FBECDBF988BAC
:103820008F877A8B698B5C8B4B8B3E8B2D8B8D8935
:103830009E899C838B838B899C899E838D832B811E
:103840003C818D819E812817390708F4C90198872A
:103850008F838F819885892B09F473C08F85988910
:10386000FC01808191819A8389838F859889FC01ED
:103870002481358189819A81A901481B590BCA018C
:103880009A8789878F8198859C878B8729853A8538
:103890008B859C852817390708F4C9019E878D8779
:1038A0008F859889FC012485358589819A81280F27
:1038B000391F4D855E8589899A89B9010E94EC4A34
:1038C0002F8138858D859E8582179307A0F42F81DF
:1038D00038858D859E85A901481B590B8F85988950
:1038E000FC016485758529893A898D859E85820FBD
:1038F000931F0E94EC4A29813A818F819885820F1B
:10390000931F9A8389838F859889FC01248135814F
:1039100089819A818217930768F08F859889FC01C5
:103920008481958129813A81A901481B590BCA01DB
:103930009A8389838F85988929813A81FC01318313
:1039400020838F81988566960FB6F894DEBF0FBEF0
:10395000CDBFDF91CF910895CF93DF9300D01F9219
:10396000CDB7DEB79C838B838B819C81FC01248146
:1039700035818B819C81FC0182819381820F931F11
:103980009A8389838B819C81FC018081918129812B
:103990003A81A901481B590BCA019A8389838B81FB
:1039A0009C81FC012481358189819A81821793074A
:1039B00068F08B819C81FC018481958129813A8109
:1039C000A901481B590BCA019A83898389819A816D
:1039D0000F900F900F900F90DF91CF9108950F935C
:1039E000CF93DF93CDB7DEB729970FB6F894DEBF3C
:1039F0000FBECDBF9A8389837C836B835E834D83A7
:103A000038872F83098789819A814FE050E060E0F1
:103A100070E00E94F54A89819A812B813C81FC01EA
:103A20003587248789819A812D813E81FC013583E8
:103A3000248389819A812F813885FC0137832683ED
:103A400089819A812985FC012687000029960FB675
:103A5000F894DEBF0FBECDBFDF91CF910F910895D7
:103A6000AF92BF92CF92DF92EF92FF920F93CF93DC
:103A7000DF93CDB7DEB760970FB6F894DEBF0FBE09
:103A8000CDBF9F838E83798768875B874A873D8711
:103A90002C870E87F88AEF868A859B850E94940B77
:103AA0009D838C838C819D81892BB9F084E390E088
:103AB0000E94940B9A83898389819A81892B41F092
:103AC00089819A812C813D81FC01348F238F07C02D
:103AD0008C819D810E94AA0C02C01A821982898160
:103AE0009A81892BC1F0A981BA81EF85F8892C854B
:103AF0003D854A855B85688579858E819F81A12C6E
:103B0000B12C6D017F010E8519D089819A8105D173
:103B100081E08B8302C08FEF8B838B8160960FB621
:103B2000F894DEBF0FBECDBFDF91CF910F91FF9014
:103B3000EF90DF90CF90BF90AF900895AF92BF927B
:103B4000CF92DF92EF92FF920F931F93CF93DF9369
:103B5000CDB7DEB762970FB6F894DEBF0FBECDBF0C
:103B60009D838C837F836E83598748873B872A8711
:103B70000C87FE86ED86D88ACF86BA8AA98A8F8579
:103B80009889FC01838D948D28853985A90165EA82
:103B900070E00E94F54A8F859889FC01238D348D51
:103BA000888599850197820F931F9B838A838E81D5
:103BB0009F81892B69F1198221C08981882F90E02A
:103BC0002981222F30E04E815F81240F351FF901BA
:103BD00040812F853889820F931F4D96FC014083C9
:103BE0008981882F90E02E813F81820F931FFC01F5
:103BF0008081882339F089818F5F89838981803131
:103C0000E0F201C000008F859889FC0114A604C071
:103C10008F859889FC01158E8C858A3010F089E09B
:103C20008C878F8598892C85FC01228F8F859889B8
:103C30002C85FC0125A78F859889FC0116A68F8508
:103C4000988902960E94870E8F8598890E960E9409
:103C5000870E8F8598892F853889FC0133872287C5
:103C60008C85882F90E0A0E0B0E02AE030E040E0D2
:103C700050E079018A01E81AF90A0A0B1B0BD801F6
:103C8000C7012F853889F90186879787A08BB18B6B
:103C90008F8598892F853889FC01378B268B8F85F6
:103CA00098898F9644E050E060E070E00E94F54A09
:103CB0008F859889C39641E050E060E070E00E94F3
:103CC000F54A4A855B852C813D818A819B81B901BA
:103CD0000E94780F9C018F859889FC013183208395
:103CE0008D859E85892B39F08D859E852F85388918
:103CF000FC0131832083000062960FB6F894DEBF8A
:103D00000FBECDBFDF91CF911F910F91FF90EF902C
:103D1000DF90CF90BF90AF900895CF93DF9300D006
:103D20001F92CDB7DEB79C838B830FB6F8940F92AA
:103D3000809197188F5F809397188091F6179091D4
:103D4000F717892B69F48B819C819093F7178093E7
:103D5000F617809197188130C9F40E94A32916C0E4
:103D600080919D18882391F48091F6179091F71710
:103D7000FC01228D8B819C81FC01828D821730F0A9
:103D80008B819C819093F7178093F6178091A418EC
:103D90008F5F8093A4188B819C81FC01928D809110
:103DA0009C18891730F48B819C81FC01828D809353
:103DB0009C188B819C81FC01828D282F30E04BE088
:103DC000429FC001439F900D11248750984EFC01E3
:103DD000808191819A8389838B819C8129813A8119
:103DE000FC013783268389819A81FC0126813781F2
:103DF0008B819C81FC013187208789819A81FC011C
:103E0000868197812B813C812E5F3F4FFC0135835A
:103E100024838B819C819C012E5F3F4F89819A81F5
:103E2000FC01378326838B819C81FC01828D282FA6
:103E300030E04BE0429FC001439F900D11249C0154
:103E40002850384E8B819C81FC01358724878B81DB
:103E50009C81FC01828D882F90E04BE0489F90016F
:103E6000499F300D11242850384EF901208141E03E
:103E7000420F5BE0589F9001599F300D1124C901FA
:103E80008850984EFC0140830F900FBE80919D1882
:103E9000882371F08091F6179091F717FC01228D1D
:103EA0008B819C81FC01828D281710F40E943E10AA
:103EB00000000F900F900F900F90DF91CF91089519
:103EC000EF92FF920F931F93CF93DF93CDB7DEB79F
:103ED00060970FB6F894DEBF0FBECDBF9C878B876F
:103EE0004D875E876F87788B198219D180919818DA
:103EF00090919918A0919A18B0919B188A839B83EE
:103F0000AC83BD838B859C85FC01208131814281FE
:103F100053818D859E85AF85B889820F931FA41F1D
:103F2000B51F8E839F83A887B9878B859C85FC01ED
:103F300020813181428153818A819B81AC81BD8105
:103F400082179307A407B50700F58B859C85FC01B4
:103F500020813181428153818E819F81A885B985DD
:103F600082179307A407B50778F52E813F8148850E
:103F700059858A819B81AC81BD8182179307A407F3
:103F8000B50710F581E089831FC08B859C85FC01F6
:103F900020813181428153818E819F81A885B9859D
:103FA00082179307A407B50768F02E813F814885E3
:103FB00059858A819B81AC81BD8182179307A407B3
:103FC000B50710F481E089832B853C858E819F8124
:103FD000A885B985F90180839183A283B383898100
:103FE0008823A9F02E813F81488559858A819B814C
:103FF000AC81BD8179018A01E81AF90A0A0B1B0B11
:10400000D801C70140E0BC01CD010E941B3394D010
:104010008A878A85882311F40E943E1089816096E0
:104020000FB6F894DEBF0FBECDBFDF91CF911F91C9
:104030000F91FF90EF900895CF93DF9300D01F92E0
:104040001F92CDB7DEB76A837B838C839D831982F1
:104050008A819B81AC81BD81892B8A2B8B2B61F05E
:104060005ED08A819B81AC81BD8140E0BC01CD01E5
:104070000E941B3361D089838981882311F40E94B7
:104080003E1000000F900F900F900F900F90DF9157
:10409000CF910895EF92FF920F93CF93DF931F92EA
:1040A000CDB7DEB70F2EF9EAEF2EF8E1FF2EF02D97
:1040B00000E020E030E040EC50E064EF76E08DEC92
:1040C00090E0CEDC89838981813019F40E94AB3382
:1040D000898389818130C9F4F8948FEF9FEFDC01E7
:1040E0008093A5189093A618A093A718B093A8182A
:1040F00081E080939D181092981810929918109250
:104100009A1810929B180E940610809106020000D7
:104110000F90DF91CF910F91FF90EF900895CF9383
:10412000DF93CDB7DEB78091AB188F5F8093AB186C
:104130000000DF91CF910895CF93DF93CDB7DEB725
:104140002D970FB6F894DEBF0FBECDBF1A8219822D
:104150001B820FB6F8940F928091AB188150809318
:10416000AB188091AB18882309F069C1809197182A
:10417000882309F464C11BC1809187189091881825
:10418000FC01808591859A83898389819A81FC01CC
:10419000808D918D9987888789819A81FC01828998
:1041A000938929813A81F90124893589FC01378372
:1041B000268389819A81FC018489958929813A81A4
:1041C000F90122893389FC01358324838885998507
:1041D000FC012181328189819A810E962817390745
:1041E00051F489819A81FC012489358988859985D2
:1041F000FC013283218389819A81FC01118E108E0A
:1042000088859985FC0180812FEF280F8885998505
:10421000FC01208389819A81FC01848595859B8797
:104220008A8789819A81FC018681978129813A81D7
:10423000F90120853185FC013783268389819A81A4
:10424000FC018085918529813A81F9012681378198
:10425000FC01358324838A859B85FC012181328181
:1042600089819A8102962817390751F489819A81A8
:10427000FC01208531858A859B85FC013283218361
:1042800089819A81FC01158614868A859B85FC01AB
:1042900080812FEF280F8A859B85FC0120838981EF
:1042A0009A81FC01928D80919C18891730F4898144
:1042B0009A81FC01828D80939C1889819A81FC01EE
:1042C000828D282F30E04BE0429FC001439F900D2C
:1042D00011248750984EFC01808191819D878C87A5
:1042E00089819A812C853D85FC01378326838C85C5
:1042F0009D85FC012681378189819A81FC01318766
:1043000020878C859D85FC018681978129813A8152
:104310002E5F3F4FFC013583248389819A819C0164
:104320002E5F3F4F8C859D85FC01378326838981D5
:104330009A81FC01828D282F30E04BE0429FC00122
:10434000439F900D11249C012850384E89819A81F9
:10435000FC013587248789819A81FC01828D882F11
:1043600090E04BE0489F9001499F300D1124285068
:10437000384EF901208141E0420F5BE0589F9001E7
:10438000599F300D1124C9018850984EFC0140837B
:1043900089819A81FC01228D8091F6179091F717FF
:1043A000FC01828D281718F081E08093A21880917B
:1043B0008018882309F0E0CE89819A81892B11F039
:1043C0000E94282A80919E1890919F18A091A01871
:1043D000B091A1188C839D83AE83BF838C819D8116
:1043E000AE81BF81892B8A2B8B2B09F158D0882372
:1043F00019F081E08093A2188C819D81AE81BF81EC
:104400000197A109B1098C839D83AE83BF838C8101
:104410009D81AE81BF81892B8A2B8B2B39F710921E
:104420009E1810929F181092A0181092A1188091B7
:10443000A218882321F081E08B830E943E100F9008
:104440000FBE8B812D960FB6F894DEBF0FBECDBF89
:10445000DF91CF910895CF93DF9300D01F92CDB716
:10446000DEB70FB6F8940F92809198189091991832
:10447000A0919A18B0919B1889839A83AB83BC83CF
:104480000F900FBE89819A81AB81BC81BC01CD01A7
:104490000F900F900F900F90DF91CF910895CF93D1
:1044A000DF93CDB7DEB763970FB6F894DEBF0FBECC
:1044B000CDBF19828091AB18882309F0CCC18091BF
:1044C000981890919918A0919A18B0919B180196FC
:1044D000A11DB11D8A839B83AC83BD838A819B818F
:1044E000AC81BD818093981890939918A0939A18E5
:1044F000B0939B188A819B81AC81BD81892B8A2BCB
:104500008B2BD1F480917C1890917D189F838E83A2
:1045100080917E1890917F1890937D1880937C18DD
:104520008E819F8190937F1880937E188091A3182D
:104530008F5F8093A3188CD78091A5189091A618AF
:10454000A091A718B091A8182A813B814C815D8168
:10455000281739074A075B0708F460C180917C1867
:1045600090917D18FC018081882361F48FEF9FEF8B
:10457000DC018093A5189093A618A093A718B09378
:10458000A8184CC180917C1890917D18FC018781FE
:104590009085FC0180859185998788878885998594
:1045A000FC0182819381A481B5818A879B87AC8736
:1045B000BD872A813B814C815D818A859B85AC8545
:1045C000BD85281739074A075B0768F48A859B85EC
:1045D000AC85BD858093A5189093A618A093A718C5
:1045E000B093A8181BC188859985FC0184859585A1
:1045F0009F878E8788859985FC018681978128858C
:104600003985F90120853185FC013783268388852A
:104610009985FC018085918528853985F901268158
:104620003781FC01358324838E859F85FC012181A0
:1046300032818885998502962817390751F4888533
:104640009985FC01208531858E859F85FC0132830B
:10465000218388859985FC01158614868E859F8522
:10466000FC0180812FEF280F8E859F85FC01208320
:1046700088859985FC01808D918D892B09F445C031
:1046800088859985FC01808D918D998B888B888593
:104690009985FC018289938928853985F9012489C6
:1046A0003589FC013783268388859985FC018489B7
:1046B000958928853985F90122893389FC0135835B
:1046C000248388899989FC01218132818885998593
:1046D0000E962817390751F488859985FC0124899D
:1046E000358988899989FC01328321838885998558
:1046F000FC01118E108E88899989FC0180812FEF31
:10470000280F88899989FC01208388859985FC0177
:10471000928D80919C18891730F488859985FC01C9
:10472000828D80939C1888859985FC01828D282F25
:1047300030E04BE0429FC001439F900D1124875011
:10474000984EFC01808191819B8B8A8B888599850D
:104750002A893B89FC01378326838A899B89FC014E
:104760002681378188859985FC01318720878A8950
:104770009B89FC0186819781288539852E5F3F4F73
:10478000FC0135832483888599859C012E5F3F4FEA
:104790008A899B89FC013783268388859985FC015A
:1047A000828D282F30E04BE0429FC001439F900D47
:1047B00011249C012850384E88859985FC01358745
:1047C000248788859985FC01828D882F90E04BE0B5
:1047D000489F9001499F300D11242850384EF9010F
:1047E000208141E0420F5BE0589F9001599F300DBE
:1047F0001124C9018850984EFC0140838885998511
:10480000FC01228D8091F6179091F717FC01828DA3
:10481000281708F4A3CE81E08983A0CE8091F617F3
:104820009091F717FC01828D282F30E04BE0429FDA
:10483000C001439F900D11248850984EFC01808147
:10484000823010F081E089838091A2188823B1F032
:1048500081E0898313C080919E1890919F18A09148
:10486000A018B091A1180196A11DB11D80939E18AA
:1048700090939F18A093A018B093A1188981639674
:104880000FB6F894DEBF0FBECDBFDF91CF91089574
:10489000CF93DF9300D0CDB7DEB78091AB188823DC
:1048A00021F081E08093A21878C01092A218809124
:1048B000F6179091F717FC01208131818091F6174E
:1048C0009091F717FC01838D948D8217930770F0F8
:1048D0008091F6179091F7179C01235E3F4F8091CE
:1048E000F6179091F717B9010E94403980919C18F2
:1048F000898303C08981815089838981282F30E091
:104900004BE0429FC001439F900D11248850984E68
:10491000FC018081882371F38981282F30E04BE0EE
:10492000429FC001439F900D11248850984E9B8355
:104930008A838A819B81FC0181819281FC0124818F
:1049400035818A819B81FC01328321838A819B810D
:10495000FC01218132818A819B81039628173907C6
:1049600069F48A819B81FC0181819281FC0124810F
:1049700035818A819B81FC01328321838A819B81DD
:10498000FC0181819281FC01808591859093F717CC
:104990008093F617898180939C1800000F900F90E8
:1049A0000F90DF91CF910895CF93DF9300D000D087
:1049B000CDB7DEB79A8389834B835C836D837E8317
:1049C0008091F6179091F7179C01225F3F4F8981E4
:1049D0009A81B9010E949A0E8B819C81AD81BE8122
:1049E00041E0BC01CD010E941B33000026960FB6AA
:1049F000F894DEBF0FBECDBFDF91CF9108950F9326
:104A00001F93CF93DF93CDB7DEB72C970FB6F894F3
:104A1000DEBF0FBECDBF9C838B834D835E836F83D0
:104A2000788709871A872B873C872091F617309162
:104A3000F7178D819E81AF81B885B068F9018687AF
:104A40009787A08BB18B8B819C81FC0181819281A6
:104A50009A8389838091F6179091F71729813A817B
:104A6000FC01338B228B8091F6179091F7172981E7
:104A70003A81F90126813781FC01358B248B8981AC
:104A80009A81FC01868197812091F6173091F71762
:104A9000225F3F4FFC01358324838091F61790916C
:104AA000F7179C01225F3F4F89819A81FC01378370
:104AB00026838091F6179091F7172B813C81FC019A
:104AC000318F208F8B819C81FC01808121E0280F18
:104AD0008B819C81FC01208389859A85AB85BC856F
:104AE00041E0BC01CD010E941B3300002C960FB6A3
:104AF000F894DEBF0FBECDBFDF91CF911F910F9114
:104B00000895CF93DF93CDB7DEB729970FB6F8940A
:104B1000DEBF0FBECDBF9C838B834D835E836F83CF
:104B2000788729878B819C81FC01818192819A837E
:104B300089838091F6179091F71729813A81FC01BA
:104B4000338B228B8091F6179091F71729813A8148
:104B5000F90126813781FC01358B248B89819A816B
:104B6000FC01868197812091F6173091F717225F1B
:104B70003F4FFC01358324838091F6179091F717FE
:104B80009C01225F3F4F89819A81FC0137832683F4
:104B90008091F6179091F7172B813C81FC01318FA2
:104BA000208F8B819C81FC01808121E0280F8B81EB
:104BB0009C81FC0120838985882339F08FEF9FEF4A
:104BC000DC018D839E83AF83B8878D819E81AF8109
:104BD000B8854985BC01CD010E941B330000299690
:104BE0000FB6F894DEBF0FBECDBFDF91CF91089511
:104BF000CF93DF93CDB7DEB72D970FB6F894DEBF16
:104C00000FBECDBF9D878C878C859D85FC018781DC
:104C10009085FC01808591859B838A838A819B8115
:104C2000FC01808D918D9D838C838A819B81FC0109
:104C3000828993892A813B81F90124893589FC0184
:104C4000378326838A819B81FC01848995892A8107
:104C50003B81F90122893389FC01358324838C81CE
:104C60009D81FC01218132818A819B810E962817CA
:104C7000390751F48A819B81FC01248935898C8113
:104C80009D81FC01328321838A819B81FC01118EED
:104C9000108E8C819D81FC0180812FEF280F8C81EB
:104CA0009D81FC0120838091AB18882309F0BFC04F
:104CB0008A819B81FC01848595859F838E838A816F
:104CC0009B81FC01868197812A813B81F9012085A6
:104CD0003185FC01378326838A819B81FC01808595
:104CE00091852A813B81F90126813781FC01358339
:104CF00024838E819F81FC01218132818A819B8165
:104D000002962817390751F48A819B81FC0120857E
:104D100031858E819F81FC01328321838A819B8131
:104D2000FC01158614868E819F81FC0180812FEF06
:104D3000280F8E819F81FC0120838A819B81FC0149
:104D4000928D80919C18891730F48A819B81FC0197
:104D5000828D80939C188A819B81FC01828D282FF3
:104D600030E04BE0429FC001439F900D11248750DB
:104D7000984EFC0180819181998788878A819B81E7
:104D800028853985FC013783268388859985FC0130
:104D9000268137818A819B81FC0131872087888524
:104DA0009985FC01868197812A813B812E5F3F4F47
:104DB000FC01358324838A819B819C012E5F3F4FB8
:104DC00088859985FC01378326838A819B81FC0134
:104DD000828D282F30E04BE0429FC001439F900D11
:104DE00011249C012850384E8A819B81FC01358713
:104DF00024878A819B81FC01828D882F90E04BE083
:104E0000489F9001499F300D11242850384EF901D8
:104E1000208141E0420F5BE0589F9001599F300D87
:104E20001124C9018850984EFC01408339C08091FB
:104E30008118909182189B878A878A819B812A8515
:104E40003B85FC01338B228B8A859B85FC01268167
:104E500037818A819B81FC01358B248B8A859B85D8
:104E6000FC01868197812A813B81225F3F4FFC01B3
:104E7000358324838A819B819C01225F3F4F8A85F1
:104E80009B85FC01378326838A819B8120E838E15A
:104E9000FC01318F208F809180188F5F8093801864
:104EA0008A819B81FC01228D8091F6179091F717E2
:104EB000FC01828D821730F481E0898381E0809348
:104EC000A21801C0198289812D960FB6F894DEBF11
:104ED0000FBECDBFDF91CF910895CF93DF93CDB7B4
:104EE000DEB72E970FB6F894DEBF0FBECDBF9A8700
:104EF00089874B875C876D877E878B859C85AD8591
:104F0000BE85B06829853A85F90180839183A283A3
:104F1000B38389859A85FC01808591859A838983ED
:104F200089859A85FC01828593859C838B838985FD
:104F30009A85FC018481958129853A85F90126812C
:104F40003781FC013783268389859A85FC01868118
:104F5000978129853A85F90124813581FC013583C2
:104F600024838B819C81FC012181328189859A85F2
:104F70002817390751F489859A85FC0126813781E4
:104F80008B819C81FC013283218389859A85FC0178
:104F9000138612868B819C81FC0180812FEF280F64
:104FA0008B819C81FC01208389819A81FC0184850D
:104FB00095859E838D8389819A81FC018681978165
:104FC00029813A81F90120853185FC0137832683C7
:104FD00089819A81FC018085918529813A81F90135
:104FE00026813781FC01358324838D819E81FC01DC
:104FF0002181328189819A8102962817390751F4DB
:1050000089819A81FC01208531858D819E81FC01F9
:105010003283218389819A81FC01158614868D81D2
:105020009E81FC0180812FEF280F8D819E81FC01E4
:10503000208389819A81FC01928D80919C18891727
:1050400030F489819A81FC01828D80939C1889813A
:105050009A81FC01828D282F30E04BE0429FC001F5
:10506000439F900D11248750984EFC0180819181BF
:1050700098878F8389819A812F813885FC013783B6
:1050800026838F819885FC012681378189819A81C9
:10509000FC01318720878F819885FC01868197816B
:1050A00029813A812E5F3F4FFC013583248389811A
:1050B0009A819C012E5F3F4F8F819885FC01378339
:1050C000268389819A81FC01828D282F30E04BE074
:1050D000429FC001439F900D11249C012850384EDF
:1050E00089819A81FC013587248789819A81FC0115
:1050F000828D882F90E04BE0489F9001499F300DB2
:1051000011242850384EF901208141E0420F5BE024
:10511000589F9001599F300D1124C9018850984E15
:10512000FC01408389819A81FC01228D8091F617D0
:105130009091F717FC01828D821718F481E080931B
:10514000A21800002E960FB6F894DEBF0FBECDBF9A
:10515000DF91CF910895CF93DF931F921F92CDB728
:10516000DEB79A8389830FB6F8940F922091A31823
:1051700089819A81FC0120838091981890919918D7
:10518000A0919A18B0919B1829813A81F9018183E5
:105190009283A383B4830F900FBE00000F900F90F3
:1051A000DF91CF910895CF93DF931F921F92CDB7D8
:1051B000DEB79A8389832091A31889819A81FC01A3
:1051C00020838091981890919918A0919A18B09185
:1051D0009B1829813A81F90181839283A383B48347
:1051E00000000F900F90DF91CF910895EF92FF9202
:1051F0000F931F93CF93DF93CDB7DEB72D970FB6E5
:10520000F894DEBF0FBECDBF9B878A877D876C87F2
:105210000FB6F8940F928091981890919918A091D8
:105220009A18B0919B188A839B83AC83BD838A852F
:105230009B85FC0181819281A381B4812A813B817C
:105240004C815D8179018A01E81AF90A0A0B1B0B6E
:10525000D801C7018E839F83A887B9878A859B85DC
:10526000FC0190818091A3189817D1F08A859B85C5
:10527000FC0121813281438154818A819B81AC81EF
:10528000BD8182179307A407B50750F081E0898399
:105290008C859D85FC01108211821282138238C098
:1052A0008C859D85FC0120813181428153818E81D5
:1052B0009F81A885B98582179307A407B507F8F4DD
:1052C0008C859D85FC0120813181428153818E81B5
:1052D0009F81A885B98579018A01E81AF90A0A0B24
:1052E0001B0BD801C7012C853D85F9018083918373
:1052F000A283B3838A859B8556DF198209C08C857A
:105300009D85FC01108211821282138281E08983C3
:105310000F900FBE89812D960FB6F894DEBF0FBE99
:10532000CDBFDF91CF911F910F91FF90EF90089526
:10533000CF93DF93CDB7DEB781E08093A218000052
:10534000DF91CF910895CF93DF931F92CDB7DEB752
:10535000198210C08981282F30E04BE0429FC001A4
:10536000439F900D11248850984E0E944D0E8981C4
:105370008F5F898389818A3068F386E698E10E948D
:105380004D0E81E798E10E944D0E80E898E10E9461
:105390004D0E8BE898E10E944D0E86E698E19093C1
:1053A0007D1880937C1881E798E190937F18809313
:1053B0007E1800000F90DF91CF910895CF93DF9377
:1053C0001F921F92CDB7DEB720C00FB6F8940F9290
:1053D0008091921890919318FC01808591859A8311
:1053E000898389819A8102960E94210F8091971862
:1053F00081508093971880919618815080939618C9
:105400000F900FBE89819A810AD0809196188823C7
:10541000E1F600000F900F90DF91CF910895CF93A8
:10542000DF931F921F92CDB7DEB79A83898389815C
:105430009A81FC01838D948D0E94AA0C89819A81A6
:105440000E94AA0C00000F900F90DF91CF91089559
:10545000CF93DF93CDB7DEB780917C1890917D1804
:10546000FC018081882361F48FEF9FEFDC01809342
:10547000A5189093A618A093A718B093A81814C0C5
:1054800080917C1890917D18FC0187819085FC01AA
:1054900080819181A281B3818093A5189093A618F1
:1054A000A093A718B093A8180000DF91CF9108959A
:1054B000CF93DF931F921F92CDB7DEB78091F6177F
:1054C0009091F7179A83898389819A810F900F9021
:1054D000DF91CF910895CF93DF931F92CDB7DEB7C1
:1054E00080919D18882319F481E0898308C08091F8
:1054F000AB18882319F482E0898301C0198289815D
:105500000F90DF91CF910895EF92FF920F931F9329
:10551000CF93DF93CDB7DEB727970FB6F894DEBFF2
:105520000FBECDBF9F838E838E819F819B838A8395
:1055300019828E819F81892B09F4EEC08A819B811B
:10554000FC01228D8091F6179091F717FC01828D56
:10555000281708F0D3C08A819B81FC018685978536
:10556000A089B189BB23ECF08091F6179091F717D1
:10557000FC01828D882F90E0A0E0B0E02AE030E0CE
:1055800040E050E079018A01E81AF90A0A0B1B0B86
:10559000D801C7012A813B81F90186879787A08BB3
:1055A000B18B8A819B81FC01248535858A819B8111
:1055B000FC01828D482F50E06BE0649FC001659F25
:1055C000900D11248850984E2817390709F089C08A
:1055D0008A819B8102960E94210F8091F6179091FB
:1055E000F717FC01228D8A819B81FC01228F8A8121
:1055F0009B81FC01928D80919C18891730F48A81DF
:105600009B81FC01828D80939C188A819B81FC0187
:10561000828D282F30E04BE0429FC001439F900DC8
:1056200011248750984EFC01808191819D838C8349
:105630008A819B812C813D81FC01378326838C816B
:105640009D81FC01268137818A819B81FC01318704
:1056500020878C819D81FC01868197812A813B81F5
:105660002E5F3F4FFC01358324838A819B819C01FF
:105670002E5F3F4F8C819D81FC01378326838A8179
:105680009B81FC01828D282F30E04BE0429FC001BE
:10569000439F900D11249C012850384E8A819B8194
:1056A000FC01358724878A819B81FC01828D882FAC
:1056B00090E04BE0489F9001499F300D1124285005
:1056C000384EF901208141E0420F5BE0589F900184
:1056D000599F300D1124C9018850984EFC01408318
:1056E0000AC08091F6179091F717FC01228D8A81EC
:1056F0009B81FC01228F81E089830EC08A819B817E
:10570000FC0125A58091F6179091F717FC01828D79
:10571000281710F481E08983898127960FB6F894C1
:10572000DEBF0FBECDBFDF91CF911F910F91FF90D4
:10573000EF900895EF92FF920F931F93CF93DF9313
:10574000CDB7DEB727970FB6F894DEBF0FBECDBF3B
:105750009F838E838E819F819B838A8319828E8112
:105760009F81892B09F4BFC08A819B81FC0186A59A
:105770002FEF280F8A819B81FC0126A78A819B81BC
:10578000FC01228D8A819B81FC0185A5281709F4E3
:10579000AAC08A819B81FC0186A5882309F0A3C049
:1057A0008A819B8102960E94210F8A819B81FC0144
:1057B00025A58A819B81FC01228F8A819B81FC0126
:1057C000828D882F90E0A0E0B0E02AE030E040E059
:1057D00050E079018A01E81AF90A0A0B1B0BD8017B
:1057E000C7012A813B81F90186879787A08BB18BFE
:1057F0008A819B81FC01928D80919C18891730F4DD
:105800008A819B81FC01828D80939C188A819B8177
:10581000FC01828D282F30E04BE0429FC001439F66
:10582000900D11248750984EFC01808191819D83B9
:105830008C838A819B812C813D81FC013783268367
:105840008C819D81FC01268137818A819B81FC01AD
:10585000318720878C819D81FC01868197812A81F7
:105860003B812E5F3F4FFC01358324838A819B81DE
:105870009C012E5F3F4F8C819D81FC0137832683E5
:105880008A819B81FC01828D282F30E04BE0429F72
:10589000C001439F900D11249C012850384E8A81ED
:1058A0009B81FC01358724878A819B81FC01828D45
:1058B000882F90E04BE0489F9001499F300D1124C4
:1058C0002850384EF901208141E0420F5BE0589F9B
:1058D0009001599F300D1124C9018850984EFC0148
:1058E000408381E08983898127960FB6F894DEBFD3
:1058F0000FBECDBFDF91CF911F910F91FF90EF9021
:105900000895EF92FF920F931F93CF93DF93CDB73C
:10591000DEB72A970FB6F894DEBF0FBECDBF9987CA
:1059200088876A87888599859B838A8381E08C83B1
:1059300088859985892B09F4DCC08A819B81FC01CB
:1059400095A58A85981718F48A85898305C08A8168
:105950009B81FC0185A589838A819B81FC01928DB5
:105960008981981709F4C5C08A819B81FC0196A59D
:105970008C81981709F0BDC08A819B81FC01828DC2
:105980008D838A819B812981FC01228F8A819B8161
:10599000FC0186859785A089B189BB23C4F08981E4
:1059A000882F90E0A0E0B0E02AE030E040E050E056
:1059B00079018A01E81AF90A0A0B1B0BD801C70101
:1059C0002A813B81F90186879787A08BB18B8A81D9
:1059D0009B81FC01248535858D81482F50E06BE04B
:1059E000649FC001659F900D11248850984E281720
:1059F000390709F07EC08A819B8102960E94210F9F
:105A00008A819B81FC01928D80919C18891730F4CA
:105A10008A819B81FC01828D80939C188A819B8165
:105A2000FC01828D282F30E04BE0429FC001439F54
:105A3000900D11248750984EFC01808191819F83A5
:105A40008E838A819B812E813F81FC01378326834F
:105A50008E819F81FC01268137818A819B81FC0197
:105A6000318720878E819F81FC01868197812A81E1
:105A70003B812E5F3F4FFC01358324838A819B81CC
:105A80009C012E5F3F4F8E819F81FC0137832683CF
:105A90008A819B81FC01828D282F30E04BE0429F60
:105AA000C001439F900D11249C012850384E8A81DB
:105AB0009B81FC01358724878A819B81FC01828D33
:105AC000882F90E04BE0489F9001499F300D1124B2
:105AD0002850384EF901208141E0420F5BE0589F89
