S0120000342073656D65737465722E7372656356
S113000002C1000021C100001FC100001DC1000089
S11300101BC1000019C1000017C1000015C1000078
S113002013C1000011C100000FC100000DC1000088
S11300300C94AE0F09C1000007C1000005C1000007
S113004003C1000001C10000FFC00000FDC00000AA
S1130050FBC00000F9C00000F7C00000F5C00000BC
S1130060F3C000000C94AD400C94FF40EDC00000C0
S1130070EBC00000E9C00000E7C00000E5C00000DC
S1130080E3C00000E1C00000DFC00000DDC00000EC
S11300900C9443410C949541D7C000000C94E04566
S11300A0D3C00000D1C00000CFC00000CDC000000C
S11300B0CBC00000C9C00000C7C00000C5C000001C
S11300C0C3C00000C1C00000BFC000000C94D941EF
S11300D00C942B42B9C000000C946F420C94C142A2
S11300E0B3C000004B354B354B35AA35B535EC352F
S11300F04B354B35AA35B5350246724672467246C3
S1130100724672467246724602467246724672469B
S11301107246724672467246044672467246724689
S1130120724672467246724672467246724672460B
S11301307246724672467246044672467246724669
S113014072467246724672467246724672467246EB
S113015072467246724672466E46724672467246DF
S11301607246724672467246394672467246724604
S113017072467246724672467246724672467246BB
S113018072467246724672462D46724672467246F0
S113019072467246724672465146CF93DF931F925F
S11301A01F92CDB7DEB79A8389830E94632880911A
S11301B01E17823010F00E94C30E0E941937F5CF2B
S11301C0CF93DF93CDB7DEB727970FB6F894DEBF92
S11301D00FBECDBF9F838E83CE0105960E94DD3373
S11301E0DC01CB0189839A83AB83BC832D81898114
S11301F09A81AB81BC81422FBC01CD010E945E3348
S11302000E940435E9CF11241FBECFEFD1E2DEBF37
S1130210CDBF00E00CBF19E0A0E0B2E0E0E5F9E9F1
S113022000E00BBF02C007900D92AA35B107D9F7C1
S113023029E1AAE5B9E001C01D92A435B207E1F7AE
S11302400E9489380C94A64CDBCECF92DF92EF92B9
S1130250FF920F931F93CF93DF93CDB7DEB76C97C5
S11302600FB6F894DEBF0FBECDBF9C8F8B8F8091ED
S113027046199091471945E050E060E070E07ED760
S11302808091441990914519CC24CA94DC2C7601B0
S113029001E021E04AE050E060E070E038D6DC01A3
S11302A0CB0189839A83AB83BC8389819A81AB8197
S11302B0BC818A709927AA27BB27892B8A2B8B2B71
S11302C009F443C082E292E00E949B49C8D07C01B9
S11302D03DD58C0146D52F2D2F932E2D2F93212FD5
S11302E02F93202F2F93292F2F938F9385E392E021
S11302F0892F8F9385E392E08F930E9488498DB76D
S11303009EB708960FB6F894DEBF0FBECDBF29D5B1
S113031056D21CD540D2A3D066D2CE01059662E057
S113032076D28091421990914319BE016B5F7F4F41
S11303300FEF1FEF980146E150E00E94E41660E1E0
S11303407DE180E090E00E94A11E63E070E080E027
S113035090E00E94A11E8BCFEF92FF920F93CF9358
S1130360DF931F92CDB7DEB78983E12CF12C09818D
S113037020E030E040EC50E06EE672E085E291E08F
S11303800E94B51B00000F90DF91CF910F91FF9059
S1130390EF900895CF93DF93CDB7DEB783E00E944B
S11303A0133F8BE192E00E94383F0000DF91CF9130
S11303B00895CF92DF92EF92FF920F93CF93DF9342
S11303C000D000D0CDB7DEB79E838D8380914619CF
S11303D090914719CC24CA94DC2C760101E021E0E9
S11303E044E050E060E070E092D5DC01CB01898309
S11303F09A83AB83BC8389819A81AB81BC818470ED
S11304009927AA27BB27892B8A2B8B2BF9F286E7FE
S113041092E00E949B492ED08091441990914519F5
S113042048E050E060E070E0A9D660E070E0CB0105
S11304300E94A11ECBCFCF93DF931F921F92CDB703
S1130440DEB79A83898389819A8190935B0980932B
S11304505A0900000F900F90DF91CF910895CF9328
S1130460DF93CDB7DEB780915A0990915B09DF9194
S1130470CF910895CF93DF93CDB7DEB70E943D3F70
S11304808093231980912319882359F088E892E0F6
S1130490892F8F9388E892E08F930E9488490F9068
S11304A00F900000DF91CF910895EF92FF920F9388
S11304B0CF93DF931F92CDB7DEB789836BDFE12C37
S11304C0F12C098120E030E040EC50E06DEA72E06C
S11304D089ED91E00E94B51B00000F90DF91CF9150
S11304E00F91FF90EF900895CF93DF93CDB7DEB7D0
S11304F081E00E94F310909327198093261910929B
S11305002B1910922A191092291910922819109255
S11305102519109224190000DF91CF910895CF93EB
S1130520DF93CDB7DEB780912A1990912B19DF9113
S1130530CF910895CF93DF93CDB7DEB7809128197B
S113054090912919DF91CF910895CF93DF93CDB77F
S1130550DEB78091241990912519DF91CF910895E8
S1130560CF93DF931F921F92CDB7DEB79A8389830F
S113057089819A8190932B1980932A1900000F90F6
S11305800F90DF91CF910895CF93DF931F921F9225
S1130590CDB7DEB79A83898389819A81909329198B
S11305A08093281900000F900F90DF91CF91089548
S11305B0CF93DF931F921F92CDB7DEB79A838983BF
S11305C089819A81909325198093241900000F90B2
S11305D00F90DF91CF910895EF92FF920F931F93A5
S11305E0CF93DF931F921F92CDB7DEB786E190E0E1
S11305F020D79A83898389819A81892BB9F3898148
S11306009A8122E0FC01208389819A8126E0FC0101
S1130610218380914819909149190FEF1FEF980198
S113062046E150E0BE016F5F7F4F0E94CB18898185
S11306309A81FC018181282F30E089819A81FC0113
S11306408081882F90E0432F4F932F93292F2F934E
S11306508F9385EB92E0892F8F9385EB92E08F93B4
S11306600E9488490F900F900F900F900F900F9059
S113067089819A81FC018181882309F467C0809172
S11306802619909127194AE050E060E070E00E943A
S1130690DE12813009F04FC089819A81FC01828188
S11306A0282F30E089819A81FC018381882F90E092
S11306B0820F931F55DF89819A81FC018481282F41
S11306C030E089819A81FC018581882F90E0820F36
S11306D0931F6EDF89819A81FC018681282F30E087
S11306E089819A81FC018681882F90E0820F931F73
S11306F04BDF20DF7C0129DF8C0111DF2F2D2F93AD
S11307002E2D2F93212F2F93202F2F93292F2F938B
S11307108F938BEE92E0892F8F938BEE92E08F93E1
S11307200E9488498DB79EB708960FB6F894DEBF2D
S11307300FBECDBF0BC086E193E0892F8F9386E176
S113074093E08F930E9488490F900F9066E070E0C9
S113075080E090E00E94A11E49CFEF92FF920F9398
S1130760CF93DF931F92CDB7DEB78983E12CF12CB1
S1130770098120E030E040EC50E06BE473E08CEE63
S113078092E00E94B51B00000F90DF91CF910F9172
S1130790FF90EF900895CF93DF931F921F92CDB7F0
S11307A0DEB79A83898389819A8190935F098093C4
S11307B05E0900000F900F90DF91CF910895CF93C1
S11307C0DF931F921F92CDB7DEB79A838983898105
S11307D09A8190935D0980935C0900000F900F90BB
S11307E0DF91CF910895CF93DF931F921F92CDB7DE
S11307F0DEB79A83898389819A8190935B09809378
S11308005A0900000F900F90DF91CF910895CF9374
S1130810DF9300D01F921F92CDB7DEB79C838B83EA
S11308206D8386E190E005D69A83898389819A81D4
S1130830892B09F446C089819A812D81FC0120838A
S113084089819A8126E0FC01218380915A09909143
S11308505B09892F9927282F89819A81FC0122839A
S113086080915A0990915B09282F89819A81FC0112
S1130870238380915E0990915F09892F9927282FFE
S113088089819A81FC01248380915E0990915F099A
S1130890282F89819A81FC01258380915C0990919C
S11308A05D09892F9927282F89819A81FC01268344
S11308B080915C0990915D09282F89819A81FC01BE
S11308C027838B819C8129813A8146E1F901DC01EE
S11308D001900D924A95E1F78B819C810F900F90C6
S11308E00F900F900F90DF91CF910895EF92FF92A8
S11308F00F93CF93DF931F92CDB7DEB78983E12C9B
S1130900F12C098120E030E048E851E069E573E02A
S11309108DEC95E00E94B51B00000F90DF91CF9104
S11309200F91FF90EF900895CF93DF93CDB7DEB78B
S113093066970FB6F894DEBF0FBECDBF81E00E946C
S113094078440E94BA3B0E94373E292F2F938F93FD
S113095085E793E0892F8F9385E793E08F930E9437
S113096088490F900F900F900F900E94383D0E947D
S1130970373E292F2F938F9388E893E0892F8F9305
S113098088E893E08F930E9488490F900F900F900E
S11309900F90CE0103960E94CC3B8A838A810E94E9
S11309A0373E9C01CE010396492F4F938F93832F9B
S11309B08F93822F8F9381EA93E0892F8F9381EA1B
S11309C093E08F930E9488490F900F900F900F909F
S11309D00F900F90CE0103960E94E83B0E94373E91
S11309E0292F2F938F93CE010396292F2F938F9323
S11309F085EB93E0892F8F9385EB93E08F930E948F
S1130A0088490F900F900F900F900F900F90CE0188
S1130A100396AC016AEC73E08BEE93E00E94163E01
S1130A200E94373E292F2F938F93CE010396292FAF
S1130A302F938F938AEC93E0892F8F938AEC93E022
S1130A408F938BEE93E0892F8F938BEE93E08F93AC
S1130A508CEF93E0892F8F938CEF93E08F930E9418
S1130A6088498DB79EB70A960FB6F894DEBF0FBEBD
S1130A70CDBF0E941B3C0E94373E292F2F938F939A
S1130A8082E394E0892F8F9382E394E08F930E9412
S1130A9088490F900F900F900F9081E00E94153DB0
S1130AA00E94373E292F2F938F9381E494E0892F5E
S1130AB08F9381E494E08F930E9488490F900F9064
S1130AC00F900F9084EF91E00E94203D0E94373EEA
S1130AD0292F2F938F9381E08F9384EF8F9382E656
S1130AE094E0892F8F9382E694E08F930E94884943
S1130AF00F900F900F900F900F900F908AE08983C2
S1130B0080E00E94213C8A838A810E94373E9C01B6
S1130B108981882F90E0432F4F932F93292F2F9370
S1130B208F9382E894E0892F8F9382E894E08F93E7
S1130B300E9488490F900F900F900F900F900F9084
S1130B408A81883081F080E00E94DC4466E371E0B1
S1130B5080E090E00E94A11E89818150898389816F
S1130B60882371F601C000008A81883021F481E075
S1130B700E94BE4409C081E00E94CD4480E00E94EE
S1130B809B440E94C30EFDCF66960FB6F894DEBF59
S1130B900FBECDBFDF91CF9108950F931F93CF93D5
S1130BA0DF93CDB7DEB72A970FB6F894DEBF0FBE3A
S1130BB0CDBF9A87898781E00E94AC3B62E070E0F8
S1130BC080E090E00E94A11E80E00E94AC3B66E9B8
S1130BD070E080E090E00E94A11E0E94653BA4DECC
S1130BE088E89EE0A0E0B0E089839A83AB83BC836D
S1130BF00E94B020DC01CB018D839E83AF83B88734
S1130C0089819A81AB81BC819E012B5F3F4FAC01EE
S1130C10BD01C9010E94E51D8091421990914319BB
S1130C200FEF1FEF980146E150E06CE279E10E947A
S1130C30CB1883E00E94EE446CE279E180E00E94EC
S1130C404A3C0E94373E292F2F938F9382EA94E0E7
S1130C50892F8F9382EA94E08F930E9488490F90A2
S1130C600F900F900F90CCCFCF93DF93CDB7DEB71B
S1130C702DD1909345198093441928D19093471905
S1130C80809346190000DF91CF910895CF93DF93AD
S1130C90CDB7DEB741E060E070E08CE290E00E9406
S1130CA0F3159093431980934219809142199091BE
S1130CB04319892B61F487EB94E0892F8F9387EB99
S1130CC094E08F930E9488490F900F900BC088EE98
S1130CD094E0892F8F9388EE94E08F930E94884943
S1130CE00F900F900000DF91CF910895CF93DF9381
S1130CF0CDB7DEB741E060E070E08CE290E00E94A6
S1130D00F31590934919809348198091481990914B
S1130D104919892B61F483E195E0892F8F9383E14D
S1130D2095E08F930E9488490F900F900BC086E442
S1130D3095E0892F8F9386E495E08F930E948849EC
S1130D400F900F900000DF91CF910895CF93DF9320
S1130D50CDB7DEB780915E0990915F09DF91CF91A5
S1130D600895CF93DF93CDB7DEB780915C0990915E
S1130D705D09DF91CF910895CF93DF931F92CDB793
S1130D80DEB70E94CE3989838981882329F483E7D9
S1130D9095E00E949B4904C086E995E00E949B4926
S1130DA000000F90DF91CF910895CF93DF93CDB7DB
S1130DB0DEB70E94E639882321F080EB95E00E949B
S1130DC09B4963E070E080E090E00E94A11E0E94D5
S1130DD0FB39882321F080ED95E00E949B4961E076
S1130DE070E080E090E00E94A11E0000DF91CF91AE
S1130DF00895CF92DF92EF92FF920F93CF93DF93F8
S1130E0000D000D0CDB7DEB79E838D838091461984
S1130E1090914719CC24CA94DC2C760101E021E09E
S1130E2041E050E060E070E072D0DC01CB018983E6
S1130E309A83AB83BC8389819A81AB81BC818170A5
S1130E409927AA27BB27892B8A2B8B2BD1F085EFD7
S1130E5095E00E949B49A9DF0E94433A90935D0963
S1130E6080935C090E94203A90935F0980935E0905
S1130E70809144199091451942E050E060E070E09F
S1130E807DD160E070E0CB010E94A11EBFCFEF9244
S1130E90FF920F93CF93DF931F92CDB7DEB7898371
S1130EA06BDFE12CF12C098120E030E040EC50E0D4
S1130EB06AE076E089EF96E00E94B51B00000F908F
S1130EC0DF91CF910F91FF90EF900895CF93DF932F
S1130ED01F921F92CDB7DEB78FE090E0AAD29A831B
S1130EE0898389819A81892B59F089819A81FC01AE
S1130EF0108211821282138289819A81049652D5BA
S1130F0089819A810F900F90DF91CF910895CF92AC
S1130F10DF92EF92FF920F931F93CF93DF93CDB79E
S1130F20DEB76D970FB6F894DEBF0FBECDBF9B8BB7
S1130F308A8B4C8B5D8B6E8B7F8B288F098FCA8E2F
S1130F40DB8EEC8EFD8E8A899B899A8789871D8228
S1130F501E821F8218861B860E94141F89859A850B
S1130F60FC0180819181A281B3818C879D87AE87AA
S1130F70BF872C893D894E895F898C859D85AE8587
S1130F80BF85098DBC01CD0107D2888B8889882350
S1130F9059F18C859D85AE85BF8589839A83AB8302
S1130FA0BC831A8E1B8E1C8E1D8E888D882309F49B
S1130FB065C089859A85FC012081318142815381F4
S1130FC08C899D89AE89BF8980959095A095B095AF
S1130FD082239323A423B52329853A85F9018083A9
S1130FE09183A283B3834AC08A8D9B8DAC8DBD8DC2
S1130FF0892B8A2B8B2B59F48C859D85AE85BF85D7
S113100089839A83AB83BC8381E08B8737C0888DC7
S1131010882349F08D819E81AF81B885B1608D832D
S11310209E83AF83B887898D882349F08D819E8103
S1131030AF81B885B4608D839E83AF83B8872C89D4
S11310403D894E895F898D819E81AF81B885822BD0
S1131050932BA42BB52B29853A85F90134962A8D37
S11310603B8D4C8D5D8D89019A01AC01BD01CF0191
S11310700E94842319821A821B821C820E94211FCF
S1131080898B8A8D9B8DAC8DBD8D892B8A2B8B2B67
S113109009F45FC08989882309F475D60E940C2C51
S11310A0DC01CB0189839A83AB83BC8389819A81D8
S11310B0AB81BC8188279927AA27B270892B8A2BF8
S11310C08B2B09F03DC00FB6F8940F9289859A8551
S11310D0FC0180819181A281B38189839A83AB834E
S11310E0BC832C893D894E895F8989819A81AB8132
S11310F0BC81098DBC01CD014FD18823E9F0888DD5
S11311008823D1F089859A85FC012081318142812F
S113111053818C899D89AE89BF8980959095A095CE
S1131120B09582239323A423B52329853A85F90115
S113113080839183A283B38381E08B870F900FBE5A
S113114089819A81AB81BC81BB2789839A83AB83D4
S1131150BC8389819A81AB81BC81BC01CD016D9630
S11311600FB6F894DEBF0FBECDBFDF91CF911F91B4
S11311700F91FF90EF90DF90CF900895CF93DF937E
S1131180CDB7DEB76D970FB6F894DEBF0FBECDBFF7
S1131190998F888F4A8F5B8F6C8F7D8F1B821C8207
S11311A01D821E82888D998D998788871F828885E4
S11311B0998504969B878A878A859B8503969D8754
S11311C08C870E94141F8A859B85FC0187819085EA
S11311D09A83898388859985FC01208131814281A4
S11311E053818A8D9B8DAC8DBD8D822B932BA42B2B
S11311F0B52B28853985F90180839183A283B38334
S113120095C089819A81FC01848195819F878E870D
S113121089819A81FC0180819181A281B381888B2B
S1131220998BAA8BBB8B1F8288899989AA89BB89D0
S113123088279927AA278C8B9D8BAE8BBF8B888997
S11312409989AA89BB89BB27888B998BAA8BBB8B6D
S11312508C899D89AE89BF8988279927AA27B4706C
S1131260892B8A2B8B2BB1F488859985FC012081ED
S113127031814281538188899989AA89BB898223D2
S11312809323A423B523892B8A2B8B2BE9F081E0AC
S11312908F831AC088859985FC0120813181428120
S11312A0538188899989AA89BB89282339234A23A8
S11312B05B2388899989AA89BB89281739074A0732
S11312C05B0711F481E08F838F81882359F18C8926
S11312D09D89AE89BF8988279927AA27B170892B50
S11312E08A2B8B2B81F02B813C814D815E818889F7
S11312F09989AA89BB89822B932BA42BB52B8B8329
S11313009C83AD83BE8388859985FC01808191810E
S1131310A281B381B26029813A81AC01BD01C901C6
S11313200E94F2258E859F859A83898329813A813B
S11313308C859D852817390709F063CF88859985A1
S1131340FC0120813181428153818B819C81AD815B
S1131350BE8180959095A095B09582239323A42374
S1131360B52328853985F90180839183A283B383CA
S11313700E94211F88859985FC0180819181A28129
S1131380B381BC01CD016D960FB6F894DEBF0FBEDC
S1131390CDBFDF91CF9108950F93CF93DF93CDB756
S11313A0DEB72A970FB6F894DEBF0FBECDBF6A83AF
S11313B07B838C839D832E833F83488759870A8749
S11313C019828A85882399F42A813B814C815D8125
S11313D08E819F81A885B98582239323A423B52375
S11313E0892B8A2B8B2BD1F081E0898317C02A812A
S11313F03B814C815D818E819F81A885B98528239D
S113140039234A235B238E819F81A885B9852817B8
S113141039074A075B0711F481E0898389812A9699
S11314200FB6F894DEBF0FBECDBFDF91CF910F9101
S11314300895CF93DF93CDB7DEB72A970FB6F8940C
S1131440DEBF0FBECDBF9A8789871E821D820E9490
S1131450141F8091101790911117892B09F46ED1E4
S113146020911A1730911B1789859A85822393231B
S1131470892B09F0E1C089859A85892BA1F024E0A4
S113148030E089859A85280F391F89859A858217C6
S1131490930748F484E090E029853A85820F931FEE
S11314A09A87898702C01A86198689859A85892B25
S11314B009F4C2C0809112179091131729853A85B7
S11314C08217930708F4B8C08CE097E19C838B8360
S11314D080910C1790910D179A8389830BC0898191
S11314E09A819C838B8389819A81FC01808191817B
S11314F09A83898389819A81FC0122813381898538
S11315009A852817390738F489819A81FC018081EA
S11315109181892B21F780911017909111172981BE
S11315203A812817390709F487C08B819C81FC0113
S11315302081318184E090E0820F931F9E838D830C
S113154089819A81FC01208131818B819C81FC01FC
S11315503183208389819A81FC01228133818985A9
S11315609A85281B390B84E090E0880F991F821715
S1131570930700F529813A8189859A85820F931F03
S113158098878F8389819A81FC012281338189859F
S11315909A85281B390B8F819885FC01338322831C
S11315A089819A8129853A85FC01338322838F813D
S11315B0988544D1209112173091131789819A810B
S11315C0FC0182819381A901481B590BCA019093A4
S11315D013178093121720911217309113178091CB
S11315E01417909115172817390740F48091121792
S11315F090911317909315178093141789819A81EA
S1131600FC012281338180911A1790911B17282B9A
S1131610392B89819A81FC013383228389819A81C0
S1131620FC01118210828091161790911717019670
S113163090931717809316170E94211F8D819E8106
S1131640892B11F40E944C378D819E812A960FB606
S1131650F894DEBF0FBECDBFDF91CF910895CF9335
S1131660DF9300D000D0CDB7DEB79E838D838D810C
S11316709E819A8389838D819E81892B09F454C02C
S113168084E090E091958195910929813A81820FB6
S1131690931F9A83898389819A819C838B838B810D
S11316A09C81FC012281338180911A1790911B1730
S11316B082239323892BC1F18B819C81FC0180813E
S11316C09181892B89F58B819C81FC012281338155
S11316D080911A1790911B17809590952823392390
S11316E08B819C81FC01338322830E94141F8B8194
S11316F09C81FC01228133818091121790911317F0
S1131700820F931F90931317809312178B819C81E0
S113171095D08091181790911917019690931917E5
S1131720809318170E94211F000026960FB6F89484
S1131730DEBF0FBECDBFDF91CF910895CF93DF936E
S1131740CDB7DEB728970FB6F894DEBF0FBECDBF76
S11317508CEA9DE09A83898380E699E09C838B835D
S11317608B819C819E838D838D819E8190930D17A7
S113177080930C1710920F1710920E172D813E8133
S113178089819A81820F931F9C838B8384E090E0EC
S11317902B813C81A901481B590BCA019C838B8373
S11317A08B819C819093111780931017809110174F
S11317B090911117FC01138212828091101790915D
S11317C01117FC01118210828D819E8198878F836D
S11317D08F8198852B813C81281B390B8F819885BB
S11317E0FC013383228320911017309111178F81CC
S11317F09885FC01318320838F819885FC01828147
S1131800938190931517809314178F819885FC0109
S113181082819381909313178093121780E090E84C
S113182090931B1780931A17000028960FB6F8940C
S1131830DEBF0FBECDBFDF91CF910895CF93DF936D
S113184000D000D0CDB7DEB79E838D838CE097E1C6
S11318509A83898307C089819A81FC01808191815F
S11318609A83898389819A81FC01208131818D81C8
S11318709E812817390778F389819A819C838B8309
S113188089819A81FC01828193812B813C81280F7B
S1131890391F8D819E8128173907A9F489819A817E
S11318A0FC01228133818D819E81FC01828193819F
S11318B0280F391F89819A81FC013383228389810E
S11318C09A819E838D838D819E819C838B838D8160
S11318D09E81FC01828193812B813C81280F391FD9
S11318E089819A81FC018081918128173907C1F58A
S11318F089819A81FC012081318180911017909116
S113190011172817390711F18D819E81FC0122815D
S1131910338189819A81FC0180819181FC018281DA
S11319209381280F391F8D819E81FC01338322838B
S113193089819A81FC0180819181FC01208131811E
S11319408D819E81FC013183208314C02091101766
S1131950309111178D819E81FC01318320830AC04F
S113196089819A81FC01208131818D819E81FC01D4
S11319703183208329813A818D819E8128173907FB
S113198039F089819A812D813E81FC013183208344
S1131990000026960FB6F894DEBF0FBECDBFDF91D0
S11319A0CF910895CF93DF931F921F92CDB7DEB7E7
S11319B09A83898389819A819C012D5F3F4F898114
S11319C09A81FC013283218329813A818FEF9FEF31
S11319D0DC01F90183839483A583B68389819A8189
S11319E09C012D5F3F4F89819A81FC0130872783B9
S11319F089819A819C012D5F3F4F89819A81FC01E5
S1131A003287218789819A81FC01108200000F901E
S1131A100F90DF91CF910895CF93DF931F921F9280
S1131A20CDB7DEB79A83898389819A81FC011386B5
S1131A30128600000F900F90DF91CF910895CF93FD
S1131A40DF93CDB7DEB72A970FB6F894DEBF0FBE8B
S1131A50CDBF98878F837A87698789859A85FC01AA
S1131A6080819181A281B3818B839C83AD83BE836A
S1131A708B819C81AD81BE818F3F9F4FAF4FBF4F04
S1131A8041F48F819885FC01818592859A838983AD
S1131A9020C08F81988503969A83898307C08981A2
S1131AA09A81FC01848195819A83898389819A81B1
S1131AB0FC0184819581FC01208131814281538123
S1131AC08B819C81AD81BE8182179307A407B507E2
S1131AD030F789819A81FC012481358189859A8531
S1131AE0FC013583248389859A85FC018481958151
S1131AF029853A85FC013783268389859A8529813E
S1131B003A81FC013783268389819A8129853A8524
S1131B10FC013583248389859A852F813885FC01CE
S1131B20338722878F819885FC01808121E0280FEB
S1131B308F819885FC01208300002A960FB6F894C3
S1131B40DEBF0FBECDBFDF91CF910895CF93DF935A
S1131B5000D01F92CDB7DEB79C838B838B819C8191
S1131B60FC01828593859A8389838B819C81FC0106
S1131B70848195812B813C81F90126813781FC0187
S1131B80378326838B819C81FC01868197812B81FD
S1131B903C81F90124813581FC01358324838981C9
S1131BA09A81FC01218132818B819C81281739071C
S1131BB051F48B819C81FC012681378189819A8132
S1131BC0FC01328321838B819C81FC011386128664
S1131BD089819A81FC0180812FEF280F89819A8164
S1131BE0FC01208389819A81FC0180810F900F90F0
S1131BF00F900F90DF91CF910895CF93DF93CDB7DE
S1131C00DEB728970FB6F894DEBF0FBECDBF9C8316
S1131C108B837E836D8358874F838D819E819A83C6
S1131C20898329818B819C81FC0120838B819C8108
S1131C3001979C838B8389819A81892F99279A8321
S1131C40898329818B819C81FC0120838B819C81E8
S1131C5001979C838B838B819C81FC0110828B81F7
S1131C609C8101979C838B838B819C81FC011082D6
S1131C708B819C8101979C838B838B819C8120E841
S1131C80FC0120838B819C8101979C838B838B81B6
S1131C909C81FC0110828B819C8101979C838B83A6
S1131CA08B819C81FC0110828B819C8101979C8398
S1131CB08B838B819C81FC0110828B819C81479753
S1131CC09C838B838F8198859A83898329818B81D7
S1131CD09C81FC0120838B819C8101979C838B8355
S1131CE089819A81892F99279A83898329818B8174
S1131CF09C81FC0120838B819C8107979C838B832F
S1131D008B819C8128960FB6F894DEBF0FBECDBFA1
S1131D10DF91CF910895CF93DF93CDB7DEB7FFD096
S1131D20A0911C17B0911D17CD91CDBFDD91DEBFE1
S1131D30FF91EF91DF91CF91BF91AF919F918F91DF
S1131D407F916F915F914F913F912F911F910F91CF
S1131D50FF90EF90DF90CF90BF90AF909F908F90C7
S1131D607F906F905F904F903F902F901F900F90B7
S1131D700CBE0F900BBE0F900FBE0F90089581E024
S1131D80DF91CF9108950F920FB6F8940F920BB68E
S1131D900F920CB60F921F9211242F923F924F92E2
S1131DA05F926F927F928F929F92AF92BF92CF92E7
S1131DB0DF92EF92FF920F931F932F933F934F93D2
S1131DC05F936F937F938F939F93AF93BF93CF93BF
S1131DD0DF93EF93FF93A0911C17B0911D170DB6DD
S1131DE00D920EB60D920E94CD22A0911C17B091B7
S1131DF01D17CD91CDBFDD91DEBFFF91EF91DF9136
S1131E00CF91BF91AF919F918F917F916F915F918E
S1131E104F913F912F911F910F91FF90EF90DF9081
S1131E20CF90BF90AF909F908F907F906F905F9076
S1131E304F903F902F901F900F900CBE0F900BBEB1
S1131E400F900FBE0F90089500000F920FB6F894F4
S1131E500F920BB60F920CB60F921F9211242F9271
S1131E603F924F925F926F927F928F929F92AF9226
S1131E70BF92CF92DF92EF92FF920F931F932F9313
S1131E803F934F935F936F937F938F939F93AF93FE
S1131E90BF93CF93DF93EF93FF93A0911C17B0915F
S1131EA01D170DB60D920EB60D9283E590E0FC0160
S1131EB010820E94D420882311F00E94CD22A09188
S1131EC01C17B0911D17CD91CDBFDD91DEBFFF91E1
S1131ED0EF91DF91CF91BF91AF919F918F917F91BE
S1131EE06F915F914F913F912F911F910F91FF90AF
S1131EF0EF90DF90CF90BF90AF909F908F907F90A6
S1131F006F905F904F903F902F901F900F900CBE5A
S1131F100F900BBE0F900FBE0F9008950000CF934B
S1131F20DF93CDB7DEB7A89580E090E0887099275D
S1131F30892B11F080EE01C080EC90E09770892B22
S1131F40982F88E10FB6F894A895809360000FBE8F
S1131F50909360000000DF91CF91089576DF18958B
S1131F600000CF93DF9300D01F921F92CDB7DEB74E
S1131F709C838B836D838B819C819A8389830FB629
S1131F80F8940F9289819A81FC0180819181298141
S1131F903A81F901278D422F50E029813A81F901D4
S1131FA020A1222F30E0429FB001439F700D529F29
S1131FB0700D11249B01280F391F89819A81FC011E
S1131FC03583248389819A81FC01168E89819A81C3
S1131FD0FC012081318189819A81FC013383228330
S1131FE089819A81FC012081318189819A81FC0156
S1131FF0878D882F90E0BC016150710989819A8195
S1132000FC0180A1482F50E0649FC001659F900DA2
S1132010749F900D1124280F391F89819A81FC0126
S11320203783268389819A812FEFFC0121A389813B
S11320309A812FEFFC0122A38D81882379F4898171
S11320409A81FC018085882389F089819A81089688
S11320500E947D24882351F096DE08C089819A81EC
S11320600896A0DC89819A8143969CDC0F900FBE70
S113207081E00F900F900F900F900F90DF91CF9110
S113208008950F931F93CF93DF93CDB7DEB72997AE
S11320900FB6F894DEBF0FBECDBF8F836887498724
S11320A08F81482F50E08885282F30E0429FC0015F
S11320B0439F900D529F900D11249A8389838981A7
S11320C09A818396B6D99C838B838B819C81892B3F
S11320D099F08B819C819E838D838D819E818396D3
S11320E09E838D832B813C818D819E8189012985ED
S11320F0AC0168858F810DD08B819C8129960FB6A8
S1132100F894DEBF0FBECDBFDF91CF911F910F9129
S113211008950F931F93CF93DF93CDB7DEB727971F
S11321200FB6F894DEBF0FBECDBF89836A835C838C
S11321304B832D831F830E838A81882341F48E81F0
S11321409F812E813F81FC013183208307C08E81D2
S11321509F812B813C81FC01318320838E819F816F
S11321602981FC01278F8E819F812A81FC0120A374
S11321708E819F8161E0F5DE000027960FB6F8940A
S1132180DEBF0FBECDBFDF91CF911F910F91089598
S11321900F93CF93DF931F921F92CDB7DEB79A832D
S11321A0898389819A81892BB9F089819A81FC017B
S11321B01582148289819A81FC011182108289819D
S11321C09A81FC01168289819A8100E020E030E046
S11321D0A90160E070E025D000000F900F90DF911E
S11321E0CF910F910895CF93DF9300D01F921F9248
S11321F0CDB7DEB78D8381E089831A824D816A81F0
S113220089813FDF9C838B838B819C81C1DF8B81A0
S11322109C810F900F900F900F900F90DF91CF91B2
S113222008950F93CF93DF93CDB7DEB762970FB6C0
S1132230F894DEBF0FBECDBF9B878A877D876C87EE
S11322402E873F87488B598B0A8B19828A859B85F9
S11322509B838A830FB6F8940F928A819B81FC0139
S1132260268D8A819B81FC01878D281718F08A8925
S11322708230F9F42C853D858A819B814A89B90194
S1132280A6D28C838A819B81FC018389882349F0AF
S11322908A819B8143960E947D24882331F073DDDB
S11322A004C08C81882309F06EDD0F900FBE81E09D
S11322B064C08E859F85A889B989892B8A2B8B2B2D
S11322C021F40F900FBE80E058C08981882331F437
S11322D0CE0105960E94582781E089830F900FBE96
S11322E00E94141F0FB6F8940F928A819B81FC01FF
S11322F081A18F3F21F48A819B81FC0111A28A81F3
S11323009B81FC0182A18F3F21F48A819B81FC0186
S113231012A20F900FBE9E01225F3F4FCE01059681
S1132320B9010E947B27882311F58A819B81EBD315
S11323308823B9F08E859F85A889B9892A813B8134
S1132340285F3F4FAC01BD01C9010E9459238A8116
S11323509B815ED30E94211F882309F07BCF13DD6C
S113236079CF8A819B8154D30E94211F73CF8A81A4
S11323709B814ED30E94211F80E062960FB6F89491
S1132380DEBF0FBECDBFDF91CF910F910895CF93E4
S1132390DF93CDB7DEB72D970FB6F894DEBF0FBE2F
S11323A0CDBF98878F837A8769875C874B872D8712
S11323B08F8198859B838A831C828A819B81FC01FF
S11323C0268D8A819B81FC01878D281718F08D85C5
S11323D08230A9F58A819B81FC0182A18D838A8147
S11323E09B81FC01868D8E8329853A858A819B8118
S11323F04D85B901ECD18D818F3FB9F48A819B81E0
S1132400FC0183898823C1F08A819B8143960E94C1
S11324107D24882389F08B859C85892B69F08B85A5
S11324209C8521E0FC01208307C08D818F5F282FCC
S11324308A819B81FC0122A381E0898301C01982E6
S113244089812D960FB6F894DEBF0FBECDBFDF9104
S1132450CF910895CF93DF93CDB7DEB761970FB6D1
S1132460F894DEBF0FBECDBF9B878A877D876C87BC
S11324702E873F87488B598B19828A859B859B833E
S11324808A830FB6F8940F928A819B81FC01868D12
S11324908C838C818823F9F02C853D858A819B81EE
S11324A0B90165D28C812FEF280F8A819B81FC01B1
S11324B0268F8A819B81FC018085882341F08A8153
S11324C09B8108960E947D24882309F05CDC0F9090
S11324D00FBE81E06AC08E859F85A889B989892B42
S11324E08A2B8B2B21F40F900FBE80E05EC0898174
S11324F0882331F4CE0105960E94582781E0898310
S11325000F900FBE0E94141F0FB6F8940F928A8189
S11325109B81FC0181A18F3F21F48A819B81FC0175
S113252011A28A819B81FC0182A18F3F21F48A81BF
S11325309B81FC0112A20F900FBE9E01225F3F4FB0
S1132540CE010596B9010E947B27882311F58A8163
S11325509B81BCD28823B9F08E859F85A889B989CF
S11325602A813B812D5E3F4FAC01BD01C9010E9410
S113257059238A819B814CD20E94211F882309F010
S113258080CF01DC7ECF8A819B8142D20E94211FB1
S113259078CF8A819B813CD20E94211F8A819B81B2
S11325A095D2882309F46DCF80E061960FB6F89434
S11325B0DEBF0FBECDBFDF91CF910895CF93DF93E0
S11325C0CDB7DEB761970FB6F894DEBF0FBECDBFAF
S11325D09D878C874E875F87688B798B19828C8562
S11325E09D859C838B831A820FB6F8940F928B81FE
S11325F09C81FC01868D8D838D81882341F18D81A1
S11326002FEF280F8B819C81FC01268F8B819C816D
S1132610FC0180819181892B41F40E94532C9C01FF
S11326208B819C81FC01358324838B819C81FC01FB
S11326308085882341F08B819C8108960E947D24AB
S1132640882309F0A0DB0F900FBE81E093C08E8534
S11326509F85A889B989892B8A2B8B2B21F40F900C
S11326600FBE80E087C08981882331F4CE010796AC
S11326700E94582781E089830F900FBE0E94141F87
S11326800FB6F8940F928B819C81FC0181A18F3F3E
S113269021F48B819C81FC0111A28B819C81FC0122
S11326A082A18F3F21F48B819C81FC0112A20F90A7
S11326B00FBE9E01225F3F4FCE010796B9010E94D3
S11326C07B27882309F036C08B819C81FFD1882326
S11326D059F18B819C81FC0180819181892B69F462
S11326E00FB6F8940F928B819C81FC0184819581B3
S11326F00E9409298A830F900FBE8E859F85A88921
S1132700B9892B813C812D5E3F4FAC01BD01C901CC
S11327100E9459238B819C817BD10E94211F882395
S113272009F062CF30DB60CF8B819C8171D10E9434
S1132730211F5ACF8B819C816BD10E94211F8B81D9
S11327409C81C4D1882309F44FCF8A81882389F0DE
S11327500FB6F8940F928B819C8115D08E838B8158
S11327609C81FC01848195816E810E94062B0F90CF
S11327700FBE80E061960FB6F894DEBF0FBECDBFEA
S1132780DF91CF910895CF93DF9300D0CDB7DEB71B
S11327909B838A838A819B81FC018389882379F0C6
S11327A08A819B81FC01828D938DFC0180819181C2
S11327B0A281B381982F8AE0891B898301C0198281
S11327C089810F900F900F90DF91CF910895CF934F
S11327D0DF93CDB7DEB727970FB6F894DEBF0FBEF1
S11327E0CDBF9C838B837E836D834F8319828B81C2
S11327F09C81FC01868D8A838B819C81FC0180A154
S11328008823B1F48B819C81FC0180819181892B87
S113281009F09CC08B819C81FC01848195810E947C
S11328201F2A89838B819C81FC01158214828EC0AE
S11328308F818823D9F58B819C81FC0180A1482F4D
S113284050E08B819C81FC01828193812D813E81AA
S1132850B9010E9429498B819C81FC012281338129
S11328608B819C81FC0180A1882F90E0280F391F67
S11328708B819C81FC01338322838B819C81FC01AD
S1132880228133818B819C81FC018481958128176D
S1132890390708F45BC08B819C81FC012081318164
S11328A08B819C81FC013383228350C08B819C816A
S11328B0FC0180A1482F50E08B819C81FC01868122
S11328C097812D813E81B9010E9429498B819C8188
S11328D0FC01268137818B819C81FC0180A1882F9A
S11328E090E0919581959109280F391F8B819C81E6
S11328F0FC01378326838B819C81FC0126813781EF
S11329008B819C81FC018081918128173907A8F46F
S11329108B819C81FC01248135818B819C81FC010C
S113292080A1882F90E0919581959109280F391FF6
S11329308B819C81FC01378326838F81823031F423
S11329408A81882319F08A8181508A838A8121E0CF
S1132950280F8B819C81FC01268F898127960FB6D5
S1132960F894DEBF0FBECDBFDF91CF910895CF9312
S1132970DF9300D01F92CDB7DEB79A8389837C831F
S11329806B8389819A81FC0180A18823C9F18981A3
S11329909A81FC012681378189819A81FC0180A179
S11329A0882F90E0280F391F89819A81FC01378391
S11329B0268389819A81FC012681378189819A81C4
S11329C0FC01848195812817390750F089819A8107
S11329D0FC012081318189819A81FC01378326831E
S11329E089819A81FC0180A1482F50E089819A81D4
S11329F0FC01268137818B819C81B9010E94294980
S1132A0000000F900F900F900F90DF91CF910895D9
S1132A10CF93DF9300D01F92CDB7DEB79C838B8317
S1132A200FB6F8940F928B819C81FC0182A189835B
S1132A3012C08B819C81FC018389882381F08B8166
S1132A409C8143960E947D24882311F00E941D28B6
S1132A50898181508983898118165CF301C0000043
S1132A608B819C812FEFFC0122A30F900FBE0FB628
S1132A70F8940F928B819C81FC0181A18A8312C0FE
S1132A808B819C81FC018085882381F08B819C81D2
S1132A9008960E947D24882311F00E941D288A81B3
S1132AA081508A838A8118165CF301C000008B81EF
S1132AB09C812FEFFC0121A30F900FBE00000F900B
S1132AC00F900F900F90DF91CF910895CF93DF93E4
S1132AD000D0CDB7DEB79B838A830FB6F8940F92EC
S1132AE08A819B81FC01868D882319F481E0898386
S1132AF001C019820F900FBE89810F900F900F9023
S1132B00DF91CF910895CF93DF9300D0CDB7DEB797
S1132B109B838A830FB6F8940F928A819B81FC0170
S1132B20268D8A819B81FC01878D281719F481E009
S1132B30898301C019820F900FBE89810F900F9075
S1132B400F90DF91CF910895CF93DF93CDB7DEB788
S1132B5029970FB6F894DEBF0FBECDBF9C838B833D
S1132B604D835E836F83788729878B819C819A83C9
S1132B7089830FB6F8940F9289819A81FC0181A10F
S1132B808F3F21F489819A81FC0111A289819A8164
S1132B90FC0182A18F3F21F489819A81FC0112A258
S1132BA00F900FBE89819A81FC01868D882371F470
S1132BB089819A81FC0173968D819E81AF81B8854C
S1132BC02985AC01BD01CF010E94062489819A8127
S1132BD01FDF000029960FB6F894DEBF0FBECDBFED
S1132BE0DF91CF9108950F93CF93DF93CDB7DEB7E5
S1132BF028970FB6F894DEBF0FBECDBF9D838C839C
S1132C007F836E8348878885813019F481E08B83C4
S1132C1001C01B828E819F81892B21F481E090E089
S1132C209F838E838C819D819C01205F3F4F8C818B
S1132C309D818217930768F48C819D8101969D8301
S1132C408C838C819D810F960E94190A9A838983B3
S1132C5002C01A82198289819A81892B69F089813B
S1132C609A81BC01615F7F4F2E813F814C815D81E0
S1132C7089819A810B8138D589819A8128960FB6EA
S1132C80F894DEBF0FBECDBFDF91CF910F910895B1
S1132C900F93CF93DF9300D01F921F92CDB7DEB76F
S1132CA09D838C838C819D819B838A8319820FB63B
S1132CB0F8940F928A819B81DC0118968D919C91E6
S1132CC01997892B39F58A819B81FC01828593852B
S1132CD0892B01F58A819B81DC011E96EC918A8106
S1132CE09B81DC0116962D913C9117978A819B81DB
S1132CF0DC0114964D915C9115978A819B81DC01CE
S1132D001C966D917C911D978A819B810E2FECD42A
S1132D1081E089830F900FBE89810F900F900F90EF
S1132D200F900F90DF91CF910F910895CF93DF9380
S1132D3000D000D0CDB7DEB79E838D838D819E8178
S1132D409C838B838B819C81FC01248135818B81C5
S1132D509C81FC0180819181820F931F9A838983D6
S1132D608B819C81FC018281938129813A81A90113
S1132D70481B590BCA019A83898389819A810197D7
S1132D809A8389838B819C81FC012481358189818B
S1132D909A818217930768F08B819C81FC0184815E
S1132DA0958129813A81A901481B590BCA019A834B
S1132DB0898389819A8126960FB6F894DEBF0FBE67
S1132DC0CDBFDF91CF910895AF92BF92CF92DF92A2
S1132DD0EF92FF920F931F93CF93DF93CDB7DEB79C
S1132DE069970FB6F894DEBF0FBECDBF998B888B61
S1132DF07B8B6A8B5D8B4C8B0E8B1F8B288F398F53
S1132E00888999899E838D831A8219828C899D89E8
S1132E109C838B838D819E81FC01848195810197A4
S1132E2098878F838D819E81FC018685882F90E011
S1132E3081709927892B89F08B819C8102969C83D0
S1132E408B832B813C818F8198858217930780F433
S1132E501E8A1F8A188E198E0BC02B813C818F818C
S1132E6098858217930720F48F8198859C838B83A0
S1132E708E899F89A88DB98D892B8A2B8B2B09F478
S1132E8047C0CE010B960E9430270FB6F8940F92DC
S1132E908D819E814BDF9A83898329813A818B813D
S1132EA09C812817390770F460E080E090E00E946C
S1132EB061310E94DD289C018D819E81FC01338754
S1132EC0228703C00F900FBE23C00F900FBE8E89C0
S1132ED09F89A88DB98D5C016D01E12CF12C00E076
S1132EE010E0980140E050E0BA0180E00E946D2CAF
S1132EF08D819E81FC01138612869E012A5E3F4FBE
S1132F00CE010B96B9010E947B27882309F4BDCF1B
S1132F1089819A81892B29F48D819E8107DF9A8387
S1132F208983EB81FC8129813A814C895D896A8995
S1132F307B898D819E818F01C2D09A8789878985FB
S1132F409A85892B41F18D819E818BD39C018D8142
S1132F509E81FC018681978128173907E0F064D7A8
S1132F608D819E81FC0180859185892B99F08D81CD
S1132F709E81FC0180859185E12CF12C00E020E00C
S1132F8030E0A90160E00E94742D8D819E81FC01D6
S1132F901186108656D789859A8569960FB6F89456
S1132FA0DEBF0FBECDBFDF91CF911F910F91FF9078
S1132FB0EF90DF90CF90BF90AF900895CF92DF92C3
S1132FC0EF92FF920F931F93CF93DF93CDB7DEB7AA
S1132FD061970FB6F894DEBF0FBECDBF9B878A877B
S1132FE07D876C875F874E87398B288B8A859B8585
S1132FF09C838B838E859F859A8389838B819C8117
S1133000FC018685882F90E081709927892B29F00F
S113301089819A8102969A8389838B819C8186DE39
S11330209E838D83E981FA812D813E814E855F8562
S11330306C857D858B819C818F0141D098878F839E
S11330408F819885892B51F18B819C810AD39C01B6
S11330508B819C81FC018681978128173907F0F0C8
S113306019868B819C81FC0180859185892BB1F027
S11330708B819C81FC01808591852889398969012E
S1133080E12CF12C00E020E030E0A90160E00E9496
S1133090452F8B819C81FC01118610868F81988538
S11330A061960FB6F894DEBF0FBECDBFDF91CF910E
S11330B01F910F91FF90EF90DF90CF9008950F93A1
S11330C01F93CF93DF93CDB7DEB761970FB6F89414
S11330D0DEBF0FBECDBF998788877B876A875D87F0
S11330E04C873F872E87198B088B8E859F85892B6C
S11330F011F4198233C088859985FC018685882F4F
S113310090E081709927892BA9F481E089838C85CB
S11331109D859D838C838E859F859F838E832C8143
S11331203D818E819F812817390708F4C9019D8745
S11331308C8714C02E853F8588899989281739077B
S113314060F081E089839E01245F3F4F88859985E3
S113315042E050E0B9014FD101C01982898188232E
S113316059F04C855D852A853B8588859985B9010B
S113317042D19B838A8302C01B821A828A819B81EB
S113318061960FB6F894DEBF0FBECDBFDF91CF912D
S11331901F910F910895AF92BF92CF92DF92EF9259
S11331A0FF920F931F93CF93DF93CDB7DEB7629750
S11331B00FB6F894DEBF0FBECDBF9A8789877C8790
S11331C06B875E874D870F87188B298B3A8B898590
S11331D09A8598878F831A8219828F819885FC013A
S11331E08685882F90E081709927892B29F082E0C9
S11331F090E09E838D8302C01E821D828F859889F4
S1133200A989BA89892B8A2B8B2B09F441C00FB663
S1133210F8940F928F81988524D29C838B832B8181
S11332203C818D819E818217930768F060E080E085
S113323090E00E9461310E94DD289C018F81988575
S1133240FC01318720870F900FBE2B813C818D813B
S11332509E818217930708F18F859889A989BA8975
S11332605C016D01E12CF12C00E010E0980140E0DC
S113327050E0BA0180E00E946D2C8F819885FC019A
S1133280118610868F819885ECD19C838B8305C031
S11332908F819885E6D19C838B832B813C818D81A2
S11332A09E818217930770F5ED81FE812B813C810D
S11332B04D855E856B857C858F8198858F0135D0A2
S11332C09A83898389819A81892BE1F0ADD58F8195
S11332D09885FC0182859385892B99F08F81988547
S11332E0FC0182859385E12CF12C00E020E030E0A4
S11332F0A90160E00E94742D8F819885FC011386DA
S113330012869FD589819A8162960FB6F894DEBFA2
S11333100FBECDBFDF91CF911F910F91FF90EF9022
S1133320DF90CF90BF90AF9008950F931F93CF93EA
S1133330DF93CDB7DEB762970FB6F894DEBF0FBE4A
S1133340CDBF9A8789877C876B875E874D87388B4B
S11333502F871A8B098B89899A89892B81F1898511
S11333609A85FC01808191819C838B832F85388988
S113337049895A89BE01695F7F4F89859A85CAD078
S11333808F8198859A8389832F85388989899A8939
S1133390A901481B590BCA01988B8F8729813A814F
S11333A08D859E858217930770F489859A852B8174
S11333B03C81FC01318320831A82198204C08D85EB
S11333C09E859A8389832F85388949815A816B85A3
S11333D07C8589859A859ED09E838D838D819E81EF
S11333E062960FB6F894DEBF0FBECDBFDF91CF91CA
S11333F01F910F910895CF93DF93CDB7DEB72E972A
S11334000FB6F894DEBF0FBECDBF9A8789877C873D
S11334106B875E874D8789859A85FC0182819381BC
S11334209A83898389859A85FC01248135818981E0
S11334309A81A901481B590BCA019C838B838D85F2
S11334409E859E838D832B813C818D819E8128174F
S1133450390708F4C90198878F8389859A85FC0107
S11334602485358589819A81820F931F4F815885E0
S11334702B853C85B9010E9429492D853E858F8184
S1133480988582179307A8F42D853E858F819885AA
S1133490A901481B590B2B853C858F819885280FE2
S11334A0391F89859A85FC0184859585B9010E9417
S11334B0294929813A818D859E85820F931F9A839C
S11334C0898389859A85FC012481358189819A8142
S11334D08217930768F089859A85FC018481958118
S11334E029813A81A901481B590BCA019A8389830E
S11334F089859A8529813A81FC01338322838D85CC
S11335009E852E960FB6F894DEBF0FBECDBFDF9119
S1133510CF910895CF93DF93CDB7DEB766970FB6FB
S1133520F894DEBF0FBECDBF988B8F877A8B698BE3
S11335305C8B4B8B3E8B2D8B8D899E899C838B83DF
S11335408B899C899E838D832B813C818D819E8177
S11335502817390708F4C90198878F838F819885C4
S1133560892B09F473C08F859889FC01808191812E
S11335709A8389838F859889FC0124813581898187
S11335809A81A901481B590BCA019A8789878F819F
S113359098859C878B8729853A858B859C852817F8
S11335A0390708F4C9019E878D878F859889FC01A6
S11335B02485358589819A81280F391F4D855E853B
S11335C089899A89B9010E9429492F8138858D8575
S11335D09E8582179307A0F42F8138858D859E855B
S11335E0A901481B590B8F859889FC016485758551
S11335F029893A898D859E85820F931F0E942949C6
S113360029813A818F819885820F931F9A838983B8
S11336108F859889FC012481358189819A8182175B
S1133620930768F08F859889FC01848195812981AD
S11336303A81A901481B590BCA019A8389838F8552
S1133640988929813A81FC01318320838F8198856F
S113365066960FB6F894DEBF0FBECDBFDF91CF9153
S11336600895CF93DF9300D01F92CDB7DEB79C832C
S11336708B838B819C81FC01248135818B819C818E
S1133680FC0182819381820F931F9A8389838B81AA
S11336909C81FC018081918129813A81A901481B87
S11336A0590BCA019A8389838B819C81FC012481F3
S11336B0358189819A818217930768F08B819C8177
S11336C0FC018481958129813A81A901481B590B08
S11336D0CA019A83898389819A810F900F900F90F0
S11336E00F90DF91CF9108950F93CF93DF93CDB7D0
S11336F0DEB729970FB6F894DEBF0FBECDBF9A830D
S113370089837C836B835E834D8338872F8309870A
S113371089819A814FE050E060E070E00E94324974
S113372089819A812B813C81FC0135872487898199
S11337309A812D813E81FC013583248389819A817C
S11337402F813885FC013783268389819A812985D5
S1133750FC012687000029960FB6F894DEBF0FBE41
S1133760CDBFDF91CF910F910895AF92BF92CF92C9
S1133770DF92EF92FF920F93CF93DF93CDB7DEB733
S113378060970FB6F894DEBF0FBECDBF9F838E83C4
S1133790798768875B874A873D872C870E87F88AF5
S11337A0EF868A859B850E94190A9D838C838C8170
S11337B09D81892BB9F084E390E00E94190A9A83D1
S11337C0898389819A81892B41F089819A812C810D
S11337D03D81FC01348F238F07C08C819D810E9421
S11337E02F0B02C01A82198289819A81892BC1F018
S11337F0A981BA81EF85F8892C853D854A855B8549
S1133800688579858E819F81A12CB12C6D017F0102
S11338100E8519D089819A8105D181E08B8302C0FC
S11338208FEF8B838B8160960FB6F894DEBF0FBE4B
S1133830CDBFDF91CF910F91FF90EF90DF90CF90AC
S1133840BF90AF900895AF92BF92CF92DF92EF9264
S1133850FF920F931F93CF93DF93CDB7DEB7629799
S11338600FB6F894DEBF0FBECDBF9D838C837F83DC
S11338706E83598748873B872A870C87FE86ED86A7
S1133880D88ACF86BA8AA98A8F859889FC01838DC4
S1133890948D28853985A90165EA70E00E94324932
S11338A08F859889FC01238D348D888599850197AE
S11338B0820F931F9B838A838E819F81892B69F159
S11338C0198221C08981882F90E02981222F30E03C
S11338D04E815F81240F351FF90140812F8538897E
S11338E0820F931F4D96FC0140838981882F90E0BD
S11338F02E813F81820F931FFC018081882339F040
S113390089818F5F898389818031E0F201C0000061
S11339108F859889FC0114A604C08F859889FC01C1
S1133920158E8C858A3010F089E08C878F85988974
S11339302C85FC01228F8F8598892C85FC0125A775
S11339408F859889FC0116A68F85988902960E9416
S11339500C0D8F8598890E960E940C0D8F85988981
S11339602F853889FC01338722878C85882F90E046
S1133970A0E0B0E02AE030E040E050E079018A01C4
S1133980E81AF90A0A0B1B0BD801C7012F853889DD
S1133990F90186879787A08BB18B8F8598892F85AE
S11339A03889FC01378B268B8F8598898F9644E064
S11339B050E060E070E00E9432498F859889C39698
S11339C041E050E060E070E00E9432494A855B8546
S11339D02C813D818A819B81B9010E94FD0D9C014E
S11339E08F859889FC01318320838D859E85892B61
S11339F039F08D859E852F853889FC01318320839C
S1133A00000062960FB6F894DEBF0FBECDBFDF9103
S1133A10CF911F910F91FF90EF90DF90CF90BF90C7
S1133A20AF900895CF93DF9300D01F92CDB7DEB748
S1133A309C838B830FB6F8940F928091BD178F5F90
S1133A408093BD1780911C1790911D17892B69F4E1
S1133A508B819C8190931D1780931C178091BD17B7
S1133A608130C9F40E94282816C08091C317882386
S1133A7091F480911C1790911D17FC01228D8B816C
S1133A809C81FC01828D821730F08B819C81909304
S1133A901D1780931C178091CA178F5F8093CA17D4
S1133AA08B819C81FC01928D8091C217891730F41F
S1133AB08B819C81FC01828D8093C2178B819C81B8
S1133AC0FC01828D282F30E04BE0429FC001439FD0
S1133AD0900D1124815E984EFC01808191819A831E
S1133AE089838B819C8129813A81FC0137832683D8
S1133AF089819A81FC01268137818B819C81FC011B
S1133B003187208789819A81FC01868197812B8165
S1133B103C812E5F3F4FFC01358324838B819C8144
S1133B209C012E5F3F4F89819A81FC013783268354
S1133B308B819C81FC01828D282F30E04BE0429FD9
S1133B40C001439F900D11249C01225E384E8B814D
S1133B509C81FC01358724878B819C81FC01828DAB
S1133B60882F90E04BE0489F9001499F300D11242D
S1133B70225E384EF901208141E0420F5BE0589FFC
S1133B809001599F300D1124C901825E984EFC01A9
S1133B9040830F900FBE8091C317882371F08091EA
S1133BA01C1790911D17FC01228D8B819C81FC01B7
S1133BB0828D281710F40E94C30E00000F900F90FE
S1133BC00F900F90DF91CF910895EF92FF920F9392
S1133BD01F93CF93DF93CDB7DEB760970FB6F894FA
S1133BE0DEBF0FBECDBF9C878B874D875E876F87F7
S1133BF0788B198219D18091BE179091BF17A0912B
S1133C00C017B091C1178A839B83AC83BD838B8516
S1133C109C85FC0120813181428153818D859E8563
S1133C20AF85B889820F931FA41FB51F8E839F830E
S1133C30A887B9878B859C85FC01208131814281CD
S1133C4053818A819B81AC81BD8182179307A4072C
S1133C50B50700F58B859C85FC012081318142816B
S1133C6053818E819F81A885B98582179307A40704
S1133C70B50778F52E813F81488559858A819B81D6
S1133C80AC81BD8182179307A407B50710F581E0C5
S1133C9089831FC08B859C85FC01208131814281F1
S1133CA053818E819F81A885B98582179307A407C4
S1133CB0B50768F02E813F81488559858A819B81AB
S1133CC0AC81BD8182179307A407B50710F481E086
S1133CD089832B853C858E819F81A885B985F901CF
S1133CE080839183A283B38389818823A9F02E8161
S1133CF03F81488559858A819B81AC81BD81790149
S1133D008A01E81AF90A0A0B1B0BD801C70140E023
S1133D10BC01CD010E94A03194D08A878A85882372
S1133D2011F40E94C30E898160960FB6F894DEBF29
S1133D300FBECDBFDF91CF911F910F91FF90EF90F8
S1133D400895CF93DF9300D01F921F92CDB7DEB7B3
S1133D506A837B838C839D8319828A819B81AC8156
S1133D60BD81892B8A2B8B2B61F05ED08A819B814C
S1133D70AC81BD8140E0BC01CD010E94A03161D085
S1133D8089838981882311F40E94C30E00000F9057
S1133D900F900F900F900F90DF91CF910895EF92B5
S1133DA0FF920F93CF93DF931F92CDB7DEB70F2E01
S1133DB0FFECEF2EF7E1FF2EF02D00E020E030E0E5
S1133DC040EC50E069E176E08DEC90E0CEDC898354
S1133DD08981813019F40E9430328983898181304C
S1133DE0C9F4F8948FEF9FEFDC018093CB17909385
S1133DF0CC17A093CD17B093CE1781E08093C3174F
S1133E001092BE171092BF171092C0171092C117CC
S1133E100E948B0E8091060200000F90DF91CF91DB
S1133E200F91FF90EF900895CF93DF93CDB7DEB756
S1133E308091D1178F5F8093D1170000DF91CF91CC
S1133E400895CF93DF93CDB7DEB72D970FB6F894CF
S1133E50DEBF0FBECDBF1A8219821B820FB6F89443
S1133E600F928091D11781508093D1178091D117EF
S1133E70882309F069C18091BD17882309F464C1BE
S1133E801BC18091AD179091AE17FC01808591857F
S1133E909A83898389819A81FC01808D918D998788
S1133EA0888789819A81FC018289938929813A8151
S1133EB0F90124893589FC013783268389819A8114
S1133EC0FC018489958929813A81F9012289338900
S1133ED0FC013583248388859985FC012181328105
S1133EE089819A810E962817390751F489819A811C
S1133EF0FC012489358988859985FC0132832183D5
S1133F0089819A81FC01118E108E88859985FC0126
S1133F1080812FEF280F88859985FC012083898172
S1133F209A81FC01848595859B878A8789819A81FA
S1133F30FC018681978129813A81F90120853185A7
S1133F40FC013783268389819A81FC0180859185D0
S1133F5029813A81F90126813781FC013583248343
S1133F608A859B85FC012181328189819A8102960F
S1133F702817390751F489819A81FC0120853185FC
S1133F808A859B85FC013283218389819A81FC0186
S1133F90158614868A859B85FC0180812FEF280F66
S1133FA08A859B85FC01208389819A81FC01928DFD
S1133FB08091C217891730F489819A81FC01828D1E
S1133FC08093C21789819A81FC01828D282F30E069
S1133FD04BE0429FC001439F900D1124815E984E97
S1133FE0FC01808191819D878C8789819A812C85B0
S1133FF03D85FC01378326838C859D85FC012681C4
S1134000378189819A81FC01318720878C859D8540
S1134010FC018681978129813A812E5F3F4FFC0103
S11340203583248389819A819C012E5F3F4F8C853F
S11340309D85FC013783268389819A81FC01828DC9
S1134040282F30E04BE0429FC001439F900D112484
S11340509C01225E384E89819A81FC013587248730
S113406089819A81FC01828D882F90E04BE0489FE2
S11340709001499F300D1124225E384EF9012081B0
S113408041E0420F5BE0589F9001599F300D11248D
S1134090C901825E984EFC01408389819A81FC01AA
S11340A0228D80911C1790911D17FC01828D281779
S11340B018F081E08093C8178091A617882309F02F
S11340C0E0CE89819A81892B11F00E94AD288091DC
S11340D0C4179091C517A091C617B091C7178C83C8
S11340E09D83AE83BF838C819D81AE81BF81892BEB
S11340F08A2B8B2B09F158D0882319F081E0809307
S1134100C8178C819D81AE81BF810197A109B10936
S11341108C839D83AE83BF838C819D81AE81BF815F
S1134120892B8A2B8B2B39F71092C4171092C51741
S11341301092C6171092C7178091C817882321F0D0
S113414081E08B830E94C30E0F900FBE8B812D964E
S11341500FB6F894DEBF0FBECDBFDF91CF910895A7
S1134160CF93DF9300D01F92CDB7DEB70FB6F8948C
S11341700F928091BE179091BF17A091C017B09174
S1134180C11789839A83AB83BC830F900FBE898147
S11341909A81AB81BC81BC01CD010F900F900F902F
S11341A00F90DF91CF910895CF93DF93CDB7DEB712
S11341B063970FB6F894DEBF0FBECDBF198280910E
S11341C0D117882309F0CCC18091BE179091BF17F5
S11341D0A091C017B091C1170196A11DB11D8A838A
S11341E09B83AC83BD838A819B81AC81BD81809399
S11341F0BE179093BF17A093C017B093C1178A81BD
S11342009B81AC81BD81892B8A2B8B2BD1F480912E
S1134210A2179091A3179F838E838091A4179091E6
S1134220A5179093A3178093A2178E819F819093D3
S1134230A5178093A4178091C9178F5F8093C9171E
S11342408CD78091CB179091CC17A091CD17B091BA
S1134250CE172A813B814C815D81281739074A0793
S11342605B0708F460C18091A2179091A317FC0129
S11342708081882361F48FEF9FEFDC018093CB175B
S11342809093CC17A093CD17B093CE174CC18091C7
S1134290A2179091A317FC0187819085FC0180856A
S11342A091859987888788859985FC018281938186
S11342B0A481B5818A879B87AC87BD872A813B818E
S11342C04C815D818A859B85AC85BD85281739071E
S11342D04A075B0768F48A859B85AC85BD85809316
S11342E0CB179093CC17A093CD17B093CE171BC1C7
S11342F088859985FC01848595859F878E87888527
S11343009985FC018681978128853985F901208565
S11343103185FC013783268388859985FC01808556
S1134320918528853985F90126813781FC013583FA
S113433024838E859F85FC0121813281888599851E
S113434002962817390751F488859985FC01208540
S113435031858E859F85FC013283218388859985EB
S1134360FC01158614868E859F85FC0180812FEFC4
S1134370280F8E859F85FC01208388859985FC0103
S1134380808D918D892B09F445C088859985FC0120
S1134390808D918D998B888B88859985FC01828984
S11343A0938928853985F90124893589FC01378366
S11343B0268388859985FC01848995892885398592
S11343C0F90122893389FC013583248388899989F9
S11343D0FC0121813281888599850E962817390739
S11343E051F488859985FC012489358988899989BE
S11343F0FC013283218388859985FC01118E108EFE
S113440088899989FC0180812FEF280F88899989EF
S1134410FC01208388859985FC01928D8091C217C7
S1134420891730F488859985FC01828D8093C217A1
S113443088859985FC01828D282F30E04BE0429FCE
S1134440C001439F900D1124815E984EFC01808130
S113445091819B8B8A8B888599852A893B89FC016C
S1134460378326838A899B89FC0126813781888545
S11344709985FC01318720878A899B89FC01868183
S11344809781288539852E5F3F4FFC01358324832E
S1134490888599859C012E5F3F4F8A899B89FC0101
S11344A03783268388859985FC01828D282F30E007
S11344B04BE0429FC001439F900D11249C01225E5A
S11344C0384E88859985FC013587248788859985A8
S11344D0FC01828D882F90E04BE0489F9001499F1A
S11344E0300D1124225E384EF901208141E0420F43
S11344F05BE0589F9001599F300D1124C901825EE1
S1134500984EFC01408388859985FC01228D809119
S11345101C1790911D17FC01828D281708F4A3CE57
S113452081E08983A0CE80911C1790911D17FC0116
S1134530828D282F30E04BE0429FC001439F900DB5
S11345401124825E984EFC018081823010F081E05B
S113455089838091C8178823B1F081E0898313C0CF
S11345608091C4179091C517A091C617B091C71731
S11345700196A11DB11D8093C4179093C517A093F4
S1134580C617B093C717898163960FB6F894DEBF38
S11345900FBECDBFDF91CF910895CF93DF9300D0AD
S11345A0CDB7DEB78091D117882321F081E08093C5
S11345B0C81778C01092C81780911C1790911D17C6
S11345C0FC012081318180911C1790911D17FC0101
S11345D0838D948D8217930770F080911C179091AE
S11345E01D179C01235E3F4F80911C1790911D174E
S11345F0B9010E94C5378091C217898303C089819C
S1134600815089838981282F30E04BE0429FC0018B
S1134610439F900D1124825E984EFC018081882373
S113462071F38981282F30E04BE0429FC001439F02
S1134630900D1124825E984E9B838A838A819B818C
S1134640FC0181819281FC01248135818A819B81D5
S1134650FC01328321838A819B81FC012181328187
S11346608A819B8103962817390769F48A819B8183
S1134670FC0181819281FC01248135818A819B81A5
S1134680FC01328321838A819B81FC018181928197
S1134690FC018085918590931D1780931C17898157
S11346A08093C21700000F900F900F90DF91CF916D
S11346B00895CF93DF9300D000D0CDB7DEB79A83AF
S11346C089834B835C836D837E8380911C179091D7
S11346D01D179C01225F3F4F89819A81B9010E9475
S11346E01F0D8B819C81AD81BE8141E0BC01CD0158
S11346F00E94A031000026960FB6F894DEBF0FBECC
S1134700CDBFDF91CF9108950F931F93CF93DF9384
S1134710CDB7DEB72C970FB6F894DEBF0FBECDBF72
S11347209C838B834D835E836F83788709871A8785
S11347302B873C8720911C1730911D178D819E81FA
S1134740AF81B885B068F90186879787A08BB18B54
S11347508B819C81FC01818192819A8389838091E0
S11347601C1790911D1729813A81FC01338B228BF0
S113477080911C1790911D1729813A81F901268196
S11347803781FC01358B248B89819A81FC018681D8
S1134790978120911C1730911D17225F3F4FFC0118
S11347A03583248380911C1790911D179C01225FEF
S11347B03F4F89819A81FC013783268380911C179E
S11347C090911D172B813C81FC01318F208F8B81AF
S11347D09C81FC01808121E0280F8B819C81FC015C
S11347E0208389859A85AB85BC8541E0BC01CD01D8
S11347F00E94A03100002C960FB6F894DEBF0FBEC5
S1134800CDBFDF91CF911F910F910895CF93DF9387
S1134810CDB7DEB729970FB6F894DEBF0FBECDBF74
S11348209C838B834D835E836F83788729878B81F9
S11348309C81FC01818192819A83898380911C17D8
S113484090911D1729813A81FC01338B228B809131
S11348501C1790911D1729813A81F901268137810E
S1134860FC01358B248B89819A81FC018681978197
S113487020911C1730911D17225F3F4FFC01358397
S1134880248380911C1790911D179C01225F3F4F38
S113489089819A81FC013783268380911C1790912A
S11348A01D172B813C81FC01318F208F8B819C81D2
S11348B0FC01808121E0280F8B819C81FC012083F5
S11348C08985882339F08FEF9FEFDC018D839E83E8
S11348D0AF83B8878D819E81AF81B8854985BC013E
S11348E0CD010E94A031000029960FB6F894DEBFD6
S11348F00FBECDBFDF91CF910895CF93DF93CDB796
S1134900DEB72D970FB6F894DEBF0FBECDBF9D87DF
S11349108C878C859D85FC0187819085FC01808531
S113492091859B838A838A819B81FC01808D918DF3
S11349309D838C838A819B81FC01828993892A814E
S11349403B81F90124893589FC01378326838A81D7
S11349509B81FC01848995892A813B81F901228903
S11349603389FC01358324838C819D81FC01218161
S113497032818A819B810E962817390751F48A81E6
S11349809B81FC01248935898C819D81FC013283C2
S113499021838A819B81FC01118E108E8C819D81E3
S11349A0FC0180812FEF280F8C819D81FC012083E5
S11349B08091D117882309F0BFC08A819B81FC01B3
S11349C0848595859F838E838A819B81FC01868162
S11349D097812A813B81F90120853185FC01378348
S11349E026838A819B81FC01808591852A813B8174
S11349F0F90126813781FC01358324838E819F81CF
S1134A00FC01218132818A819B8102962817390712
S1134A1051F48A819B81FC01208531858E819F819F
S1134A20FC01328321838A819B81FC0115861486D3
S1134A308E819F81FC0180812FEF280F8E819F81C1
S1134A40FC0120838A819B81FC01928D8091C21795
S1134A50891730F48A819B81FC01828D8093C2176F
S1134A608A819B81FC01828D282F30E04BE0429F9C
S1134A70C001439F900D1124815E984EFC018081FA
S1134A809181998788878A819B8128853985FC0152
S1134A903783268388859985FC01268137818A811D
S1134AA09B81FC013187208788859985FC0186815B
S1134AB097812A813B812E5F3F4FFC0135832483FC
S1134AC08A819B819C012E5F3F4F88859985FC01DB
S1134AD0378326838A819B81FC01828D282F30E0D5
S1134AE04BE0429FC001439F900D11249C01225E24
S1134AF0384E8A819B81FC01358724878A819B817A
S1134B00FC01828D882F90E04BE0489F9001499FE3
S1134B10300D1124225E384EF901208141E0420F0C
S1134B205BE0589F9001599F300D1124C901825EAA
S1134B30984EFC01408339C08091A7179091A81723
S1134B409B878A878A819B812A853B85FC01338BDD
S1134B50228B8A859B85FC01268137818A819B81F2
S1134B60FC01358B248B8A859B85FC01868197818A
S1134B702A813B81225F3F4FFC01358324838A8154
S1134B809B819C01225F3F4F8A859B85FC01378373
S1134B9026838A819B8126EA37E1FC01318F208FAD
S1134BA08091A6178F5F8093A6178A819B81FC0151
S1134BB0228D80911C1790911D17FC01828D821704
S1134BC030F481E0898381E08093C81701C01982A1
S1134BD089812D960FB6F894DEBF0FBECDBFDF914D
S1134BE0CF910895CF93DF93CDB7DEB72E970FB64D
S1134BF0F894DEBF0FBECDBF9A8789874B875C8749
S1134C006D877E878B859C85AD85BE85B06829853B
S1134C103A85F90180839183A283B38389859A8538
S1134C20FC01808591859A83898389859A85FC0115
S1134C30828593859C838B8389859A85FC018481F5
S1134C40958129853A85F90126813781FC013783CD
S1134C50268389859A85FC018681978129853A85F1
S1134C60F90124813581FC01358324838B819C8166
S1134C70FC012181328189859A852817390751F4ED
S1134C8089859A85FC01268137818B819C81FC0171
S1134C903283218389859A85FC01138612868B8150
S1134CA09C81FC0180812FEF280F8B819C81FC016A
S1134CB0208389819A81FC01848595859E838D83D7
S1134CC089819A81FC018681978129813A81F90140
S1134CD020853185FC013783268389819A81FC01F3
S1134CE08085918529813A81F90126813781FC01EA
S1134CF0358324838D819E81FC01218132818981C8
S1134D009A8102962817390751F489819A81FC0106
S1134D10208531858D819E81FC01328321838981A7
S1134D209A81FC01158614868D819E81FC01808107
S1134D302FEF280F8D819E81FC01208389819A8128
S1134D40FC01928D8091C217891730F489819A8170
S1134D50FC01828D8093C21789819A81FC01828D26
S1134D60282F30E04BE0429FC001439F900D112457
S1134D70815E984EFC018081918198878F8389811F
S1134D809A812F813885FC01378326838F8198850A
S1134D90FC012681378189819A81FC013187208732
S1134DA08F819885FC018681978129813A812E5FC4
S1134DB03F4FFC013583248389819A819C012E5FB6
S1134DC03F4F8F819885FC013783268389819A819F
S1134DD0FC01828D282F30E04BE0429FC001439FAD
S1134DE0900D11249C01225E384E89819A81FC0128
S1134DF03587248789819A81FC01828D882F90E0F0
S1134E004BE0489F9001499F300D1124225E384E9B
S1134E10F901208141E0420F5BE0589F9001599FC6
S1134E20300D1124C901825E984EFC0140838981B2
S1134E309A81FC01228D80911C1790911D17FC0111
S1134E40828D821718F481E08093C81700002E9693
S1134E500FB6F894DEBF0FBECDBFDF91CF9108959A
S1134E60CF93DF931F921F92CDB7DEB79A838983C6
S1134E700FB6F8940F922091C91789819A81FC0189
S1134E8020838091BE179091BF17A091C017B09155
S1134E90C11729813A81F90181839283A383B48361
S1134EA00F900FBE00000F900F90DF91CF910895E7
S1134EB0CF93DF931F921F92CDB7DEB79A83898376
S1134EC02091C91789819A81FC0120838091BE17A2
S1134ED09091BF17A091C017B091C11729813A8151
S1134EE0F90181839283A383B48300000F900F9010
S1134EF0DF91CF910895EF92FF920F931F93CF9379
S1134F00DF93CDB7DEB72D970FB6F894DEBF0FBE93
S1134F10CDBF9B878A877D876C870FB6F8940F92E5
S1134F208091BE179091BF17A091C017B091C1177F
S1134F308A839B83AC83BD838A859B85FC018181A5
S1134F409281A381B4812A813B814C815D81790165
S1134F508A01E81AF90A0A0B1B0BD801C7018E83D0
S1134F609F83A887B9878A859B85FC01908180915E
S1134F70C9179817D1F08A859B85FC01218132815C
S1134F80438154818A819B81AC81BD8182179307BF
S1134F90A407B50750F081E089838C859D85FC01C9
S1134FA0108211821282138238C08C859D85FC0187
S1134FB020813181428153818E819F81A885B98569
S1134FC082179307A407B507F8F48C859D85FC0127
S1134FD020813181428153818E819F81A885B98549
S1134FE079018A01E81AF90A0A0B1B0BD801C701D7
S1134FF02C853D85F90180839183A283B3838A85BF
S11350009B8556DF198209C08C859D85FC01108221
S113501011821282138281E089830F900FBE8981ED
S11350202D960FB6F894DEBF0FBECDBFDF91CF91A2
S11350301F910F91FF90EF900895CF93DF93CDB719
S1135040DEB781E08093C8170000DF91CF91089507
S1135050CF93DF931F92CDB7DEB7198210C0898139
S1135060282F30E04BE0429FC001439F900D112454
S1135070825E984E0E94D20C89818F5F89838981D8
S11350808A3068F38CE897E10E94D20C87E997E1B3
S11350900E94D20C86EA97E10E94D20C81EB97E140
S11350A00E94D20C8CE897E19093A3178093A217E7
S11350B087E997E19093A5178093A41700000F90B8
S11350C0DF91CF910895CF93DF931F921F92CDB7B5
S11350D0DEB720C00FB6F8940F928091B817909164
S11350E0B917FC01808591859A83898389819A8186
S11350F002960E94A60D8091BD1781508093BD1722
S11351008091BC1781508093BC170F900FBE89818A
S11351109A810AD08091BC178823E1F600000F9091
S11351200F90DF91CF910895CF93DF931F921F9239
S1135130CDB7DEB79A83898389819A81FC01838DF7
S1135140948D0E942F0B89819A810E942F0B00005D
S11351500F900F90DF91CF910895CF93DF93CDB748
S1135160DEB78091A2179091A317FC018081882358
S113517061F48FEF9FEFDC018093CB179093CC17F2
S1135180A093CD17B093CE1714C08091A21790911D
S1135190A317FC0187819085FC0180819181A28104
S11351A0B3818093CB179093CC17A093CD17B09372
S11351B0CE170000DF91CF910895CF93DF931F9214
S11351C01F92CDB7DEB780911C1790911D179A835B
S11351D0898389819A810F900F90DF91CF910895EF
S11351E0CF93DF931F92CDB7DEB78091C317882387
S11351F019F481E0898308C08091D117882319F4B8
S113520082E0898301C0198289810F90DF91CF9157
S11352100895EF92FF920F931F93CF93DF93CDB72F
S1135220DEB727970FB6F894DEBF0FBECDBF9F83BE
S11352308E838E819F819B838A8319828E819F8135
S1135240892B09F4EEC08A819B81FC01228D809117
S11352501C1790911D17FC01828D281708F0D3C0EC
S11352608A819B81FC0186859785A089B189BB23AE
S1135270ECF080911C1790911D17FC01828D882FF2
S113528090E0A0E0B0E02AE030E040E050E07901B6
S11352908A01E81AF90A0A0B1B0BD801C7012A81F3
S11352A03B81F90186879787A08BB18B8A819B818B
S11352B0FC01248535858A819B81FC01828D482FE0
S11352C050E06BE0649FC001659F900D1124825EE5
S11352D0984E2817390709F089C08A819B81029664
S11352E00E94A60D80911C1790911D17FC01228D20
S11352F08A819B81FC01228F8A819B81FC01928D92
S11353008091C217891730F48A819B81FC01828DB8
S11353108093C2178A819B81FC01828D282F30E003
S11353204BE0429FC001439F900D1124815E984E33
S1135330FC01808191819D838C838A819B812C8156
S11353403D81FC01378326838C819D81FC0126816C
S113535037818A819B81FC01318720878C819D81E3
S1135360FC01868197812A813B812E5F3F4FFC019E
S1135370358324838A819B819C012E5F3F4F8C81DE
S11353809D81FC01378326838A819B81FC01828D68
S1135390282F30E04BE0429FC001439F900D112421
S11353A09C01225E384E8A819B81FC0135872487CB
S11353B08A819B81FC01828D882F90E04BE0489F7D
S11353C09001499F300D1124225E384EF90120814D
S11353D041E0420F5BE0589F9001599F300D11242A
S11353E0C901825E984EFC0140830AC080911C175B
S11353F090911D17FC01228D8A819B81FC01228FD3
S113540081E089830EC08A819B81FC0125A580915E
S11354101C1790911D17FC01828D281710F481E050
S11354208983898127960FB6F894DEBF0FBECDBF5E
S1135430DF91CF911F910F91FF90EF900895EF921C
S1135440FF920F931F93CF93DF93CDB7DEB72797C8
S11354500FB6F894DEBF0FBECDBF9F838E838E81BF
S11354609F819B838A8319828E819F81892B09F472
S1135470BFC08A819B81FC0186A52FEF280F8A81FA
S11354809B81FC0126A78A819B81FC01228D8A8154
S11354909B81FC0185A5281709F4AAC08A819B81F8
S11354A0FC0186A5882309F0A3C08A819B8102960A
S11354B00E94A60D8A819B81FC0125A58A819B817E
S11354C0FC01228F8A819B81FC01828D882F90E0D0
S11354D0A0E0B0E02AE030E040E050E079018A0149
S11354E0E81AF90A0A0B1B0BD801C7012A813B8170
S11354F0F90186879787A08BB18B8A819B81FC01F8
S1135500928D8091C217891730F48A819B81FC01A6
S1135510828D8093C2178A819B81FC01828D282F02
S113552030E04BE0429FC001439F900D1124815E07
S1135530984EFC01808191819D838C838A819B811B
S11355402C813D81FC01378326838C819D81FC0164
S1135550268137818A819B81FC01318720878C8158
S11355609D81FC01868197812A813B812E5F3F4F7B
S1135570FC01358324838A819B819C012E5F3F4FEC
S11355808C819D81FC01378326838A819B81FC0168
S1135590828D282F30E04BE0429FC001439F900D45
S11355A011249C01225E384E8A819B81FC0135873F
S11355B024878A819B81FC01828D882F90E04BE0B7
S11355C0489F9001499F300D1124225E384EF90105
S11355D0208141E0420F5BE0589F9001599F300DBC
S11355E01124C901825E984EFC01408381E08983C5
S11355F0898127960FB6F894DEBF0FBECDBFDF9129
S1135600CF911F910F91FF90EF900895EF92FF9229
S11356100F931F93CF93DF93CDB7DEB72A970FB6BF
S1135620F894DEBF0FBECDBF998788876A878885C7
S113563099859B838A8381E08C8388859985892BCE
S113564009F4DCC08A819B81FC0195A58A859817A1
S113565018F48A85898305C08A819B81FC0185A50C
S113566089838A819B81FC01928D8981981709F431
S1135670C5C08A819B81FC0196A58C81981709F08D
S1135680BDC08A819B81FC01828D8D838A819B812F
S11356902981FC01228F8A819B81FC018685978563
S11356A0A089B189BB23C4F08981882F90E0A0E050
S11356B0B0E02AE030E040E050E079018A01E81AE5
S11356C0F90A0A0B1B0BD801C7012A813B81F90196
S11356D086879787A08BB18B8A819B81FC01248567
S11356E035858D81482F50E06BE0649FC001659F34
S11356F0900D1124825E984E2817390709F07EC058
S11357008A819B8102960E94A60D8A819B81FC015D
S1135710928D8091C217891730F48A819B81FC0194
S1135720828D8093C2178A819B81FC01828D282FF0
S113573030E04BE0429FC001439F900D1124815EF5
S1135740984EFC01808191819F838E838A819B8105
S11357502E813F81FC01378326838E819F81FC014A
S1135760268137818A819B81FC01318720878E8144
S11357709F81FC01868197812A813B812E5F3F4F67
S1135780FC01358324838A819B819C012E5F3F4FDA
S11357908E819F81FC01378326838A819B81FC0152
S11357A0828D282F30E04BE0429FC001439F900D33
S11357B011249C01225E384E8A819B81FC0135872D
S11357C024878A819B81FC01828D882F90E04BE0A5
S11357D0489F9001499F300D1124225E384EF901F3
S11357E0208141E0420F5BE0589F9001599F300DAA
S11357F01124C901825E984EFC01408300002A9660
S11358000FB6F894DEBF0FBECDBFDF91CF911F91CD
S11358100F91FF90EF900895EF92FF920F931F93D3
S1135820CF93DF9300D01F92CDB7DEB780911C17C2
S113583090911D17FC0186859785A089B18989837C
S11358409A83AB83BC8360911C1770911D17809160
S11358501C1790911D17FC01828D882F90E0A0E009
S1135860B0E02AE030E040E050E079018A01E81A33
S1135870F90A0A0B1B0BD801C701FB01868797871E
S1135880A08BB18B89819A81AB81BC81BC01CD0194
S11358900F900F900F900F90DF91CF911F910F9168
S11358A0FF90EF900895CF93DF93CDB7DEB780914B
S11358B01C1790911D17892B49F080911C1790910A
S11358C01D17FC0126A52F5FFC0126A780911C173C
S11358D090911D17DF91CF910895AF92BF92CF920F
S11358E0DF92EF92FF920F931F93CF93DF93CDB785
S11358F0DEB760970FB6F894DEBF0FBECDBF8A83C4
S11359004B835C836D837E830F83188729873A8753
S1135910FC86EB86AD86BE86CF86D88A0FB6F89411
S11359200F9220911C1730911D178A81882F90E0C7
S1135930820F931FC396DC018C91823009F44FC00F
S113594060911C1770911D178A81E82FF0E08A81FD
S1135950882F90E0880F991F880F991F860F971F33
S11359608F96DC012D913D914D915C918B819C81B1
S1135970AD81BE8180959095A095B09582239323A7
S1135980A423B5239F01220F331F220F331F260F99
S1135990371F215D3F4FF90180839183A283B38335
S11359A020911C1730911D178A81882F90E0820F57
S11359B0931FC39621E0DC012C938D859E85AF85D2
S11359C0B889892B8A2B8B2B51F08D859E85AF85C9
S11359D0B88941E0BC01CD01B3D40E94C30E0F903D
S11359E00FBE0FB6F8940F928B859C85892BD1F04E
S11359F020911C1730911D178A81882F90E0880F01
S1135A00991F880F991F820F931F8F96FC01808125
S1135A109181A281B3812B853C85F9018083918397
S1135A20A283B38320911C1730911D178A81882F7C
S1135A3090E0820F931FC396DC018C91823011F0A9
S1135A40198232C060911C1770911D178A81E82F4A
S1135A50F0E08A81882F90E0880F991F880F991FA2
S1135A60860F971F8F96DC012D913D914D915C918E
S1135A708F819885A985BA8580959095A095B095D4
S1135A8082239323A423B5239F01220F331F220FC4
S1135A90331F260F371F215D3F4FF9018083918308
S1135AA0A283B38381E0898320911C1730911D1751
S1135AB08A81882F90E0820F931FC396DC011C9289
S1135AC00F900FBE898160960FB6F894DEBF0FBEAB
S1135AD0CDBFDF91CF911F910F91FF90EF90DF9099
S1135AE0CF90BF90AF900895EF92FF920F93CF9312
S1135AF0DF93CDB7DEB762970FB6F894DEBF0FBE63
S1135B00CDBF9A8789876B872C873D874E875F87B0
S1135B10088BFA8AE98A81E0898389859A859B833F
S1135B208A830FB6F8940F9289899A89892BC1F0D8
S1135B308B85882F90E02A813B81880F991F880FDD
S1135B40991F820F931F8F96FC0180819181A281FE
S1135B50B38129893A89F90180839183A283B3832C
S1135B608B85882F90E02A813B81820F931FC396F7
S1135B70FC0180818C838B85882F90E02A813B8176
S1135B80820F931FC39622E0FC0120838889882F0B
S1135B9090E08230910509F43EC08330910534F4DD
S1135BA0009709F492C0019749F090C083309105A1
S1135BB009F456C0049709F46BC088C08B85682F1C
S1135BC070E08B85882F90E02A813B81880F991F94
S1135BD0880F991F820F931F8F96FC0120813181BA
S1135BE0428153818C859D85AE85BF85822B932B05
S1135BF0A42BB52B4A815B819B01220F331F220FFB
S1135C00331F240F351F215D3F4FF901808391839A
S1135C10A283B3835BC08B85282F30E04A815B81EC
S1135C20C901880F991F880F991F840F951F8F969C
S1135C30FC0180819181A281B3810196A11DB11DD6
S1135C404A815B81220F331F220F331F240F351F1C
S1135C50215D3F4FF90180839183A283B38336C0D2
S1135C608B85882F90E02A813B81880F991F880FAC
S1135C70991F820F931F9C01215D3F4F8C859D8549
S1135C80AE85BF85F90180839183A283B3831EC04F
S1135C908C818230C1F08B85882F90E02A813B81F2
S1135CA0880F991F880F991F820F931F9C01215DF4
S1135CB03F4F8C859D85AE85BF85F9018083918397
S1135CC0A283B38303C0198201C000008C81813098
S1135CD009F0CCC08A819B81FC01848595859E83D3
S1135CE08D838A819B81FC01868197812A813B81F6
